{"contracts/quanLiThuoc.sol":{"quanLiThuoc":{"abi":[{"anonymous":false,"inputs":[{"indexed":false,"internalType":"uint256","name":"batchId","type":"uint256"},{"indexed":false,"internalType":"string","name":"drugName","type":"string"},{"indexed":false,"internalType":"address","name":"manufacturer","type":"address"}],"name":"BatchCreated","type":"event"},{"anonymous":false,"inputs":[{"indexed":false,"internalType":"uint256","name":"batchId","type":"uint256"},{"indexed":false,"internalType":"address","name":"from","type":"address"},{"indexed":false,"internalType":"address","name":"to","type":"address"}],"name":"BatchTransferred","type":"event"},{"inputs":[{"internalType":"uint256","name":"","type":"uint256"},{"internalType":"uint256","name":"","type":"uint256"}],"name":"batchTransfers","outputs":[{"internalType":"address","name":"from","type":"address"},{"internalType":"address","name":"to","type":"address"},{"internalType":"uint256","name":"timestamp","type":"uint256"}],"stateMutability":"view","type":"function"},{"inputs":[{"internalType":"uint256","name":"","type":"uint256"}],"name":"batches","outputs":[{"internalType":"uint256","name":"batchId","type":"uint256"},{"internalType":"string","name":"drugName","type":"string"},{"internalType":"uint256","name":"manufactureDate","type":"uint256"},{"internalType":"uint256","name":"expiryDate","type":"uint256"},{"internalType":"address","name":"manufacturer","type":"address"},{"internalType":"address","name":"currentOwner","type":"address"},{"internalType":"string","name":"ipfsHash","type":"string"},{"internalType":"bool","name":"exists","type":"bool"}],"stateMutability":"view","type":"function"},{"inputs":[{"internalType":"string","name":"_drugName","type":"string"},{"internalType":"uint256","name":"_manufactureDate","type":"uint256"},{"internalType":"uint256","name":"_expiryDate","type":"uint256"},{"internalType":"string","name":"_ipfsHash","type":"string"}],"name":"createBatch","outputs":[],"stateMutability":"nonpayable","type":"function"},{"inputs":[{"internalType":"uint256","name":"_batchId","type":"uint256"}],"name":"getTransferHistory","outputs":[{"components":[{"internalType":"address","name":"from","type":"address"},{"internalType":"address","name":"to","type":"address"},{"internalType":"uint256","name":"timestamp","type":"uint256"}],"internalType":"struct quanLiThuoc.TransferHistory[]","name":"","type":"tuple[]"}],"stateMutability":"view","type":"function"},{"inputs":[],"name":"nextBatchId","outputs":[{"internalType":"uint256","name":"","type":"uint256"}],"stateMutability":"view","type":"function"},{"inputs":[{"internalType":"uint256","name":"_batchId","type":"uint256"},{"internalType":"address","name":"_to","type":"address"}],"name":"transferBatch","outputs":[],"stateMutability":"nonpayable","type":"function"}],"evm":{"bytecode":{"linkReferences":{},"object":"6080604052600160025534801561001557600080fd5b50611413806100256000396000f3fe608060405234801561001057600080fd5b50600436106100625760003560e01c8063091990e614610067578063621f2b0e146100835780638462a7f81461009f5780638bb27d02146100bd578063b32c4d8d146100ed578063e7d78d6414610124575b600080fd5b610081600480360381019061007c9190610aca565b610156565b005b61009d60048036038101906100989190610bc7565b61032b565b005b6100a76105e0565b6040516100b49190610c16565b60405180910390f35b6100d760048036038101906100d29190610c31565b6105e6565b6040516100e49190610d6d565b60405180910390f35b61010760048036038101906101029190610c31565b61070e565b60405161011b989796959493929190610e38565b60405180910390f35b61013e60048036038101906101399190610ec4565b6108b3565b60405161014d93929190610f04565b60405180910390f35b60405180610100016040528060025481526020018581526020018481526020018381526020013373ffffffffffffffffffffffffffffffffffffffff1681526020013373ffffffffffffffffffffffffffffffffffffffff1681526020018281526020016001151581525060008060025481526020019081526020016000206000820151816000015560208201518160010190816101f49190611147565b50604082015181600201556060820151816003015560808201518160040160006101000a81548173ffffffffffffffffffffffffffffffffffffffff021916908373ffffffffffffffffffffffffffffffffffffffff16021790555060a08201518160050160006101000a81548173ffffffffffffffffffffffffffffffffffffffff021916908373ffffffffffffffffffffffffffffffffffffffff16021790555060c08201518160060190816102ac9190611147565b5060e08201518160070160006101000a81548160ff0219169083151502179055509050507f195a26ecf0c9b8fb957ecc3a7c029ce84849279de600e16f205ee789052052b6600254853360405161030593929190611219565b60405180910390a16002600081548092919061032090611286565b919050555050505050565b60008083815260200190815260200160002060070160009054906101000a900460ff1661038d576040517f08c379a00000000000000000000000000000000000000000000000000000000081526004016103849061131a565b60405180910390fd5b3373ffffffffffffffffffffffffffffffffffffffff1660008084815260200190815260200160002060050160009054906101000a900473ffffffffffffffffffffffffffffffffffffffff1673ffffffffffffffffffffffffffffffffffffffff1614610430576040517f08c379a000000000000000000000000000000000000000000000000000000000815260040161042790611386565b60405180910390fd5b8060008084815260200190815260200160002060050160006101000a81548173ffffffffffffffffffffffffffffffffffffffff021916908373ffffffffffffffffffffffffffffffffffffffff1602179055506001600083815260200190815260200160002060405180606001604052803373ffffffffffffffffffffffffffffffffffffffff1681526020018373ffffffffffffffffffffffffffffffffffffffff16815260200142815250908060018154018082558091505060019003906000526020600020906003020160009091909190915060008201518160000160006101000a81548173ffffffffffffffffffffffffffffffffffffffff021916908373ffffffffffffffffffffffffffffffffffffffff16021790555060208201518160010160006101000a81548173ffffffffffffffffffffffffffffffffffffffff021916908373ffffffffffffffffffffffffffffffffffffffff1602179055506040820151816002015550507fb9f31d1b8db0327a09cde76de6662ee23a4ecd72fbb0411cdfa7969fed7abe448233836040516105d4939291906113a6565b60405180910390a15050565b60025481565b606060016000838152602001908152602001600020805480602002602001604051908101604052809291908181526020016000905b8282101561070357838290600052602060002090600302016040518060600160405290816000820160009054906101000a900473ffffffffffffffffffffffffffffffffffffffff1673ffffffffffffffffffffffffffffffffffffffff1673ffffffffffffffffffffffffffffffffffffffff1681526020016001820160009054906101000a900473ffffffffffffffffffffffffffffffffffffffff1673ffffffffffffffffffffffffffffffffffffffff1673ffffffffffffffffffffffffffffffffffffffff1681526020016002820154815250508152602001906001019061061b565b505050509050919050565b600060205280600052604060002060009150905080600001549080600101805461073790610f6a565b80601f016020809104026020016040519081016040528092919081815260200182805461076390610f6a565b80156107b05780601f10610785576101008083540402835291602001916107b0565b820191906000526020600020905b81548152906001019060200180831161079357829003601f168201915b5050505050908060020154908060030154908060040160009054906101000a900473ffffffffffffffffffffffffffffffffffffffff16908060050160009054906101000a900473ffffffffffffffffffffffffffffffffffffffff169080600601805461081d90610f6a565b80601f016020809104026020016040519081016040528092919081815260200182805461084990610f6a565b80156108965780601f1061086b57610100808354040283529160200191610896565b820191906000526020600020905b81548152906001019060200180831161087957829003601f168201915b5050505050908060070160009054906101000a900460ff16905088565b600160205281600052604060002081815481106108cf57600080fd5b9060005260206000209060030201600091509150508060000160009054906101000a900473ffffffffffffffffffffffffffffffffffffffff16908060010160009054906101000a900473ffffffffffffffffffffffffffffffffffffffff16908060020154905083565b6000604051905090565b600080fd5b600080fd5b600080fd5b600080fd5b6000601f19601f8301169050919050565b7f4e487b7100000000000000000000000000000000000000000000000000000000600052604160045260246000fd5b6109a182610958565b810181811067ffffffffffffffff821117156109c0576109bf610969565b5b80604052505050565b60006109d361093a565b90506109df8282610998565b919050565b600067ffffffffffffffff8211156109ff576109fe610969565b5b610a0882610958565b9050602081019050919050565b82818337600083830152505050565b6000610a37610a32846109e4565b6109c9565b905082815260208101848484011115610a5357610a52610953565b5b610a5e848285610a15565b509392505050565b600082601f830112610a7b57610a7a61094e565b5b8135610a8b848260208601610a24565b91505092915050565b6000819050919050565b610aa781610a94565b8114610ab257600080fd5b50565b600081359050610ac481610a9e565b92915050565b60008060008060808587031215610ae457610ae3610944565b5b600085013567ffffffffffffffff811115610b0257610b01610949565b5b610b0e87828801610a66565b9450506020610b1f87828801610ab5565b9350506040610b3087828801610ab5565b925050606085013567ffffffffffffffff811115610b5157610b50610949565b5b610b5d87828801610a66565b91505092959194509250565b600073ffffffffffffffffffffffffffffffffffffffff82169050919050565b6000610b9482610b69565b9050919050565b610ba481610b89565b8114610baf57600080fd5b50565b600081359050610bc181610b9b565b92915050565b60008060408385031215610bde57610bdd610944565b5b6000610bec85828601610ab5565b9250506020610bfd85828601610bb2565b9150509250929050565b610c1081610a94565b82525050565b6000602082019050610c2b6000830184610c07565b92915050565b600060208284031215610c4757610c46610944565b5b6000610c5584828501610ab5565b91505092915050565b600081519050919050565b600082825260208201905092915050565b6000819050602082019050919050565b610c9381610b89565b82525050565b610ca281610a94565b82525050565b606082016000820151610cbe6000850182610c8a565b506020820151610cd16020850182610c8a565b506040820151610ce46040850182610c99565b50505050565b6000610cf68383610ca8565b60608301905092915050565b6000602082019050919050565b6000610d1a82610c5e565b610d248185610c69565b9350610d2f83610c7a565b8060005b83811015610d60578151610d478882610cea565b9750610d5283610d02565b925050600181019050610d33565b5085935050505092915050565b60006020820190508181036000830152610d878184610d0f565b905092915050565b600081519050919050565b600082825260208201905092915050565b60005b83811015610dc9578082015181840152602081019050610dae565b60008484015250505050565b6000610de082610d8f565b610dea8185610d9a565b9350610dfa818560208601610dab565b610e0381610958565b840191505092915050565b610e1781610b89565b82525050565b60008115159050919050565b610e3281610e1d565b82525050565b600061010082019050610e4e600083018b610c07565b8181036020830152610e60818a610dd5565b9050610e6f6040830189610c07565b610e7c6060830188610c07565b610e896080830187610e0e565b610e9660a0830186610e0e565b81810360c0830152610ea88185610dd5565b9050610eb760e0830184610e29565b9998505050505050505050565b60008060408385031215610edb57610eda610944565b5b6000610ee985828601610ab5565b9250506020610efa85828601610ab5565b9150509250929050565b6000606082019050610f196000830186610e0e565b610f266020830185610e0e565b610f336040830184610c07565b949350505050565b7f4e487b7100000000000000000000000000000000000000000000000000000000600052602260045260246000fd5b60006002820490506001821680610f8257607f821691505b602082108103610f9557610f94610f3b565b5b50919050565b60008190508160005260206000209050919050565b60006020601f8301049050919050565b600082821b905092915050565b600060088302610ffd7fffffffffffffffffffffffffffffffffffffffffffffffffffffffffffffffff82610fc0565b6110078683610fc0565b95508019841693508086168417925050509392505050565b6000819050919050565b600061104461103f61103a84610a94565b61101f565b610a94565b9050919050565b6000819050919050565b61105e83611029565b61107261106a8261104b565b848454610fcd565b825550505050565b600090565b61108761107a565b611092818484611055565b505050565b5b818110156110b6576110ab60008261107f565b600181019050611098565b5050565b601f8211156110fb576110cc81610f9b565b6110d584610fb0565b810160208510156110e4578190505b6110f86110f085610fb0565b830182611097565b50505b505050565b600082821c905092915050565b600061111e60001984600802611100565b1980831691505092915050565b6000611137838361110d565b9150826002028217905092915050565b61115082610d8f565b67ffffffffffffffff81111561116957611168610969565b5b6111738254610f6a565b61117e8282856110ba565b600060209050601f8311600181146111b1576000841561119f578287015190505b6111a9858261112b565b865550611211565b601f1984166111bf86610f9b565b60005b828110156111e7578489015182556001820191506020850194506020810190506111c2565b868310156112045784890151611200601f89168261110d565b8355505b6001600288020188555050505b505050505050565b600060608201905061122e6000830186610c07565b81810360208301526112408185610dd5565b905061124f6040830184610e0e565b949350505050565b7f4e487b7100000000000000000000000000000000000000000000000000000000600052601160045260246000fd5b600061129182610a94565b91507fffffffffffffffffffffffffffffffffffffffffffffffffffffffffffffffff82036112c3576112c2611257565b5b600182019050919050565b7f426174636820646f6573206e6f74206578697374000000000000000000000000600082015250565b6000611304601483610d9a565b915061130f826112ce565b602082019050919050565b60006020820190508181036000830152611333816112f7565b9050919050565b7f4e6f74206261746368206f776e65720000000000000000000000000000000000600082015250565b6000611370600f83610d9a565b915061137b8261133a565b602082019050919050565b6000602082019050818103600083015261139f81611363565b9050919050565b60006060820190506113bb6000830186610c07565b6113c86020830185610e0e565b6113d56040830184610e0e565b94935050505056fea2646970667358221220e301d78a8858ae7a077f633180cdf98e39767d7c22249b818f46fb74051c2fc264736f6c63430008140033","opcodes":"PUSH1 0x80 PUSH1 0x40 MSTORE PUSH1 0x1 PUSH1 0x2 SSTORE CALLVALUE DUP1 ISZERO PUSH2 0x15 JUMPI PUSH1 0x0 DUP1 REVERT JUMPDEST POP PUSH2 0x1413 DUP1 PUSH2 0x25 PUSH1 0x0 CODECOPY PUSH1 0x0 RETURN INVALID PUSH1 0x80 PUSH1 0x40 MSTORE CALLVALUE DUP1 ISZERO PUSH2 0x10 JUMPI PUSH1 0x0 DUP1 REVERT JUMPDEST POP PUSH1 0x4 CALLDATASIZE LT PUSH2 0x62 JUMPI PUSH1 0x0 CALLDATALOAD PUSH1 0xE0 SHR DUP1 PUSH4 0x91990E6 EQ PUSH2 0x67 JUMPI DUP1 PUSH4 0x621F2B0E EQ PUSH2 0x83 JUMPI DUP1 PUSH4 0x8462A7F8 EQ PUSH2 0x9F JUMPI DUP1 PUSH4 0x8BB27D02 EQ PUSH2 0xBD JUMPI DUP1 PUSH4 0xB32C4D8D EQ PUSH2 0xED JUMPI DUP1 PUSH4 0xE7D78D64 EQ PUSH2 0x124 JUMPI JUMPDEST PUSH1 0x0 DUP1 REVERT JUMPDEST PUSH2 0x81 PUSH1 0x4 DUP1 CALLDATASIZE SUB DUP2 ADD SWAP1 PUSH2 0x7C SWAP2 SWAP1 PUSH2 0xACA JUMP JUMPDEST PUSH2 0x156 JUMP JUMPDEST STOP JUMPDEST PUSH2 0x9D PUSH1 0x4 DUP1 CALLDATASIZE SUB DUP2 ADD SWAP1 PUSH2 0x98 SWAP2 SWAP1 PUSH2 0xBC7 JUMP JUMPDEST PUSH2 0x32B JUMP JUMPDEST STOP JUMPDEST PUSH2 0xA7 PUSH2 0x5E0 JUMP JUMPDEST PUSH1 0x40 MLOAD PUSH2 0xB4 SWAP2 SWAP1 PUSH2 0xC16 JUMP JUMPDEST PUSH1 0x40 MLOAD DUP1 SWAP2 SUB SWAP1 RETURN JUMPDEST PUSH2 0xD7 PUSH1 0x4 DUP1 CALLDATASIZE SUB DUP2 ADD SWAP1 PUSH2 0xD2 SWAP2 SWAP1 PUSH2 0xC31 JUMP JUMPDEST PUSH2 0x5E6 JUMP JUMPDEST PUSH1 0x40 MLOAD PUSH2 0xE4 SWAP2 SWAP1 PUSH2 0xD6D JUMP JUMPDEST PUSH1 0x40 MLOAD DUP1 SWAP2 SUB SWAP1 RETURN JUMPDEST PUSH2 0x107 PUSH1 0x4 DUP1 CALLDATASIZE SUB DUP2 ADD SWAP1 PUSH2 0x102 SWAP2 SWAP1 PUSH2 0xC31 JUMP JUMPDEST PUSH2 0x70E JUMP JUMPDEST PUSH1 0x40 MLOAD PUSH2 0x11B SWAP9 SWAP8 SWAP7 SWAP6 SWAP5 SWAP4 SWAP3 SWAP2 SWAP1 PUSH2 0xE38 JUMP JUMPDEST PUSH1 0x40 MLOAD DUP1 SWAP2 SUB SWAP1 RETURN JUMPDEST PUSH2 0x13E PUSH1 0x4 DUP1 CALLDATASIZE SUB DUP2 ADD SWAP1 PUSH2 0x139 SWAP2 SWAP1 PUSH2 0xEC4 JUMP JUMPDEST PUSH2 0x8B3 JUMP JUMPDEST PUSH1 0x40 MLOAD PUSH2 0x14D SWAP4 SWAP3 SWAP2 SWAP1 PUSH2 0xF04 JUMP JUMPDEST PUSH1 0x40 MLOAD DUP1 SWAP2 SUB SWAP1 RETURN JUMPDEST PUSH1 0x40 MLOAD DUP1 PUSH2 0x100 ADD PUSH1 0x40 MSTORE DUP1 PUSH1 0x2 SLOAD DUP2 MSTORE PUSH1 0x20 ADD DUP6 DUP2 MSTORE PUSH1 0x20 ADD DUP5 DUP2 MSTORE PUSH1 0x20 ADD DUP4 DUP2 MSTORE PUSH1 0x20 ADD CALLER PUSH20 0xFFFFFFFFFFFFFFFFFFFFFFFFFFFFFFFFFFFFFFFF AND DUP2 MSTORE PUSH1 0x20 ADD CALLER PUSH20 0xFFFFFFFFFFFFFFFFFFFFFFFFFFFFFFFFFFFFFFFF AND DUP2 MSTORE PUSH1 0x20 ADD DUP3 DUP2 MSTORE PUSH1 0x20 ADD PUSH1 0x1 ISZERO ISZERO DUP2 MSTORE POP PUSH1 0x0 DUP1 PUSH1 0x2 SLOAD DUP2 MSTORE PUSH1 0x20 ADD SWAP1 DUP2 MSTORE PUSH1 0x20 ADD PUSH1 0x0 KECCAK256 PUSH1 0x0 DUP3 ADD MLOAD DUP2 PUSH1 0x0 ADD SSTORE PUSH1 0x20 DUP3 ADD MLOAD DUP2 PUSH1 0x1 ADD SWAP1 DUP2 PUSH2 0x1F4 SWAP2 SWAP1 PUSH2 0x1147 JUMP JUMPDEST POP PUSH1 0x40 DUP3 ADD MLOAD DUP2 PUSH1 0x2 ADD SSTORE PUSH1 0x60 DUP3 ADD MLOAD DUP2 PUSH1 0x3 ADD SSTORE PUSH1 0x80 DUP3 ADD MLOAD DUP2 PUSH1 0x4 ADD PUSH1 0x0 PUSH2 0x100 EXP DUP2 SLOAD DUP2 PUSH20 0xFFFFFFFFFFFFFFFFFFFFFFFFFFFFFFFFFFFFFFFF MUL NOT AND SWAP1 DUP4 PUSH20 0xFFFFFFFFFFFFFFFFFFFFFFFFFFFFFFFFFFFFFFFF AND MUL OR SWAP1 SSTORE POP PUSH1 0xA0 DUP3 ADD MLOAD DUP2 PUSH1 0x5 ADD PUSH1 0x0 PUSH2 0x100 EXP DUP2 SLOAD DUP2 PUSH20 0xFFFFFFFFFFFFFFFFFFFFFFFFFFFFFFFFFFFFFFFF MUL NOT AND SWAP1 DUP4 PUSH20 0xFFFFFFFFFFFFFFFFFFFFFFFFFFFFFFFFFFFFFFFF AND MUL OR SWAP1 SSTORE POP PUSH1 0xC0 DUP3 ADD MLOAD DUP2 PUSH1 0x6 ADD SWAP1 DUP2 PUSH2 0x2AC SWAP2 SWAP1 PUSH2 0x1147 JUMP JUMPDEST POP PUSH1 0xE0 DUP3 ADD MLOAD DUP2 PUSH1 0x7 ADD PUSH1 0x0 PUSH2 0x100 EXP DUP2 SLOAD DUP2 PUSH1 0xFF MUL NOT AND SWAP1 DUP4 ISZERO ISZERO MUL OR SWAP1 SSTORE POP SWAP1 POP POP PUSH32 0x195A26ECF0C9B8FB957ECC3A7C029CE84849279DE600E16F205EE789052052B6 PUSH1 0x2 SLOAD DUP6 CALLER PUSH1 0x40 MLOAD PUSH2 0x305 SWAP4 SWAP3 SWAP2 SWAP1 PUSH2 0x1219 JUMP JUMPDEST PUSH1 0x40 MLOAD DUP1 SWAP2 SUB SWAP1 LOG1 PUSH1 0x2 PUSH1 0x0 DUP2 SLOAD DUP1 SWAP3 SWAP2 SWAP1 PUSH2 0x320 SWAP1 PUSH2 0x1286 JUMP JUMPDEST SWAP2 SWAP1 POP SSTORE POP POP POP POP POP JUMP JUMPDEST PUSH1 0x0 DUP1 DUP4 DUP2 MSTORE PUSH1 0x20 ADD SWAP1 DUP2 MSTORE PUSH1 0x20 ADD PUSH1 0x0 KECCAK256 PUSH1 0x7 ADD PUSH1 0x0 SWAP1 SLOAD SWAP1 PUSH2 0x100 EXP SWAP1 DIV PUSH1 0xFF AND PUSH2 0x38D JUMPI PUSH1 0x40 MLOAD PUSH32 0x8C379A000000000000000000000000000000000000000000000000000000000 DUP2 MSTORE PUSH1 0x4 ADD PUSH2 0x384 SWAP1 PUSH2 0x131A JUMP JUMPDEST PUSH1 0x40 MLOAD DUP1 SWAP2 SUB SWAP1 REVERT JUMPDEST CALLER PUSH20 0xFFFFFFFFFFFFFFFFFFFFFFFFFFFFFFFFFFFFFFFF AND PUSH1 0x0 DUP1 DUP5 DUP2 MSTORE PUSH1 0x20 ADD SWAP1 DUP2 MSTORE PUSH1 0x20 ADD PUSH1 0x0 KECCAK256 PUSH1 0x5 ADD PUSH1 0x0 SWAP1 SLOAD SWAP1 PUSH2 0x100 EXP SWAP1 DIV PUSH20 0xFFFFFFFFFFFFFFFFFFFFFFFFFFFFFFFFFFFFFFFF AND PUSH20 0xFFFFFFFFFFFFFFFFFFFFFFFFFFFFFFFFFFFFFFFF AND EQ PUSH2 0x430 JUMPI PUSH1 0x40 MLOAD PUSH32 0x8C379A000000000000000000000000000000000000000000000000000000000 DUP2 MSTORE PUSH1 0x4 ADD PUSH2 0x427 SWAP1 PUSH2 0x1386 JUMP JUMPDEST PUSH1 0x40 MLOAD DUP1 SWAP2 SUB SWAP1 REVERT JUMPDEST DUP1 PUSH1 0x0 DUP1 DUP5 DUP2 MSTORE PUSH1 0x20 ADD SWAP1 DUP2 MSTORE PUSH1 0x20 ADD PUSH1 0x0 KECCAK256 PUSH1 0x5 ADD PUSH1 0x0 PUSH2 0x100 EXP DUP2 SLOAD DUP2 PUSH20 0xFFFFFFFFFFFFFFFFFFFFFFFFFFFFFFFFFFFFFFFF MUL NOT AND SWAP1 DUP4 PUSH20 0xFFFFFFFFFFFFFFFFFFFFFFFFFFFFFFFFFFFFFFFF AND MUL OR SWAP1 SSTORE POP PUSH1 0x1 PUSH1 0x0 DUP4 DUP2 MSTORE PUSH1 0x20 ADD SWAP1 DUP2 MSTORE PUSH1 0x20 ADD PUSH1 0x0 KECCAK256 PUSH1 0x40 MLOAD DUP1 PUSH1 0x60 ADD PUSH1 0x40 MSTORE DUP1 CALLER PUSH20 0xFFFFFFFFFFFFFFFFFFFFFFFFFFFFFFFFFFFFFFFF AND DUP2 MSTORE PUSH1 0x20 ADD DUP4 PUSH20 0xFFFFFFFFFFFFFFFFFFFFFFFFFFFFFFFFFFFFFFFF AND DUP2 MSTORE PUSH1 0x20 ADD TIMESTAMP DUP2 MSTORE POP SWAP1 DUP1 PUSH1 0x1 DUP2 SLOAD ADD DUP1 DUP3 SSTORE DUP1 SWAP2 POP POP PUSH1 0x1 SWAP1 SUB SWAP1 PUSH1 0x0 MSTORE PUSH1 0x20 PUSH1 0x0 KECCAK256 SWAP1 PUSH1 0x3 MUL ADD PUSH1 0x0 SWAP1 SWAP2 SWAP1 SWAP2 SWAP1 SWAP2 POP PUSH1 0x0 DUP3 ADD MLOAD DUP2 PUSH1 0x0 ADD PUSH1 0x0 PUSH2 0x100 EXP DUP2 SLOAD DUP2 PUSH20 0xFFFFFFFFFFFFFFFFFFFFFFFFFFFFFFFFFFFFFFFF MUL NOT AND SWAP1 DUP4 PUSH20 0xFFFFFFFFFFFFFFFFFFFFFFFFFFFFFFFFFFFFFFFF AND MUL OR SWAP1 SSTORE POP PUSH1 0x20 DUP3 ADD MLOAD DUP2 PUSH1 0x1 ADD PUSH1 0x0 PUSH2 0x100 EXP DUP2 SLOAD DUP2 PUSH20 0xFFFFFFFFFFFFFFFFFFFFFFFFFFFFFFFFFFFFFFFF MUL NOT AND SWAP1 DUP4 PUSH20 0xFFFFFFFFFFFFFFFFFFFFFFFFFFFFFFFFFFFFFFFF AND MUL OR SWAP1 SSTORE POP PUSH1 0x40 DUP3 ADD MLOAD DUP2 PUSH1 0x2 ADD SSTORE POP POP PUSH32 0xB9F31D1B8DB0327A09CDE76DE6662EE23A4ECD72FBB0411CDFA7969FED7ABE44 DUP3 CALLER DUP4 PUSH1 0x40 MLOAD PUSH2 0x5D4 SWAP4 SWAP3 SWAP2 SWAP1 PUSH2 0x13A6 JUMP JUMPDEST PUSH1 0x40 MLOAD DUP1 SWAP2 SUB SWAP1 LOG1 POP POP JUMP JUMPDEST PUSH1 0x2 SLOAD DUP2 JUMP JUMPDEST PUSH1 0x60 PUSH1 0x1 PUSH1 0x0 DUP4 DUP2 MSTORE PUSH1 0x20 ADD SWAP1 DUP2 MSTORE PUSH1 0x20 ADD PUSH1 0x0 KECCAK256 DUP1 SLOAD DUP1 PUSH1 0x20 MUL PUSH1 0x20 ADD PUSH1 0x40 MLOAD SWAP1 DUP2 ADD PUSH1 0x40 MSTORE DUP1 SWAP3 SWAP2 SWAP1 DUP2 DUP2 MSTORE PUSH1 0x20 ADD PUSH1 0x0 SWAP1 JUMPDEST DUP3 DUP3 LT ISZERO PUSH2 0x703 JUMPI DUP4 DUP3 SWAP1 PUSH1 0x0 MSTORE PUSH1 0x20 PUSH1 0x0 KECCAK256 SWAP1 PUSH1 0x3 MUL ADD PUSH1 0x40 MLOAD DUP1 PUSH1 0x60 ADD PUSH1 0x40 MSTORE SWAP1 DUP2 PUSH1 0x0 DUP3 ADD PUSH1 0x0 SWAP1 SLOAD SWAP1 PUSH2 0x100 EXP SWAP1 DIV PUSH20 0xFFFFFFFFFFFFFFFFFFFFFFFFFFFFFFFFFFFFFFFF AND PUSH20 0xFFFFFFFFFFFFFFFFFFFFFFFFFFFFFFFFFFFFFFFF AND PUSH20 0xFFFFFFFFFFFFFFFFFFFFFFFFFFFFFFFFFFFFFFFF AND DUP2 MSTORE PUSH1 0x20 ADD PUSH1 0x1 DUP3 ADD PUSH1 0x0 SWAP1 SLOAD SWAP1 PUSH2 0x100 EXP SWAP1 DIV PUSH20 0xFFFFFFFFFFFFFFFFFFFFFFFFFFFFFFFFFFFFFFFF AND PUSH20 0xFFFFFFFFFFFFFFFFFFFFFFFFFFFFFFFFFFFFFFFF AND PUSH20 0xFFFFFFFFFFFFFFFFFFFFFFFFFFFFFFFFFFFFFFFF AND DUP2 MSTORE PUSH1 0x20 ADD PUSH1 0x2 DUP3 ADD SLOAD DUP2 MSTORE POP POP DUP2 MSTORE PUSH1 0x20 ADD SWAP1 PUSH1 0x1 ADD SWAP1 PUSH2 0x61B JUMP JUMPDEST POP POP POP POP SWAP1 POP SWAP2 SWAP1 POP JUMP JUMPDEST PUSH1 0x0 PUSH1 0x20 MSTORE DUP1 PUSH1 0x0 MSTORE PUSH1 0x40 PUSH1 0x0 KECCAK256 PUSH1 0x0 SWAP2 POP SWAP1 POP DUP1 PUSH1 0x0 ADD SLOAD SWAP1 DUP1 PUSH1 0x1 ADD DUP1 SLOAD PUSH2 0x737 SWAP1 PUSH2 0xF6A JUMP JUMPDEST DUP1 PUSH1 0x1F ADD PUSH1 0x20 DUP1 SWAP2 DIV MUL PUSH1 0x20 ADD PUSH1 0x40 MLOAD SWAP1 DUP2 ADD PUSH1 0x40 MSTORE DUP1 SWAP3 SWAP2 SWAP1 DUP2 DUP2 MSTORE PUSH1 0x20 ADD DUP3 DUP1 SLOAD PUSH2 0x763 SWAP1 PUSH2 0xF6A JUMP JUMPDEST DUP1 ISZERO PUSH2 0x7B0 JUMPI DUP1 PUSH1 0x1F LT PUSH2 0x785 JUMPI PUSH2 0x100 DUP1 DUP4 SLOAD DIV MUL DUP4 MSTORE SWAP2 PUSH1 0x20 ADD SWAP2 PUSH2 0x7B0 JUMP JUMPDEST DUP3 ADD SWAP2 SWAP1 PUSH1 0x0 MSTORE PUSH1 0x20 PUSH1 0x0 KECCAK256 SWAP1 JUMPDEST DUP2 SLOAD DUP2 MSTORE SWAP1 PUSH1 0x1 ADD SWAP1 PUSH1 0x20 ADD DUP1 DUP4 GT PUSH2 0x793 JUMPI DUP3 SWAP1 SUB PUSH1 0x1F AND DUP3 ADD SWAP2 JUMPDEST POP POP POP POP POP SWAP1 DUP1 PUSH1 0x2 ADD SLOAD SWAP1 DUP1 PUSH1 0x3 ADD SLOAD SWAP1 DUP1 PUSH1 0x4 ADD PUSH1 0x0 SWAP1 SLOAD SWAP1 PUSH2 0x100 EXP SWAP1 DIV PUSH20 0xFFFFFFFFFFFFFFFFFFFFFFFFFFFFFFFFFFFFFFFF AND SWAP1 DUP1 PUSH1 0x5 ADD PUSH1 0x0 SWAP1 SLOAD SWAP1 PUSH2 0x100 EXP SWAP1 DIV PUSH20 0xFFFFFFFFFFFFFFFFFFFFFFFFFFFFFFFFFFFFFFFF AND SWAP1 DUP1 PUSH1 0x6 ADD DUP1 SLOAD PUSH2 0x81D SWAP1 PUSH2 0xF6A JUMP JUMPDEST DUP1 PUSH1 0x1F ADD PUSH1 0x20 DUP1 SWAP2 DIV MUL PUSH1 0x20 ADD PUSH1 0x40 MLOAD SWAP1 DUP2 ADD PUSH1 0x40 MSTORE DUP1 SWAP3 SWAP2 SWAP1 DUP2 DUP2 MSTORE PUSH1 0x20 ADD DUP3 DUP1 SLOAD PUSH2 0x849 SWAP1 PUSH2 0xF6A JUMP JUMPDEST DUP1 ISZERO PUSH2 0x896 JUMPI DUP1 PUSH1 0x1F LT PUSH2 0x86B JUMPI PUSH2 0x100 DUP1 DUP4 SLOAD DIV MUL DUP4 MSTORE SWAP2 PUSH1 0x20 ADD SWAP2 PUSH2 0x896 JUMP JUMPDEST DUP3 ADD SWAP2 SWAP1 PUSH1 0x0 MSTORE PUSH1 0x20 PUSH1 0x0 KECCAK256 SWAP1 JUMPDEST DUP2 SLOAD DUP2 MSTORE SWAP1 PUSH1 0x1 ADD SWAP1 PUSH1 0x20 ADD DUP1 DUP4 GT PUSH2 0x879 JUMPI DUP3 SWAP1 SUB PUSH1 0x1F AND DUP3 ADD SWAP2 JUMPDEST POP POP POP POP POP SWAP1 DUP1 PUSH1 0x7 ADD PUSH1 0x0 SWAP1 SLOAD SWAP1 PUSH2 0x100 EXP SWAP1 DIV PUSH1 0xFF AND SWAP1 POP DUP9 JUMP JUMPDEST PUSH1 0x1 PUSH1 0x20 MSTORE DUP2 PUSH1 0x0 MSTORE PUSH1 0x40 PUSH1 0x0 KECCAK256 DUP2 DUP2 SLOAD DUP2 LT PUSH2 0x8CF JUMPI PUSH1 0x0 DUP1 REVERT JUMPDEST SWAP1 PUSH1 0x0 MSTORE PUSH1 0x20 PUSH1 0x0 KECCAK256 SWAP1 PUSH1 0x3 MUL ADD PUSH1 0x0 SWAP2 POP SWAP2 POP POP DUP1 PUSH1 0x0 ADD PUSH1 0x0 SWAP1 SLOAD SWAP1 PUSH2 0x100 EXP SWAP1 DIV PUSH20 0xFFFFFFFFFFFFFFFFFFFFFFFFFFFFFFFFFFFFFFFF AND SWAP1 DUP1 PUSH1 0x1 ADD PUSH1 0x0 SWAP1 SLOAD SWAP1 PUSH2 0x100 EXP SWAP1 DIV PUSH20 0xFFFFFFFFFFFFFFFFFFFFFFFFFFFFFFFFFFFFFFFF AND SWAP1 DUP1 PUSH1 0x2 ADD SLOAD SWAP1 POP DUP4 JUMP JUMPDEST PUSH1 0x0 PUSH1 0x40 MLOAD SWAP1 POP SWAP1 JUMP JUMPDEST PUSH1 0x0 DUP1 REVERT JUMPDEST PUSH1 0x0 DUP1 REVERT JUMPDEST PUSH1 0x0 DUP1 REVERT JUMPDEST PUSH1 0x0 DUP1 REVERT JUMPDEST PUSH1 0x0 PUSH1 0x1F NOT PUSH1 0x1F DUP4 ADD AND SWAP1 POP SWAP2 SWAP1 POP JUMP JUMPDEST PUSH32 0x4E487B7100000000000000000000000000000000000000000000000000000000 PUSH1 0x0 MSTORE PUSH1 0x41 PUSH1 0x4 MSTORE PUSH1 0x24 PUSH1 0x0 REVERT JUMPDEST PUSH2 0x9A1 DUP3 PUSH2 0x958 JUMP JUMPDEST DUP2 ADD DUP2 DUP2 LT PUSH8 0xFFFFFFFFFFFFFFFF DUP3 GT OR ISZERO PUSH2 0x9C0 JUMPI PUSH2 0x9BF PUSH2 0x969 JUMP JUMPDEST JUMPDEST DUP1 PUSH1 0x40 MSTORE POP POP POP JUMP JUMPDEST PUSH1 0x0 PUSH2 0x9D3 PUSH2 0x93A JUMP JUMPDEST SWAP1 POP PUSH2 0x9DF DUP3 DUP3 PUSH2 0x998 JUMP JUMPDEST SWAP2 SWAP1 POP JUMP JUMPDEST PUSH1 0x0 PUSH8 0xFFFFFFFFFFFFFFFF DUP3 GT ISZERO PUSH2 0x9FF JUMPI PUSH2 0x9FE PUSH2 0x969 JUMP JUMPDEST JUMPDEST PUSH2 0xA08 DUP3 PUSH2 0x958 JUMP JUMPDEST SWAP1 POP PUSH1 0x20 DUP2 ADD SWAP1 POP SWAP2 SWAP1 POP JUMP JUMPDEST DUP3 DUP2 DUP4 CALLDATACOPY PUSH1 0x0 DUP4 DUP4 ADD MSTORE POP POP POP JUMP JUMPDEST PUSH1 0x0 PUSH2 0xA37 PUSH2 0xA32 DUP5 PUSH2 0x9E4 JUMP JUMPDEST PUSH2 0x9C9 JUMP JUMPDEST SWAP1 POP DUP3 DUP2 MSTORE PUSH1 0x20 DUP2 ADD DUP5 DUP5 DUP5 ADD GT ISZERO PUSH2 0xA53 JUMPI PUSH2 0xA52 PUSH2 0x953 JUMP JUMPDEST JUMPDEST PUSH2 0xA5E DUP5 DUP3 DUP6 PUSH2 0xA15 JUMP JUMPDEST POP SWAP4 SWAP3 POP POP POP JUMP JUMPDEST PUSH1 0x0 DUP3 PUSH1 0x1F DUP4 ADD SLT PUSH2 0xA7B JUMPI PUSH2 0xA7A PUSH2 0x94E JUMP JUMPDEST JUMPDEST DUP2 CALLDATALOAD PUSH2 0xA8B DUP5 DUP3 PUSH1 0x20 DUP7 ADD PUSH2 0xA24 JUMP JUMPDEST SWAP2 POP POP SWAP3 SWAP2 POP POP JUMP JUMPDEST PUSH1 0x0 DUP2 SWAP1 POP SWAP2 SWAP1 POP JUMP JUMPDEST PUSH2 0xAA7 DUP2 PUSH2 0xA94 JUMP JUMPDEST DUP2 EQ PUSH2 0xAB2 JUMPI PUSH1 0x0 DUP1 REVERT JUMPDEST POP JUMP JUMPDEST PUSH1 0x0 DUP2 CALLDATALOAD SWAP1 POP PUSH2 0xAC4 DUP2 PUSH2 0xA9E JUMP JUMPDEST SWAP3 SWAP2 POP POP JUMP JUMPDEST PUSH1 0x0 DUP1 PUSH1 0x0 DUP1 PUSH1 0x80 DUP6 DUP8 SUB SLT ISZERO PUSH2 0xAE4 JUMPI PUSH2 0xAE3 PUSH2 0x944 JUMP JUMPDEST JUMPDEST PUSH1 0x0 DUP6 ADD CALLDATALOAD PUSH8 0xFFFFFFFFFFFFFFFF DUP2 GT ISZERO PUSH2 0xB02 JUMPI PUSH2 0xB01 PUSH2 0x949 JUMP JUMPDEST JUMPDEST PUSH2 0xB0E DUP8 DUP3 DUP9 ADD PUSH2 0xA66 JUMP JUMPDEST SWAP5 POP POP PUSH1 0x20 PUSH2 0xB1F DUP8 DUP3 DUP9 ADD PUSH2 0xAB5 JUMP JUMPDEST SWAP4 POP POP PUSH1 0x40 PUSH2 0xB30 DUP8 DUP3 DUP9 ADD PUSH2 0xAB5 JUMP JUMPDEST SWAP3 POP POP PUSH1 0x60 DUP6 ADD CALLDATALOAD PUSH8 0xFFFFFFFFFFFFFFFF DUP2 GT ISZERO PUSH2 0xB51 JUMPI PUSH2 0xB50 PUSH2 0x949 JUMP JUMPDEST JUMPDEST PUSH2 0xB5D DUP8 DUP3 DUP9 ADD PUSH2 0xA66 JUMP JUMPDEST SWAP2 POP POP SWAP3 SWAP6 SWAP2 SWAP5 POP SWAP3 POP JUMP JUMPDEST PUSH1 0x0 PUSH20 0xFFFFFFFFFFFFFFFFFFFFFFFFFFFFFFFFFFFFFFFF DUP3 AND SWAP1 POP SWAP2 SWAP1 POP JUMP JUMPDEST PUSH1 0x0 PUSH2 0xB94 DUP3 PUSH2 0xB69 JUMP JUMPDEST SWAP1 POP SWAP2 SWAP1 POP JUMP JUMPDEST PUSH2 0xBA4 DUP2 PUSH2 0xB89 JUMP JUMPDEST DUP2 EQ PUSH2 0xBAF JUMPI PUSH1 0x0 DUP1 REVERT JUMPDEST POP JUMP JUMPDEST PUSH1 0x0 DUP2 CALLDATALOAD SWAP1 POP PUSH2 0xBC1 DUP2 PUSH2 0xB9B JUMP JUMPDEST SWAP3 SWAP2 POP POP JUMP JUMPDEST PUSH1 0x0 DUP1 PUSH1 0x40 DUP4 DUP6 SUB SLT ISZERO PUSH2 0xBDE JUMPI PUSH2 0xBDD PUSH2 0x944 JUMP JUMPDEST JUMPDEST PUSH1 0x0 PUSH2 0xBEC DUP6 DUP3 DUP7 ADD PUSH2 0xAB5 JUMP JUMPDEST SWAP3 POP POP PUSH1 0x20 PUSH2 0xBFD DUP6 DUP3 DUP7 ADD PUSH2 0xBB2 JUMP JUMPDEST SWAP2 POP POP SWAP3 POP SWAP3 SWAP1 POP JUMP JUMPDEST PUSH2 0xC10 DUP2 PUSH2 0xA94 JUMP JUMPDEST DUP3 MSTORE POP POP JUMP JUMPDEST PUSH1 0x0 PUSH1 0x20 DUP3 ADD SWAP1 POP PUSH2 0xC2B PUSH1 0x0 DUP4 ADD DUP5 PUSH2 0xC07 JUMP JUMPDEST SWAP3 SWAP2 POP POP JUMP JUMPDEST PUSH1 0x0 PUSH1 0x20 DUP3 DUP5 SUB SLT ISZERO PUSH2 0xC47 JUMPI PUSH2 0xC46 PUSH2 0x944 JUMP JUMPDEST JUMPDEST PUSH1 0x0 PUSH2 0xC55 DUP5 DUP3 DUP6 ADD PUSH2 0xAB5 JUMP JUMPDEST SWAP2 POP POP SWAP3 SWAP2 POP POP JUMP JUMPDEST PUSH1 0x0 DUP2 MLOAD SWAP1 POP SWAP2 SWAP1 POP JUMP JUMPDEST PUSH1 0x0 DUP3 DUP3 MSTORE PUSH1 0x20 DUP3 ADD SWAP1 POP SWAP3 SWAP2 POP POP JUMP JUMPDEST PUSH1 0x0 DUP2 SWAP1 POP PUSH1 0x20 DUP3 ADD SWAP1 POP SWAP2 SWAP1 POP JUMP JUMPDEST PUSH2 0xC93 DUP2 PUSH2 0xB89 JUMP JUMPDEST DUP3 MSTORE POP POP JUMP JUMPDEST PUSH2 0xCA2 DUP2 PUSH2 0xA94 JUMP JUMPDEST DUP3 MSTORE POP POP JUMP JUMPDEST PUSH1 0x60 DUP3 ADD PUSH1 0x0 DUP3 ADD MLOAD PUSH2 0xCBE PUSH1 0x0 DUP6 ADD DUP3 PUSH2 0xC8A JUMP JUMPDEST POP PUSH1 0x20 DUP3 ADD MLOAD PUSH2 0xCD1 PUSH1 0x20 DUP6 ADD DUP3 PUSH2 0xC8A JUMP JUMPDEST POP PUSH1 0x40 DUP3 ADD MLOAD PUSH2 0xCE4 PUSH1 0x40 DUP6 ADD DUP3 PUSH2 0xC99 JUMP JUMPDEST POP POP POP POP JUMP JUMPDEST PUSH1 0x0 PUSH2 0xCF6 DUP4 DUP4 PUSH2 0xCA8 JUMP JUMPDEST PUSH1 0x60 DUP4 ADD SWAP1 POP SWAP3 SWAP2 POP POP JUMP JUMPDEST PUSH1 0x0 PUSH1 0x20 DUP3 ADD SWAP1 POP SWAP2 SWAP1 POP JUMP JUMPDEST PUSH1 0x0 PUSH2 0xD1A DUP3 PUSH2 0xC5E JUMP JUMPDEST PUSH2 0xD24 DUP2 DUP6 PUSH2 0xC69 JUMP JUMPDEST SWAP4 POP PUSH2 0xD2F DUP4 PUSH2 0xC7A JUMP JUMPDEST DUP1 PUSH1 0x0 JUMPDEST DUP4 DUP2 LT ISZERO PUSH2 0xD60 JUMPI DUP2 MLOAD PUSH2 0xD47 DUP9 DUP3 PUSH2 0xCEA JUMP JUMPDEST SWAP8 POP PUSH2 0xD52 DUP4 PUSH2 0xD02 JUMP JUMPDEST SWAP3 POP POP PUSH1 0x1 DUP2 ADD SWAP1 POP PUSH2 0xD33 JUMP JUMPDEST POP DUP6 SWAP4 POP POP POP POP SWAP3 SWAP2 POP POP JUMP JUMPDEST PUSH1 0x0 PUSH1 0x20 DUP3 ADD SWAP1 POP DUP2 DUP2 SUB PUSH1 0x0 DUP4 ADD MSTORE PUSH2 0xD87 DUP2 DUP5 PUSH2 0xD0F JUMP JUMPDEST SWAP1 POP SWAP3 SWAP2 POP POP JUMP JUMPDEST PUSH1 0x0 DUP2 MLOAD SWAP1 POP SWAP2 SWAP1 POP JUMP JUMPDEST PUSH1 0x0 DUP3 DUP3 MSTORE PUSH1 0x20 DUP3 ADD SWAP1 POP SWAP3 SWAP2 POP POP JUMP JUMPDEST PUSH1 0x0 JUMPDEST DUP4 DUP2 LT ISZERO PUSH2 0xDC9 JUMPI DUP1 DUP3 ADD MLOAD DUP2 DUP5 ADD MSTORE PUSH1 0x20 DUP2 ADD SWAP1 POP PUSH2 0xDAE JUMP JUMPDEST PUSH1 0x0 DUP5 DUP5 ADD MSTORE POP POP POP POP JUMP JUMPDEST PUSH1 0x0 PUSH2 0xDE0 DUP3 PUSH2 0xD8F JUMP JUMPDEST PUSH2 0xDEA DUP2 DUP6 PUSH2 0xD9A JUMP JUMPDEST SWAP4 POP PUSH2 0xDFA DUP2 DUP6 PUSH1 0x20 DUP7 ADD PUSH2 0xDAB JUMP JUMPDEST PUSH2 0xE03 DUP2 PUSH2 0x958 JUMP JUMPDEST DUP5 ADD SWAP2 POP POP SWAP3 SWAP2 POP POP JUMP JUMPDEST PUSH2 0xE17 DUP2 PUSH2 0xB89 JUMP JUMPDEST DUP3 MSTORE POP POP JUMP JUMPDEST PUSH1 0x0 DUP2 ISZERO ISZERO SWAP1 POP SWAP2 SWAP1 POP JUMP JUMPDEST PUSH2 0xE32 DUP2 PUSH2 0xE1D JUMP JUMPDEST DUP3 MSTORE POP POP JUMP JUMPDEST PUSH1 0x0 PUSH2 0x100 DUP3 ADD SWAP1 POP PUSH2 0xE4E PUSH1 0x0 DUP4 ADD DUP12 PUSH2 0xC07 JUMP JUMPDEST DUP2 DUP2 SUB PUSH1 0x20 DUP4 ADD MSTORE PUSH2 0xE60 DUP2 DUP11 PUSH2 0xDD5 JUMP JUMPDEST SWAP1 POP PUSH2 0xE6F PUSH1 0x40 DUP4 ADD DUP10 PUSH2 0xC07 JUMP JUMPDEST PUSH2 0xE7C PUSH1 0x60 DUP4 ADD DUP9 PUSH2 0xC07 JUMP JUMPDEST PUSH2 0xE89 PUSH1 0x80 DUP4 ADD DUP8 PUSH2 0xE0E JUMP JUMPDEST PUSH2 0xE96 PUSH1 0xA0 DUP4 ADD DUP7 PUSH2 0xE0E JUMP JUMPDEST DUP2 DUP2 SUB PUSH1 0xC0 DUP4 ADD MSTORE PUSH2 0xEA8 DUP2 DUP6 PUSH2 0xDD5 JUMP JUMPDEST SWAP1 POP PUSH2 0xEB7 PUSH1 0xE0 DUP4 ADD DUP5 PUSH2 0xE29 JUMP JUMPDEST SWAP10 SWAP9 POP POP POP POP POP POP POP POP POP JUMP JUMPDEST PUSH1 0x0 DUP1 PUSH1 0x40 DUP4 DUP6 SUB SLT ISZERO PUSH2 0xEDB JUMPI PUSH2 0xEDA PUSH2 0x944 JUMP JUMPDEST JUMPDEST PUSH1 0x0 PUSH2 0xEE9 DUP6 DUP3 DUP7 ADD PUSH2 0xAB5 JUMP JUMPDEST SWAP3 POP POP PUSH1 0x20 PUSH2 0xEFA DUP6 DUP3 DUP7 ADD PUSH2 0xAB5 JUMP JUMPDEST SWAP2 POP POP SWAP3 POP SWAP3 SWAP1 POP JUMP JUMPDEST PUSH1 0x0 PUSH1 0x60 DUP3 ADD SWAP1 POP PUSH2 0xF19 PUSH1 0x0 DUP4 ADD DUP7 PUSH2 0xE0E JUMP JUMPDEST PUSH2 0xF26 PUSH1 0x20 DUP4 ADD DUP6 PUSH2 0xE0E JUMP JUMPDEST PUSH2 0xF33 PUSH1 0x40 DUP4 ADD DUP5 PUSH2 0xC07 JUMP JUMPDEST SWAP5 SWAP4 POP POP POP POP JUMP JUMPDEST PUSH32 0x4E487B7100000000000000000000000000000000000000000000000000000000 PUSH1 0x0 MSTORE PUSH1 0x22 PUSH1 0x4 MSTORE PUSH1 0x24 PUSH1 0x0 REVERT JUMPDEST PUSH1 0x0 PUSH1 0x2 DUP3 DIV SWAP1 POP PUSH1 0x1 DUP3 AND DUP1 PUSH2 0xF82 JUMPI PUSH1 0x7F DUP3 AND SWAP2 POP JUMPDEST PUSH1 0x20 DUP3 LT DUP2 SUB PUSH2 0xF95 JUMPI PUSH2 0xF94 PUSH2 0xF3B JUMP JUMPDEST JUMPDEST POP SWAP2 SWAP1 POP JUMP JUMPDEST PUSH1 0x0 DUP2 SWAP1 POP DUP2 PUSH1 0x0 MSTORE PUSH1 0x20 PUSH1 0x0 KECCAK256 SWAP1 POP SWAP2 SWAP1 POP JUMP JUMPDEST PUSH1 0x0 PUSH1 0x20 PUSH1 0x1F DUP4 ADD DIV SWAP1 POP SWAP2 SWAP1 POP JUMP JUMPDEST PUSH1 0x0 DUP3 DUP3 SHL SWAP1 POP SWAP3 SWAP2 POP POP JUMP JUMPDEST PUSH1 0x0 PUSH1 0x8 DUP4 MUL PUSH2 0xFFD PUSH32 0xFFFFFFFFFFFFFFFFFFFFFFFFFFFFFFFFFFFFFFFFFFFFFFFFFFFFFFFFFFFFFFFF DUP3 PUSH2 0xFC0 JUMP JUMPDEST PUSH2 0x1007 DUP7 DUP4 PUSH2 0xFC0 JUMP JUMPDEST SWAP6 POP DUP1 NOT DUP5 AND SWAP4 POP DUP1 DUP7 AND DUP5 OR SWAP3 POP POP POP SWAP4 SWAP3 POP POP POP JUMP JUMPDEST PUSH1 0x0 DUP2 SWAP1 POP SWAP2 SWAP1 POP JUMP JUMPDEST PUSH1 0x0 PUSH2 0x1044 PUSH2 0x103F PUSH2 0x103A DUP5 PUSH2 0xA94 JUMP JUMPDEST PUSH2 0x101F JUMP JUMPDEST PUSH2 0xA94 JUMP JUMPDEST SWAP1 POP SWAP2 SWAP1 POP JUMP JUMPDEST PUSH1 0x0 DUP2 SWAP1 POP SWAP2 SWAP1 POP JUMP JUMPDEST PUSH2 0x105E DUP4 PUSH2 0x1029 JUMP JUMPDEST PUSH2 0x1072 PUSH2 0x106A DUP3 PUSH2 0x104B JUMP JUMPDEST DUP5 DUP5 SLOAD PUSH2 0xFCD JUMP JUMPDEST DUP3 SSTORE POP POP POP POP JUMP JUMPDEST PUSH1 0x0 SWAP1 JUMP JUMPDEST PUSH2 0x1087 PUSH2 0x107A JUMP JUMPDEST PUSH2 0x1092 DUP2 DUP5 DUP5 PUSH2 0x1055 JUMP JUMPDEST POP POP POP JUMP JUMPDEST JUMPDEST DUP2 DUP2 LT ISZERO PUSH2 0x10B6 JUMPI PUSH2 0x10AB PUSH1 0x0 DUP3 PUSH2 0x107F JUMP JUMPDEST PUSH1 0x1 DUP2 ADD SWAP1 POP PUSH2 0x1098 JUMP JUMPDEST POP POP JUMP JUMPDEST PUSH1 0x1F DUP3 GT ISZERO PUSH2 0x10FB JUMPI PUSH2 0x10CC DUP2 PUSH2 0xF9B JUMP JUMPDEST PUSH2 0x10D5 DUP5 PUSH2 0xFB0 JUMP JUMPDEST DUP2 ADD PUSH1 0x20 DUP6 LT ISZERO PUSH2 0x10E4 JUMPI DUP2 SWAP1 POP JUMPDEST PUSH2 0x10F8 PUSH2 0x10F0 DUP6 PUSH2 0xFB0 JUMP JUMPDEST DUP4 ADD DUP3 PUSH2 0x1097 JUMP JUMPDEST POP POP JUMPDEST POP POP POP JUMP JUMPDEST PUSH1 0x0 DUP3 DUP3 SHR SWAP1 POP SWAP3 SWAP2 POP POP JUMP JUMPDEST PUSH1 0x0 PUSH2 0x111E PUSH1 0x0 NOT DUP5 PUSH1 0x8 MUL PUSH2 0x1100 JUMP JUMPDEST NOT DUP1 DUP4 AND SWAP2 POP POP SWAP3 SWAP2 POP POP JUMP JUMPDEST PUSH1 0x0 PUSH2 0x1137 DUP4 DUP4 PUSH2 0x110D JUMP JUMPDEST SWAP2 POP DUP3 PUSH1 0x2 MUL DUP3 OR SWAP1 POP SWAP3 SWAP2 POP POP JUMP JUMPDEST PUSH2 0x1150 DUP3 PUSH2 0xD8F JUMP JUMPDEST PUSH8 0xFFFFFFFFFFFFFFFF DUP2 GT ISZERO PUSH2 0x1169 JUMPI PUSH2 0x1168 PUSH2 0x969 JUMP JUMPDEST JUMPDEST PUSH2 0x1173 DUP3 SLOAD PUSH2 0xF6A JUMP JUMPDEST PUSH2 0x117E DUP3 DUP3 DUP6 PUSH2 0x10BA JUMP JUMPDEST PUSH1 0x0 PUSH1 0x20 SWAP1 POP PUSH1 0x1F DUP4 GT PUSH1 0x1 DUP2 EQ PUSH2 0x11B1 JUMPI PUSH1 0x0 DUP5 ISZERO PUSH2 0x119F JUMPI DUP3 DUP8 ADD MLOAD SWAP1 POP JUMPDEST PUSH2 0x11A9 DUP6 DUP3 PUSH2 0x112B JUMP JUMPDEST DUP7 SSTORE POP PUSH2 0x1211 JUMP JUMPDEST PUSH1 0x1F NOT DUP5 AND PUSH2 0x11BF DUP7 PUSH2 0xF9B JUMP JUMPDEST PUSH1 0x0 JUMPDEST DUP3 DUP2 LT ISZERO PUSH2 0x11E7 JUMPI DUP5 DUP10 ADD MLOAD DUP3 SSTORE PUSH1 0x1 DUP3 ADD SWAP2 POP PUSH1 0x20 DUP6 ADD SWAP5 POP PUSH1 0x20 DUP2 ADD SWAP1 POP PUSH2 0x11C2 JUMP JUMPDEST DUP7 DUP4 LT ISZERO PUSH2 0x1204 JUMPI DUP5 DUP10 ADD MLOAD PUSH2 0x1200 PUSH1 0x1F DUP10 AND DUP3 PUSH2 0x110D JUMP JUMPDEST DUP4 SSTORE POP JUMPDEST PUSH1 0x1 PUSH1 0x2 DUP9 MUL ADD DUP9 SSTORE POP POP POP JUMPDEST POP POP POP POP POP POP JUMP JUMPDEST PUSH1 0x0 PUSH1 0x60 DUP3 ADD SWAP1 POP PUSH2 0x122E PUSH1 0x0 DUP4 ADD DUP7 PUSH2 0xC07 JUMP JUMPDEST DUP2 DUP2 SUB PUSH1 0x20 DUP4 ADD MSTORE PUSH2 0x1240 DUP2 DUP6 PUSH2 0xDD5 JUMP JUMPDEST SWAP1 POP PUSH2 0x124F PUSH1 0x40 DUP4 ADD DUP5 PUSH2 0xE0E JUMP JUMPDEST SWAP5 SWAP4 POP POP POP POP JUMP JUMPDEST PUSH32 0x4E487B7100000000000000000000000000000000000000000000000000000000 PUSH1 0x0 MSTORE PUSH1 0x11 PUSH1 0x4 MSTORE PUSH1 0x24 PUSH1 0x0 REVERT JUMPDEST PUSH1 0x0 PUSH2 0x1291 DUP3 PUSH2 0xA94 JUMP JUMPDEST SWAP2 POP PUSH32 0xFFFFFFFFFFFFFFFFFFFFFFFFFFFFFFFFFFFFFFFFFFFFFFFFFFFFFFFFFFFFFFFF DUP3 SUB PUSH2 0x12C3 JUMPI PUSH2 0x12C2 PUSH2 0x1257 JUMP JUMPDEST JUMPDEST PUSH1 0x1 DUP3 ADD SWAP1 POP SWAP2 SWAP1 POP JUMP JUMPDEST PUSH32 0x426174636820646F6573206E6F74206578697374000000000000000000000000 PUSH1 0x0 DUP3 ADD MSTORE POP JUMP JUMPDEST PUSH1 0x0 PUSH2 0x1304 PUSH1 0x14 DUP4 PUSH2 0xD9A JUMP JUMPDEST SWAP2 POP PUSH2 0x130F DUP3 PUSH2 0x12CE JUMP JUMPDEST PUSH1 0x20 DUP3 ADD SWAP1 POP SWAP2 SWAP1 POP JUMP JUMPDEST PUSH1 0x0 PUSH1 0x20 DUP3 ADD SWAP1 POP DUP2 DUP2 SUB PUSH1 0x0 DUP4 ADD MSTORE PUSH2 0x1333 DUP2 PUSH2 0x12F7 JUMP JUMPDEST SWAP1 POP SWAP2 SWAP1 POP JUMP JUMPDEST PUSH32 0x4E6F74206261746368206F776E65720000000000000000000000000000000000 PUSH1 0x0 DUP3 ADD MSTORE POP JUMP JUMPDEST PUSH1 0x0 PUSH2 0x1370 PUSH1 0xF DUP4 PUSH2 0xD9A JUMP JUMPDEST SWAP2 POP PUSH2 0x137B DUP3 PUSH2 0x133A JUMP JUMPDEST PUSH1 0x20 DUP3 ADD SWAP1 POP SWAP2 SWAP1 POP JUMP JUMPDEST PUSH1 0x0 PUSH1 0x20 DUP3 ADD SWAP1 POP DUP2 DUP2 SUB PUSH1 0x0 DUP4 ADD MSTORE PUSH2 0x139F DUP2 PUSH2 0x1363 JUMP JUMPDEST SWAP1 POP SWAP2 SWAP1 POP JUMP JUMPDEST PUSH1 0x0 PUSH1 0x60 DUP3 ADD SWAP1 POP PUSH2 0x13BB PUSH1 0x0 DUP4 ADD DUP7 PUSH2 0xC07 JUMP JUMPDEST PUSH2 0x13C8 PUSH1 0x20 DUP4 ADD DUP6 PUSH2 0xE0E JUMP JUMPDEST PUSH2 0x13D5 PUSH1 0x40 DUP4 ADD DUP5 PUSH2 0xE0E JUMP JUMPDEST SWAP5 SWAP4 POP POP POP POP JUMP INVALID LOG2 PUSH5 0x6970667358 0x22 SLT KECCAK256 0xE3 ADD 0xD7 DUP11 DUP9 PC 0xAE PUSH27 0x77F633180CDF98E39767D7C22249B818F46FB74051C2FC264736F PUSH13 0x63430008140033000000000000 "},"methodIdentifiers":{"batchTransfers(uint256,uint256)":"e7d78d64","batches(uint256)":"b32c4d8d","createBatch(string,uint256,uint256,string)":"091990e6","getTransferHistory(uint256)":"8bb27d02","nextBatchId()":"8462a7f8","transferBatch(uint256,address)":"621f2b0e"}}}}}