{
  "_format": "hh-sol-artifact-1",
  "contractName": "QuanLyThuoc",
  "sourceName": "contracts/quanLiThuoc.sol",
  "abi": [
    {
      "inputs": [],
      "stateMutability": "nonpayable",
      "type": "constructor"
    },
    {
      "inputs": [
        {
          "internalType": "address",
          "name": "owner",
          "type": "address"
        }
      ],
      "name": "OwnableInvalidOwner",
      "type": "error"
    },
    {
      "inputs": [
        {
          "internalType": "address",
          "name": "account",
          "type": "address"
        }
      ],
      "name": "OwnableUnauthorizedAccount",
      "type": "error"
    },
    {
      "anonymous": false,
      "inputs": [
        {
          "indexed": false,
          "internalType": "uint256",
          "name": "id",
          "type": "uint256"
        },
        {
          "indexed": false,
          "internalType": "address",
          "name": "nguoiTieuDung",
          "type": "address"
        },
        {
          "indexed": false,
          "internalType": "uint256",
          "name": "gia",
          "type": "uint256"
        }
      ],
      "name": "BanChoNguoiTieuDung",
      "type": "event"
    },
    {
      "anonymous": false,
      "inputs": [
        {
          "indexed": false,
          "internalType": "uint256",
          "name": "id",
          "type": "uint256"
        },
        {
          "indexed": false,
          "internalType": "address",
          "name": "nhaThuoc",
          "type": "address"
        },
        {
          "indexed": false,
          "internalType": "uint256",
          "name": "gia",
          "type": "uint256"
        }
      ],
      "name": "BanChoNhaThuoc",
      "type": "event"
    },
    {
      "anonymous": false,
      "inputs": [
        {
          "indexed": true,
          "internalType": "address",
          "name": "previousOwner",
          "type": "address"
        },
        {
          "indexed": true,
          "internalType": "address",
          "name": "newOwner",
          "type": "address"
        }
      ],
      "name": "OwnershipTransferred",
      "type": "event"
    },
    {
      "anonymous": false,
      "inputs": [
        {
          "indexed": false,
          "internalType": "uint256",
          "name": "id",
          "type": "uint256"
        },
        {
          "indexed": false,
          "internalType": "string",
          "name": "nguonGoc",
          "type": "string"
        },
        {
          "indexed": false,
          "internalType": "string",
          "name": "ipfsHash",
          "type": "string"
        },
        {
          "indexed": false,
          "internalType": "address",
          "name": "nhaPhanPhoi",
          "type": "address"
        }
      ],
      "name": "XacThucNguonGoc",
      "type": "event"
    },
    {
      "inputs": [
        {
          "internalType": "uint256",
          "name": "",
          "type": "uint256"
        }
      ],
      "name": "danhSachThuoc",
      "outputs": [
        {
          "internalType": "uint256",
          "name": "id",
          "type": "uint256"
        },
        {
          "internalType": "string",
          "name": "nguonGoc",
          "type": "string"
        },
        {
          "internalType": "string",
          "name": "ipfsHash",
          "type": "string"
        },
        {
          "internalType": "address",
          "name": "nhaPhanPhoi",
          "type": "address"
        },
        {
          "internalType": "address",
          "name": "nhaThuoc",
          "type": "address"
        },
        {
          "internalType": "address",
          "name": "nguoiTieuDung",
          "type": "address"
        },
        {
          "internalType": "uint256",
          "name": "giaBanSi",
          "type": "uint256"
        },
        {
          "internalType": "uint256",
          "name": "giaBanLe",
          "type": "uint256"
        },
        {
          "internalType": "bool",
          "name": "duocXacThuc",
          "type": "bool"
        },
        {
          "internalType": "bool",
          "name": "daBanChoNhaThuoc",
          "type": "bool"
        },
        {
          "internalType": "bool",
          "name": "daBanChoNguoiTieuDung",
          "type": "bool"
        }
      ],
      "stateMutability": "view",
      "type": "function"
    },
    {
      "inputs": [
        {
          "internalType": "uint256",
          "name": "id",
          "type": "uint256"
        },
        {
          "internalType": "uint256",
          "name": "giaBanLe",
          "type": "uint256"
        }
      ],
      "name": "datGiaBanLe",
      "outputs": [],
      "stateMutability": "nonpayable",
      "type": "function"
    },
    {
      "inputs": [
        {
          "internalType": "uint256",
          "name": "id",
          "type": "uint256"
        }
      ],
      "name": "muaChoNhaThuoc",
      "outputs": [],
      "stateMutability": "payable",
      "type": "function"
    },
    {
      "inputs": [
        {
          "internalType": "uint256",
          "name": "id",
          "type": "uint256"
        }
      ],
      "name": "muaTuNguoiTieuDung",
      "outputs": [],
      "stateMutability": "payable",
      "type": "function"
    },
    {
      "inputs": [],
      "name": "owner",
      "outputs": [
        {
          "internalType": "address",
          "name": "",
          "type": "address"
        }
      ],
      "stateMutability": "view",
      "type": "function"
    },
    {
      "inputs": [],
      "name": "renounceOwnership",
      "outputs": [],
      "stateMutability": "nonpayable",
      "type": "function"
    },
    {
      "inputs": [
        {
          "internalType": "address",
          "name": "newOwner",
          "type": "address"
        }
      ],
      "name": "transferOwnership",
      "outputs": [],
      "stateMutability": "nonpayable",
      "type": "function"
    },
    {
      "inputs": [
        {
          "internalType": "uint256",
          "name": "id",
          "type": "uint256"
        },
        {
          "internalType": "uint256",
          "name": "giaBanSi",
          "type": "uint256"
        },
        {
          "internalType": "string",
          "name": "nguonGoc",
          "type": "string"
        },
        {
          "internalType": "string",
          "name": "ipfsHash",
          "type": "string"
        }
      ],
      "name": "xacThucNguonGoc",
      "outputs": [],
      "stateMutability": "nonpayable",
      "type": "function"
    },
    {
      "inputs": [
        {
          "internalType": "uint256",
          "name": "id",
          "type": "uint256"
        }
      ],
      "name": "xemThongTinThuoc",
      "outputs": [
        {
          "components": [
            {
              "internalType": "uint256",
              "name": "id",
              "type": "uint256"
            },
            {
              "internalType": "string",
              "name": "nguonGoc",
              "type": "string"
            },
            {
              "internalType": "string",
              "name": "ipfsHash",
              "type": "string"
            },
            {
              "internalType": "address",
              "name": "nhaPhanPhoi",
              "type": "address"
            },
            {
              "internalType": "address",
              "name": "nhaThuoc",
              "type": "address"
            },
            {
              "internalType": "address",
              "name": "nguoiTieuDung",
              "type": "address"
            },
            {
              "internalType": "uint256",
              "name": "giaBanSi",
              "type": "uint256"
            },
            {
              "internalType": "uint256",
              "name": "giaBanLe",
              "type": "uint256"
            },
            {
              "internalType": "bool",
              "name": "duocXacThuc",
              "type": "bool"
            },
            {
              "internalType": "bool",
              "name": "daBanChoNhaThuoc",
              "type": "bool"
            },
            {
              "internalType": "bool",
              "name": "daBanChoNguoiTieuDung",
              "type": "bool"
            }
          ],
          "internalType": "struct QuanLyThuoc.Thuoc",
          "name": "",
          "type": "tuple"
        }
      ],
      "stateMutability": "view",
      "type": "function"
    }
  ],
  "bytecode": "0x6080806040523461007a5733156100645760008054336001600160a01b03198216811783556040519290916001600160a01b0316907f8be0079c531659141344cd1fd0a4f28419497f9722a3daafe3b4186f6b6457e09080a3610fd690816100808239f35b631e4fbdf760e01b815260006004820152602490fd5b600080fdfe6080604052600436101561001257600080fd5b60003560e01c806304fa750b1461086a57806321613afe1461072c57806337255ff1146105cc5780633e46ce01146104ed578063715018a61461049457806372a0864a146103115780638da5cb5b146102e8578063f2fde38b146102585763f5b4cbb61461007f57600080fd5b346102535760203660031901126102535760006101406040516100a181610d7c565b82815260606020820152606060408201528260608201528260808201528260a08201528260c08201528260e0820152826101008201528261012082015201526004356000526001602052604060002060ff60086040519261010184610d7c565b8054845261011160018201610e4c565b602085015261012260028201610e4c565b604085015260018060a01b03600382015416606085015260018060a01b03600482015416608085015260018060a01b0360058201541660a0850152600681015460c0850152600781015460e085015201548181161515610100840152818160081c16151561012084015260101c161515610140820152604051809160208252805160208301526101406101df6101c960208401516101606040870152610180860190610ef2565b6040840151858203601f19016060870152610ef2565b9160018060a01b03606082015116608085015260018060a01b0360808201511660a085015260018060a01b0360a08201511660c085015260c081015160e085015260e08101516101008501526101008101511515610120850152610120810151151582850152015115156101608301520390f35b600080fd5b34610253576020366003190112610253576004356001600160a01b038181169182900361025357610287610f32565b81156102cf57600054826bffffffffffffffffffffffff60a01b821617600055167f8be0079c531659141344cd1fd0a4f28419497f9722a3daafe3b4186f6b6457e0600080a3005b604051631e4fbdf760e01b815260006004820152602490fd5b34610253576000366003190112610253576000546040516001600160a01b039091168152602090f35b6020366003190112610253576004358060005260016020526040600020600781015491821561044f57600882019260ff845460101c166103fc57610356903414610f5e565b600080808060018060a01b03600487015416819034156103f2575b3491f1156103e65760059190910180546001600160a01b03191633908117909155825462ff00001916620100001790925560408051918252602082019290925234918101919091527fc8247b7ffd235f23619682f523f899111d3551dec010710eef322e730f50dd279080606081015b0390a1005b6040513d6000823e3d90fd5b6108fc9150610371565b60405162461bcd60e51b815260206004820152602560248201527f5468756f632064612064756f632062616e2063686f206e67756f6920746965756044820152642064756e6760d81b6064820152608490fd5b60405162461bcd60e51b815260206004820152601d60248201527f4e6861207468756f63206368756120646174206769612062616e206c650000006044820152606490fd5b34610253576000366003190112610253576104ad610f32565b600080546001600160a01b0319811682556001600160a01b03167f8be0079c531659141344cd1fd0a4f28419497f9722a3daafe3b4186f6b6457e08280a3005b346102535760203660031901126102535760043560005260016020526040600020805461051c60018301610e4c565b9160ff61052b60028301610e4c565b60018060a01b039283600382015416938060048301541690600583015416600683015491610589600860078601549501549561057b6040519b8c9b8c5260208c61016091829101528c0190610ef2565b908a820360408c0152610ef2565b966060890152608088015260a087015260c086015260e08501528181161515610100850152818160081c16151561012085015260101c1615156101408301520390f35b602036600319011261025357600435600081815260016020526040902060038101546001600160a01b03169182156106ee57600882019260ff845460081c166106a95760008080809361062460068801543414610f5e565b8190341561069f575b3491f1156103e65760049190910180546001600160a01b03191633908117909155825461ff0019166101001790925560408051918252602082019290925234918101919091527f611230459d201537690850d6b63906177318ad11725ecf242a03a4bcc99f10949080606081016103e1565b6108fc915061062d565b60405162461bcd60e51b815260206004820152601f60248201527f5468756f632064612064756f632062616e2063686f206e6861207468756f63006044820152606490fd5b60405162461bcd60e51b815260206004820152601660248201527553616e207068616d206b686f6e6720746f6e2074616960501b6044820152606490fd5b34610253576040366003190112610253576024356004356000526001602052604060002060018060a01b0360048201541633036108255760ff600882015460081c16156107d55760068101548211156107855760070155005b60405162461bcd60e51b815260206004820152602260248201527f4769612062616e206c652070686169206c6f6e20686f6e206769612062616e20604482015261736960f01b6064820152608490fd5b60405162461bcd60e51b815260206004820152602260248201527f5468756f6320636875612064756f63206d75612074752064697374726962757460448201526137b960f11b6064820152608490fd5b60405162461bcd60e51b815260206004820152601e60248201527f436869206e6861207468756f63206d6f692064756f63206461742067696100006044820152606490fd5b346102535760803660031901126102535760443567ffffffffffffffff81116102535761089b903690600401610dbb565b60643567ffffffffffffffff8111610253576108bb903690600401610dbb565b6004356000908152600160205260409020600301546001600160a01b0316610d375760243515610cf2576040516108f181610d7c565b600435815282602082015281604082015233606082015260006080820152600060a082015260243560c0820152600060e08201526001610100820152600061012082015260006101408201526004356000526001602052604060002081518155602082015180519067ffffffffffffffff8211610c0c5781906109776001850154610e12565b601f8111610c9f575b50602090601f8311600114610c2d57600092610c22575b50508160011b916000199060031b1c19161760018201555b604082015180519067ffffffffffffffff8211610c0c576109d36002840154610e12565b601f8111610bc5575b50602090601f8311600114610b2857610b129383610b0497947f01363d0722b7228ea71c6dec2340d69dceb211781259722006a28f192b678b99999794600894600092610b1d575b50508160011b916000199060031b1c19161760028201555b6003810160018060a01b03606085015116906bffffffffffffffffffffffff60a01b91828254161790556004820160018060a01b0360808601511682825416179055600582019060018060a01b0360a0860151169082541617905560c0830151600682015560e08301516007820155019061010081015115159061ff00835460ff62ff0000610140610120860151151560081b950151151560101b1694169062ffffff1916179116171790556040519384936004358552608060208601526080850190610ef2565b908382036040850152610ef2565b3360608301520390a1005b015190508a80610a24565b906002840160005260206000209160005b601f1985168110610bad5750936001847f01363d0722b7228ea71c6dec2340d69dceb211781259722006a28f192b678b99999794600894610b1298610b049b98601f19811610610b94575b505050811b016002820155610a3c565b015160001960f88460031b161c191690558a8080610b84565b91926020600181928685015181550194019201610b39565b600284016000526020600020601f840160051c810160208510610c05575b601f830160051c82018110610bf95750506109dc565b60008155600101610be3565b5080610be3565b634e487b7160e01b600052604160045260246000fd5b015190508680610997565b9250600184016000526020600020906000935b601f1984168510610c84576001945083601f19811610610c6b575b505050811b0160018201556109af565b015160001960f88460031b161c19169055868080610c5b565b81810151835560209485019460019093019290910190610c40565b909150600184016000526020600020601f840160051c810160208510610ceb575b90849392915b601f830160051c82018110610cdc575050610980565b60008155859450600101610cc6565b5080610cc0565b60405162461bcd60e51b815260206004820152601960248201527f4769612062616e2073692070686169206c6f6e20686f6e2030000000000000006044820152606490fd5b60405162461bcd60e51b815260206004820152601f60248201527f49442073616e207068616d206e61792064612064756f632064616e67206b79006044820152606490fd5b610160810190811067ffffffffffffffff821117610c0c57604052565b90601f8019910116810190811067ffffffffffffffff821117610c0c57604052565b81601f820112156102535780359067ffffffffffffffff8211610c0c5760405192610df0601f8401601f191660200185610d99565b8284526020838301011161025357816000926020809301838601378301015290565b90600182811c92168015610e42575b6020831014610e2c57565b634e487b7160e01b600052602260045260246000fd5b91607f1691610e21565b9060405191826000825492610e6084610e12565b908184526001948581169081600014610ecf5750600114610e8c575b5050610e8a92500383610d99565b565b9093915060005260209081600020936000915b818310610eb7575050610e8a93508201013880610e7c565b85548884018501529485019487945091830191610e9f565b915050610e8a94506020925060ff191682840152151560051b8201013880610e7c565b919082519283825260005b848110610f1e575050826000602080949584010152601f8019910116010190565b602081830181015184830182015201610efd565b6000546001600160a01b03163303610f4657565b60405163118cdaa760e01b8152336004820152602490fd5b15610f6557565b60405162461bcd60e51b815260206004820152601360248201527253616920736f207469656e206775692076616f60681b6044820152606490fdfea2646970667358221220ad7d921f58e6f4162651b93058f41186ac4e140bde4f021378a4bb3018f6e0f964736f6c63430008140033",
  "linkReferences": {},
  "deployedLinkReferences": {}
}