{
  "_format": "hh-sol-artifact-1",
  "contractName": "quanLiThuoc",
  "sourceName": "contracts/quanLiThuoc.sol",
  "abi": [
    {
      "anonymous": false,
      "inputs": [
        {
          "indexed": false,
          "internalType": "uint256",
          "name": "batchId",
          "type": "uint256"
        },
        {
          "indexed": false,
          "internalType": "string",
          "name": "drugName",
          "type": "string"
        },
        {
          "indexed": false,
          "internalType": "address",
          "name": "manufacturer",
          "type": "address"
        }
      ],
      "name": "BatchCreated",
      "type": "event"
    },
    {
      "anonymous": false,
      "inputs": [
        {
          "indexed": false,
          "internalType": "uint256",
          "name": "batchId",
          "type": "uint256"
        },
        {
          "indexed": false,
          "internalType": "address",
          "name": "from",
          "type": "address"
        },
        {
          "indexed": false,
          "internalType": "address",
          "name": "to",
          "type": "address"
        }
      ],
      "name": "BatchTransferred",
      "type": "event"
    },
    {
      "inputs": [
        {
          "internalType": "uint256",
          "name": "",
          "type": "uint256"
        },
        {
          "internalType": "uint256",
          "name": "",
          "type": "uint256"
        }
      ],
      "name": "batchTransfers",
      "outputs": [
        {
          "internalType": "address",
          "name": "from",
          "type": "address"
        },
        {
          "internalType": "address",
          "name": "to",
          "type": "address"
        },
        {
          "internalType": "uint256",
          "name": "timestamp",
          "type": "uint256"
        }
      ],
      "stateMutability": "view",
      "type": "function"
    },
    {
      "inputs": [
        {
          "internalType": "uint256",
          "name": "",
          "type": "uint256"
        }
      ],
      "name": "batches",
      "outputs": [
        {
          "internalType": "uint256",
          "name": "batchId",
          "type": "uint256"
        },
        {
          "internalType": "string",
          "name": "drugName",
          "type": "string"
        },
        {
          "internalType": "uint256",
          "name": "manufactureDate",
          "type": "uint256"
        },
        {
          "internalType": "uint256",
          "name": "expiryDate",
          "type": "uint256"
        },
        {
          "internalType": "address",
          "name": "manufacturer",
          "type": "address"
        },
        {
          "internalType": "address",
          "name": "currentOwner",
          "type": "address"
        },
        {
          "internalType": "string",
          "name": "ipfsHash",
          "type": "string"
        },
        {
          "internalType": "bool",
          "name": "exists",
          "type": "bool"
        }
      ],
      "stateMutability": "view",
      "type": "function"
    },
    {
      "inputs": [
        {
          "internalType": "string",
          "name": "_drugName",
          "type": "string"
        },
        {
          "internalType": "uint256",
          "name": "_manufactureDate",
          "type": "uint256"
        },
        {
          "internalType": "uint256",
          "name": "_expiryDate",
          "type": "uint256"
        },
        {
          "internalType": "string",
          "name": "_ipfsHash",
          "type": "string"
        }
      ],
      "name": "createBatch",
      "outputs": [],
      "stateMutability": "nonpayable",
      "type": "function"
    },
    {
      "inputs": [
        {
          "internalType": "uint256",
          "name": "_batchId",
          "type": "uint256"
        }
      ],
      "name": "getTransferHistory",
      "outputs": [
        {
          "components": [
            {
              "internalType": "address",
              "name": "from",
              "type": "address"
            },
            {
              "internalType": "address",
              "name": "to",
              "type": "address"
            },
            {
              "internalType": "uint256",
              "name": "timestamp",
              "type": "uint256"
            }
          ],
          "internalType": "struct quanLiThuoc.TransferHistory[]",
          "name": "",
          "type": "tuple[]"
        }
      ],
      "stateMutability": "view",
      "type": "function"
    },
    {
      "inputs": [],
      "name": "nextBatchId",
      "outputs": [
        {
          "internalType": "uint256",
          "name": "",
          "type": "uint256"
        }
      ],
      "stateMutability": "view",
      "type": "function"
    },
    {
      "inputs": [
        {
          "internalType": "uint256",
          "name": "_batchId",
          "type": "uint256"
        },
        {
          "internalType": "address",
          "name": "_to",
          "type": "address"
        }
      ],
      "name": "transferBatch",
      "outputs": [],
      "stateMutability": "nonpayable",
      "type": "function"
    }
  ],
  "bytecode": "0x6080604052600160025534801561001557600080fd5b50611413806100256000396000f3fe608060405234801561001057600080fd5b50600436106100625760003560e01c8063091990e614610067578063621f2b0e146100835780638462a7f81461009f5780638bb27d02146100bd578063b32c4d8d146100ed578063e7d78d6414610124575b600080fd5b610081600480360381019061007c9190610aca565b610156565b005b61009d60048036038101906100989190610bc7565b61032b565b005b6100a76105e0565b6040516100b49190610c16565b60405180910390f35b6100d760048036038101906100d29190610c31565b6105e6565b6040516100e49190610d6d565b60405180910390f35b61010760048036038101906101029190610c31565b61070e565b60405161011b989796959493929190610e38565b60405180910390f35b61013e60048036038101906101399190610ec4565b6108b3565b60405161014d93929190610f04565b60405180910390f35b60405180610100016040528060025481526020018581526020018481526020018381526020013373ffffffffffffffffffffffffffffffffffffffff1681526020013373ffffffffffffffffffffffffffffffffffffffff1681526020018281526020016001151581525060008060025481526020019081526020016000206000820151816000015560208201518160010190816101f49190611147565b50604082015181600201556060820151816003015560808201518160040160006101000a81548173ffffffffffffffffffffffffffffffffffffffff021916908373ffffffffffffffffffffffffffffffffffffffff16021790555060a08201518160050160006101000a81548173ffffffffffffffffffffffffffffffffffffffff021916908373ffffffffffffffffffffffffffffffffffffffff16021790555060c08201518160060190816102ac9190611147565b5060e08201518160070160006101000a81548160ff0219169083151502179055509050507f195a26ecf0c9b8fb957ecc3a7c029ce84849279de600e16f205ee789052052b6600254853360405161030593929190611219565b60405180910390a16002600081548092919061032090611286565b919050555050505050565b60008083815260200190815260200160002060070160009054906101000a900460ff1661038d576040517f08c379a00000000000000000000000000000000000000000000000000000000081526004016103849061131a565b60405180910390fd5b3373ffffffffffffffffffffffffffffffffffffffff1660008084815260200190815260200160002060050160009054906101000a900473ffffffffffffffffffffffffffffffffffffffff1673ffffffffffffffffffffffffffffffffffffffff1614610430576040517f08c379a000000000000000000000000000000000000000000000000000000000815260040161042790611386565b60405180910390fd5b8060008084815260200190815260200160002060050160006101000a81548173ffffffffffffffffffffffffffffffffffffffff021916908373ffffffffffffffffffffffffffffffffffffffff1602179055506001600083815260200190815260200160002060405180606001604052803373ffffffffffffffffffffffffffffffffffffffff1681526020018373ffffffffffffffffffffffffffffffffffffffff16815260200142815250908060018154018082558091505060019003906000526020600020906003020160009091909190915060008201518160000160006101000a81548173ffffffffffffffffffffffffffffffffffffffff021916908373ffffffffffffffffffffffffffffffffffffffff16021790555060208201518160010160006101000a81548173ffffffffffffffffffffffffffffffffffffffff021916908373ffffffffffffffffffffffffffffffffffffffff1602179055506040820151816002015550507fb9f31d1b8db0327a09cde76de6662ee23a4ecd72fbb0411cdfa7969fed7abe448233836040516105d4939291906113a6565b60405180910390a15050565b60025481565b606060016000838152602001908152602001600020805480602002602001604051908101604052809291908181526020016000905b8282101561070357838290600052602060002090600302016040518060600160405290816000820160009054906101000a900473ffffffffffffffffffffffffffffffffffffffff1673ffffffffffffffffffffffffffffffffffffffff1673ffffffffffffffffffffffffffffffffffffffff1681526020016001820160009054906101000a900473ffffffffffffffffffffffffffffffffffffffff1673ffffffffffffffffffffffffffffffffffffffff1673ffffffffffffffffffffffffffffffffffffffff1681526020016002820154815250508152602001906001019061061b565b505050509050919050565b600060205280600052604060002060009150905080600001549080600101805461073790610f6a565b80601f016020809104026020016040519081016040528092919081815260200182805461076390610f6a565b80156107b05780601f10610785576101008083540402835291602001916107b0565b820191906000526020600020905b81548152906001019060200180831161079357829003601f168201915b5050505050908060020154908060030154908060040160009054906101000a900473ffffffffffffffffffffffffffffffffffffffff16908060050160009054906101000a900473ffffffffffffffffffffffffffffffffffffffff169080600601805461081d90610f6a565b80601f016020809104026020016040519081016040528092919081815260200182805461084990610f6a565b80156108965780601f1061086b57610100808354040283529160200191610896565b820191906000526020600020905b81548152906001019060200180831161087957829003601f168201915b5050505050908060070160009054906101000a900460ff16905088565b600160205281600052604060002081815481106108cf57600080fd5b9060005260206000209060030201600091509150508060000160009054906101000a900473ffffffffffffffffffffffffffffffffffffffff16908060010160009054906101000a900473ffffffffffffffffffffffffffffffffffffffff16908060020154905083565b6000604051905090565b600080fd5b600080fd5b600080fd5b600080fd5b6000601f19601f8301169050919050565b7f4e487b7100000000000000000000000000000000000000000000000000000000600052604160045260246000fd5b6109a182610958565b810181811067ffffffffffffffff821117156109c0576109bf610969565b5b80604052505050565b60006109d361093a565b90506109df8282610998565b919050565b600067ffffffffffffffff8211156109ff576109fe610969565b5b610a0882610958565b9050602081019050919050565b82818337600083830152505050565b6000610a37610a32846109e4565b6109c9565b905082815260208101848484011115610a5357610a52610953565b5b610a5e848285610a15565b509392505050565b600082601f830112610a7b57610a7a61094e565b5b8135610a8b848260208601610a24565b91505092915050565b6000819050919050565b610aa781610a94565b8114610ab257600080fd5b50565b600081359050610ac481610a9e565b92915050565b60008060008060808587031215610ae457610ae3610944565b5b600085013567ffffffffffffffff811115610b0257610b01610949565b5b610b0e87828801610a66565b9450506020610b1f87828801610ab5565b9350506040610b3087828801610ab5565b925050606085013567ffffffffffffffff811115610b5157610b50610949565b5b610b5d87828801610a66565b91505092959194509250565b600073ffffffffffffffffffffffffffffffffffffffff82169050919050565b6000610b9482610b69565b9050919050565b610ba481610b89565b8114610baf57600080fd5b50565b600081359050610bc181610b9b565b92915050565b60008060408385031215610bde57610bdd610944565b5b6000610bec85828601610ab5565b9250506020610bfd85828601610bb2565b9150509250929050565b610c1081610a94565b82525050565b6000602082019050610c2b6000830184610c07565b92915050565b600060208284031215610c4757610c46610944565b5b6000610c5584828501610ab5565b91505092915050565b600081519050919050565b600082825260208201905092915050565b6000819050602082019050919050565b610c9381610b89565b82525050565b610ca281610a94565b82525050565b606082016000820151610cbe6000850182610c8a565b506020820151610cd16020850182610c8a565b506040820151610ce46040850182610c99565b50505050565b6000610cf68383610ca8565b60608301905092915050565b6000602082019050919050565b6000610d1a82610c5e565b610d248185610c69565b9350610d2f83610c7a565b8060005b83811015610d60578151610d478882610cea565b9750610d5283610d02565b925050600181019050610d33565b5085935050505092915050565b60006020820190508181036000830152610d878184610d0f565b905092915050565b600081519050919050565b600082825260208201905092915050565b60005b83811015610dc9578082015181840152602081019050610dae565b60008484015250505050565b6000610de082610d8f565b610dea8185610d9a565b9350610dfa818560208601610dab565b610e0381610958565b840191505092915050565b610e1781610b89565b82525050565b60008115159050919050565b610e3281610e1d565b82525050565b600061010082019050610e4e600083018b610c07565b8181036020830152610e60818a610dd5565b9050610e6f6040830189610c07565b610e7c6060830188610c07565b610e896080830187610e0e565b610e9660a0830186610e0e565b81810360c0830152610ea88185610dd5565b9050610eb760e0830184610e29565b9998505050505050505050565b60008060408385031215610edb57610eda610944565b5b6000610ee985828601610ab5565b9250506020610efa85828601610ab5565b9150509250929050565b6000606082019050610f196000830186610e0e565b610f266020830185610e0e565b610f336040830184610c07565b949350505050565b7f4e487b7100000000000000000000000000000000000000000000000000000000600052602260045260246000fd5b60006002820490506001821680610f8257607f821691505b602082108103610f9557610f94610f3b565b5b50919050565b60008190508160005260206000209050919050565b60006020601f8301049050919050565b600082821b905092915050565b600060088302610ffd7fffffffffffffffffffffffffffffffffffffffffffffffffffffffffffffffff82610fc0565b6110078683610fc0565b95508019841693508086168417925050509392505050565b6000819050919050565b600061104461103f61103a84610a94565b61101f565b610a94565b9050919050565b6000819050919050565b61105e83611029565b61107261106a8261104b565b848454610fcd565b825550505050565b600090565b61108761107a565b611092818484611055565b505050565b5b818110156110b6576110ab60008261107f565b600181019050611098565b5050565b601f8211156110fb576110cc81610f9b565b6110d584610fb0565b810160208510156110e4578190505b6110f86110f085610fb0565b830182611097565b50505b505050565b600082821c905092915050565b600061111e60001984600802611100565b1980831691505092915050565b6000611137838361110d565b9150826002028217905092915050565b61115082610d8f565b67ffffffffffffffff81111561116957611168610969565b5b6111738254610f6a565b61117e8282856110ba565b600060209050601f8311600181146111b1576000841561119f578287015190505b6111a9858261112b565b865550611211565b601f1984166111bf86610f9b565b60005b828110156111e7578489015182556001820191506020850194506020810190506111c2565b868310156112045784890151611200601f89168261110d565b8355505b6001600288020188555050505b505050505050565b600060608201905061122e6000830186610c07565b81810360208301526112408185610dd5565b905061124f6040830184610e0e565b949350505050565b7f4e487b7100000000000000000000000000000000000000000000000000000000600052601160045260246000fd5b600061129182610a94565b91507fffffffffffffffffffffffffffffffffffffffffffffffffffffffffffffffff82036112c3576112c2611257565b5b600182019050919050565b7f426174636820646f6573206e6f74206578697374000000000000000000000000600082015250565b6000611304601483610d9a565b915061130f826112ce565b602082019050919050565b60006020820190508181036000830152611333816112f7565b9050919050565b7f4e6f74206261746368206f776e65720000000000000000000000000000000000600082015250565b6000611370600f83610d9a565b915061137b8261133a565b602082019050919050565b6000602082019050818103600083015261139f81611363565b9050919050565b60006060820190506113bb6000830186610c07565b6113c86020830185610e0e565b6113d56040830184610e0e565b94935050505056fea2646970667358221220e301d78a8858ae7a077f633180cdf98e39767d7c22249b818f46fb74051c2fc264736f6c63430008140033",
  "linkReferences": {},
  "deployedLinkReferences": {}
}