{"contracts/quanLiThuoc.sol":{"QuanLyThuoc":{"abi":[{"inputs":[],"stateMutability":"nonpayable","type":"constructor"},{"inputs":[{"internalType":"address","name":"owner","type":"address"}],"name":"OwnableInvalidOwner","type":"error"},{"inputs":[{"internalType":"address","name":"account","type":"address"}],"name":"OwnableUnauthorizedAccount","type":"error"},{"anonymous":false,"inputs":[{"indexed":false,"internalType":"uint256","name":"id","type":"uint256"},{"indexed":false,"internalType":"address","name":"nguoiTieuDung","type":"address"},{"indexed":false,"internalType":"uint256","name":"gia","type":"uint256"}],"name":"BanChoNguoiTieuDung","type":"event"},{"anonymous":false,"inputs":[{"indexed":false,"internalType":"uint256","name":"id","type":"uint256"},{"indexed":false,"internalType":"address","name":"nhaThuoc","type":"address"},{"indexed":false,"internalType":"uint256","name":"gia","type":"uint256"}],"name":"BanChoNhaThuoc","type":"event"},{"anonymous":false,"inputs":[{"indexed":true,"internalType":"address","name":"previousOwner","type":"address"},{"indexed":true,"internalType":"address","name":"newOwner","type":"address"}],"name":"OwnershipTransferred","type":"event"},{"anonymous":false,"inputs":[{"indexed":false,"internalType":"uint256","name":"id","type":"uint256"},{"indexed":false,"internalType":"string","name":"nguonGoc","type":"string"},{"indexed":false,"internalType":"string","name":"ipfsHash","type":"string"},{"indexed":false,"internalType":"address","name":"nhaPhanPhoi","type":"address"}],"name":"XacThucNguonGoc","type":"event"},{"inputs":[{"internalType":"uint256","name":"","type":"uint256"}],"name":"danhSachThuoc","outputs":[{"internalType":"uint256","name":"id","type":"uint256"},{"internalType":"string","name":"nguonGoc","type":"string"},{"internalType":"string","name":"ipfsHash","type":"string"},{"internalType":"address","name":"nhaPhanPhoi","type":"address"},{"internalType":"address","name":"nhaThuoc","type":"address"},{"internalType":"address","name":"nguoiTieuDung","type":"address"},{"internalType":"uint256","name":"giaBanSi","type":"uint256"},{"internalType":"uint256","name":"giaBanLe","type":"uint256"},{"internalType":"bool","name":"duocXacThuc","type":"bool"},{"internalType":"bool","name":"daBanChoNhaThuoc","type":"bool"},{"internalType":"bool","name":"daBanChoNguoiTieuDung","type":"bool"}],"stateMutability":"view","type":"function"},{"inputs":[{"internalType":"uint256","name":"id","type":"uint256"},{"internalType":"uint256","name":"giaBanLe","type":"uint256"}],"name":"datGiaBanLe","outputs":[],"stateMutability":"nonpayable","type":"function"},{"inputs":[{"internalType":"uint256","name":"id","type":"uint256"}],"name":"muaChoNhaThuoc","outputs":[],"stateMutability":"payable","type":"function"},{"inputs":[{"internalType":"uint256","name":"id","type":"uint256"}],"name":"muaTuNguoiTieuDung","outputs":[],"stateMutability":"payable","type":"function"},{"inputs":[],"name":"owner","outputs":[{"internalType":"address","name":"","type":"address"}],"stateMutability":"view","type":"function"},{"inputs":[],"name":"renounceOwnership","outputs":[],"stateMutability":"nonpayable","type":"function"},{"inputs":[{"internalType":"address","name":"newOwner","type":"address"}],"name":"transferOwnership","outputs":[],"stateMutability":"nonpayable","type":"function"},{"inputs":[{"internalType":"uint256","name":"id","type":"uint256"},{"internalType":"uint256","name":"giaBanSi","type":"uint256"},{"internalType":"string","name":"nguonGoc","type":"string"},{"internalType":"string","name":"ipfsHash","type":"string"}],"name":"xacThucNguonGoc","outputs":[],"stateMutability":"nonpayable","type":"function"},{"inputs":[{"internalType":"uint256","name":"id","type":"uint256"}],"name":"xemThongTinThuoc","outputs":[{"components":[{"internalType":"uint256","name":"id","type":"uint256"},{"internalType":"string","name":"nguonGoc","type":"string"},{"internalType":"string","name":"ipfsHash","type":"string"},{"internalType":"address","name":"nhaPhanPhoi","type":"address"},{"internalType":"address","name":"nhaThuoc","type":"address"},{"internalType":"address","name":"nguoiTieuDung","type":"address"},{"internalType":"uint256","name":"giaBanSi","type":"uint256"},{"internalType":"uint256","name":"giaBanLe","type":"uint256"},{"internalType":"bool","name":"duocXacThuc","type":"bool"},{"internalType":"bool","name":"daBanChoNhaThuoc","type":"bool"},{"internalType":"bool","name":"daBanChoNguoiTieuDung","type":"bool"}],"internalType":"struct QuanLyThuoc.Thuoc","name":"","type":"tuple"}],"stateMutability":"view","type":"function"}],"evm":{"bytecode":{"linkReferences":{},"object":"6080806040523461007a5733156100645760008054336001600160a01b03198216811783556040519290916001600160a01b0316907f8be0079c531659141344cd1fd0a4f28419497f9722a3daafe3b4186f6b6457e09080a3610fd690816100808239f35b631e4fbdf760e01b815260006004820152602490fd5b600080fdfe6080604052600436101561001257600080fd5b60003560e01c806304fa750b1461086a57806321613afe1461072c57806337255ff1146105cc5780633e46ce01146104ed578063715018a61461049457806372a0864a146103115780638da5cb5b146102e8578063f2fde38b146102585763f5b4cbb61461007f57600080fd5b346102535760203660031901126102535760006101406040516100a181610d7c565b82815260606020820152606060408201528260608201528260808201528260a08201528260c08201528260e0820152826101008201528261012082015201526004356000526001602052604060002060ff60086040519261010184610d7c565b8054845261011160018201610e4c565b602085015261012260028201610e4c565b604085015260018060a01b03600382015416606085015260018060a01b03600482015416608085015260018060a01b0360058201541660a0850152600681015460c0850152600781015460e085015201548181161515610100840152818160081c16151561012084015260101c161515610140820152604051809160208252805160208301526101406101df6101c960208401516101606040870152610180860190610ef2565b6040840151858203601f19016060870152610ef2565b9160018060a01b03606082015116608085015260018060a01b0360808201511660a085015260018060a01b0360a08201511660c085015260c081015160e085015260e08101516101008501526101008101511515610120850152610120810151151582850152015115156101608301520390f35b600080fd5b34610253576020366003190112610253576004356001600160a01b038181169182900361025357610287610f32565b81156102cf57600054826bffffffffffffffffffffffff60a01b821617600055167f8be0079c531659141344cd1fd0a4f28419497f9722a3daafe3b4186f6b6457e0600080a3005b604051631e4fbdf760e01b815260006004820152602490fd5b34610253576000366003190112610253576000546040516001600160a01b039091168152602090f35b6020366003190112610253576004358060005260016020526040600020600781015491821561044f57600882019260ff845460101c166103fc57610356903414610f5e565b600080808060018060a01b03600487015416819034156103f2575b3491f1156103e65760059190910180546001600160a01b03191633908117909155825462ff00001916620100001790925560408051918252602082019290925234918101919091527fc8247b7ffd235f23619682f523f899111d3551dec010710eef322e730f50dd279080606081015b0390a1005b6040513d6000823e3d90fd5b6108fc9150610371565b60405162461bcd60e51b815260206004820152602560248201527f5468756f632064612064756f632062616e2063686f206e67756f6920746965756044820152642064756e6760d81b6064820152608490fd5b60405162461bcd60e51b815260206004820152601d60248201527f4e6861207468756f63206368756120646174206769612062616e206c650000006044820152606490fd5b34610253576000366003190112610253576104ad610f32565b600080546001600160a01b0319811682556001600160a01b03167f8be0079c531659141344cd1fd0a4f28419497f9722a3daafe3b4186f6b6457e08280a3005b346102535760203660031901126102535760043560005260016020526040600020805461051c60018301610e4c565b9160ff61052b60028301610e4c565b60018060a01b039283600382015416938060048301541690600583015416600683015491610589600860078601549501549561057b6040519b8c9b8c5260208c61016091829101528c0190610ef2565b908a820360408c0152610ef2565b966060890152608088015260a087015260c086015260e08501528181161515610100850152818160081c16151561012085015260101c1615156101408301520390f35b602036600319011261025357600435600081815260016020526040902060038101546001600160a01b03169182156106ee57600882019260ff845460081c166106a95760008080809361062460068801543414610f5e565b8190341561069f575b3491f1156103e65760049190910180546001600160a01b03191633908117909155825461ff0019166101001790925560408051918252602082019290925234918101919091527f611230459d201537690850d6b63906177318ad11725ecf242a03a4bcc99f10949080606081016103e1565b6108fc915061062d565b60405162461bcd60e51b815260206004820152601f60248201527f5468756f632064612064756f632062616e2063686f206e6861207468756f63006044820152606490fd5b60405162461bcd60e51b815260206004820152601660248201527553616e207068616d206b686f6e6720746f6e2074616960501b6044820152606490fd5b34610253576040366003190112610253576024356004356000526001602052604060002060018060a01b0360048201541633036108255760ff600882015460081c16156107d55760068101548211156107855760070155005b60405162461bcd60e51b815260206004820152602260248201527f4769612062616e206c652070686169206c6f6e20686f6e206769612062616e20604482015261736960f01b6064820152608490fd5b60405162461bcd60e51b815260206004820152602260248201527f5468756f6320636875612064756f63206d75612074752064697374726962757460448201526137b960f11b6064820152608490fd5b60405162461bcd60e51b815260206004820152601e60248201527f436869206e6861207468756f63206d6f692064756f63206461742067696100006044820152606490fd5b346102535760803660031901126102535760443567ffffffffffffffff81116102535761089b903690600401610dbb565b60643567ffffffffffffffff8111610253576108bb903690600401610dbb565b6004356000908152600160205260409020600301546001600160a01b0316610d375760243515610cf2576040516108f181610d7c565b600435815282602082015281604082015233606082015260006080820152600060a082015260243560c0820152600060e08201526001610100820152600061012082015260006101408201526004356000526001602052604060002081518155602082015180519067ffffffffffffffff8211610c0c5781906109776001850154610e12565b601f8111610c9f575b50602090601f8311600114610c2d57600092610c22575b50508160011b916000199060031b1c19161760018201555b604082015180519067ffffffffffffffff8211610c0c576109d36002840154610e12565b601f8111610bc5575b50602090601f8311600114610b2857610b129383610b0497947f01363d0722b7228ea71c6dec2340d69dceb211781259722006a28f192b678b99999794600894600092610b1d575b50508160011b916000199060031b1c19161760028201555b6003810160018060a01b03606085015116906bffffffffffffffffffffffff60a01b91828254161790556004820160018060a01b0360808601511682825416179055600582019060018060a01b0360a0860151169082541617905560c0830151600682015560e08301516007820155019061010081015115159061ff00835460ff62ff0000610140610120860151151560081b950151151560101b1694169062ffffff1916179116171790556040519384936004358552608060208601526080850190610ef2565b908382036040850152610ef2565b3360608301520390a1005b015190508a80610a24565b906002840160005260206000209160005b601f1985168110610bad5750936001847f01363d0722b7228ea71c6dec2340d69dceb211781259722006a28f192b678b99999794600894610b1298610b049b98601f19811610610b94575b505050811b016002820155610a3c565b015160001960f88460031b161c191690558a8080610b84565b91926020600181928685015181550194019201610b39565b600284016000526020600020601f840160051c810160208510610c05575b601f830160051c82018110610bf95750506109dc565b60008155600101610be3565b5080610be3565b634e487b7160e01b600052604160045260246000fd5b015190508680610997565b9250600184016000526020600020906000935b601f1984168510610c84576001945083601f19811610610c6b575b505050811b0160018201556109af565b015160001960f88460031b161c19169055868080610c5b565b81810151835560209485019460019093019290910190610c40565b909150600184016000526020600020601f840160051c810160208510610ceb575b90849392915b601f830160051c82018110610cdc575050610980565b60008155859450600101610cc6565b5080610cc0565b60405162461bcd60e51b815260206004820152601960248201527f4769612062616e2073692070686169206c6f6e20686f6e2030000000000000006044820152606490fd5b60405162461bcd60e51b815260206004820152601f60248201527f49442073616e207068616d206e61792064612064756f632064616e67206b79006044820152606490fd5b610160810190811067ffffffffffffffff821117610c0c57604052565b90601f8019910116810190811067ffffffffffffffff821117610c0c57604052565b81601f820112156102535780359067ffffffffffffffff8211610c0c5760405192610df0601f8401601f191660200185610d99565b8284526020838301011161025357816000926020809301838601378301015290565b90600182811c92168015610e42575b6020831014610e2c57565b634e487b7160e01b600052602260045260246000fd5b91607f1691610e21565b9060405191826000825492610e6084610e12565b908184526001948581169081600014610ecf5750600114610e8c575b5050610e8a92500383610d99565b565b9093915060005260209081600020936000915b818310610eb7575050610e8a93508201013880610e7c565b85548884018501529485019487945091830191610e9f565b915050610e8a94506020925060ff191682840152151560051b8201013880610e7c565b919082519283825260005b848110610f1e575050826000602080949584010152601f8019910116010190565b602081830181015184830182015201610efd565b6000546001600160a01b03163303610f4657565b60405163118cdaa760e01b8152336004820152602490fd5b15610f6557565b60405162461bcd60e51b815260206004820152601360248201527253616920736f207469656e206775692076616f60681b6044820152606490fdfea2646970667358221220ad7d921f58e6f4162651b93058f41186ac4e140bde4f021378a4bb3018f6e0f964736f6c63430008140033","opcodes":"PUSH1 0x80 DUP1 PUSH1 0x40 MSTORE CALLVALUE PUSH2 0x7A JUMPI CALLER ISZERO PUSH2 0x64 JUMPI PUSH1 0x0 DUP1 SLOAD CALLER PUSH1 0x1 PUSH1 0x1 PUSH1 0xA0 SHL SUB NOT DUP3 AND DUP2 OR DUP4 SSTORE PUSH1 0x40 MLOAD SWAP3 SWAP1 SWAP2 PUSH1 0x1 PUSH1 0x1 PUSH1 0xA0 SHL SUB AND SWAP1 PUSH32 0x8BE0079C531659141344CD1FD0A4F28419497F9722A3DAAFE3B4186F6B6457E0 SWAP1 DUP1 LOG3 PUSH2 0xFD6 SWAP1 DUP2 PUSH2 0x80 DUP3 CODECOPY RETURN JUMPDEST PUSH4 0x1E4FBDF7 PUSH1 0xE0 SHL DUP2 MSTORE PUSH1 0x0 PUSH1 0x4 DUP3 ADD MSTORE PUSH1 0x24 SWAP1 REVERT JUMPDEST PUSH1 0x0 DUP1 REVERT INVALID PUSH1 0x80 PUSH1 0x40 MSTORE PUSH1 0x4 CALLDATASIZE LT ISZERO PUSH2 0x12 JUMPI PUSH1 0x0 DUP1 REVERT JUMPDEST PUSH1 0x0 CALLDATALOAD PUSH1 0xE0 SHR DUP1 PUSH4 0x4FA750B EQ PUSH2 0x86A JUMPI DUP1 PUSH4 0x21613AFE EQ PUSH2 0x72C JUMPI DUP1 PUSH4 0x37255FF1 EQ PUSH2 0x5CC JUMPI DUP1 PUSH4 0x3E46CE01 EQ PUSH2 0x4ED JUMPI DUP1 PUSH4 0x715018A6 EQ PUSH2 0x494 JUMPI DUP1 PUSH4 0x72A0864A EQ PUSH2 0x311 JUMPI DUP1 PUSH4 0x8DA5CB5B EQ PUSH2 0x2E8 JUMPI DUP1 PUSH4 0xF2FDE38B EQ PUSH2 0x258 JUMPI PUSH4 0xF5B4CBB6 EQ PUSH2 0x7F JUMPI PUSH1 0x0 DUP1 REVERT JUMPDEST CALLVALUE PUSH2 0x253 JUMPI PUSH1 0x20 CALLDATASIZE PUSH1 0x3 NOT ADD SLT PUSH2 0x253 JUMPI PUSH1 0x0 PUSH2 0x140 PUSH1 0x40 MLOAD PUSH2 0xA1 DUP2 PUSH2 0xD7C JUMP JUMPDEST DUP3 DUP2 MSTORE PUSH1 0x60 PUSH1 0x20 DUP3 ADD MSTORE PUSH1 0x60 PUSH1 0x40 DUP3 ADD MSTORE DUP3 PUSH1 0x60 DUP3 ADD MSTORE DUP3 PUSH1 0x80 DUP3 ADD MSTORE DUP3 PUSH1 0xA0 DUP3 ADD MSTORE DUP3 PUSH1 0xC0 DUP3 ADD MSTORE DUP3 PUSH1 0xE0 DUP3 ADD MSTORE DUP3 PUSH2 0x100 DUP3 ADD MSTORE DUP3 PUSH2 0x120 DUP3 ADD MSTORE ADD MSTORE PUSH1 0x4 CALLDATALOAD PUSH1 0x0 MSTORE PUSH1 0x1 PUSH1 0x20 MSTORE PUSH1 0x40 PUSH1 0x0 KECCAK256 PUSH1 0xFF PUSH1 0x8 PUSH1 0x40 MLOAD SWAP3 PUSH2 0x101 DUP5 PUSH2 0xD7C JUMP JUMPDEST DUP1 SLOAD DUP5 MSTORE PUSH2 0x111 PUSH1 0x1 DUP3 ADD PUSH2 0xE4C JUMP JUMPDEST PUSH1 0x20 DUP6 ADD MSTORE PUSH2 0x122 PUSH1 0x2 DUP3 ADD PUSH2 0xE4C JUMP JUMPDEST PUSH1 0x40 DUP6 ADD MSTORE PUSH1 0x1 DUP1 PUSH1 0xA0 SHL SUB PUSH1 0x3 DUP3 ADD SLOAD AND PUSH1 0x60 DUP6 ADD MSTORE PUSH1 0x1 DUP1 PUSH1 0xA0 SHL SUB PUSH1 0x4 DUP3 ADD SLOAD AND PUSH1 0x80 DUP6 ADD MSTORE PUSH1 0x1 DUP1 PUSH1 0xA0 SHL SUB PUSH1 0x5 DUP3 ADD SLOAD AND PUSH1 0xA0 DUP6 ADD MSTORE PUSH1 0x6 DUP2 ADD SLOAD PUSH1 0xC0 DUP6 ADD MSTORE PUSH1 0x7 DUP2 ADD SLOAD PUSH1 0xE0 DUP6 ADD MSTORE ADD SLOAD DUP2 DUP2 AND ISZERO ISZERO PUSH2 0x100 DUP5 ADD MSTORE DUP2 DUP2 PUSH1 0x8 SHR AND ISZERO ISZERO PUSH2 0x120 DUP5 ADD MSTORE PUSH1 0x10 SHR AND ISZERO ISZERO PUSH2 0x140 DUP3 ADD MSTORE PUSH1 0x40 MLOAD DUP1 SWAP2 PUSH1 0x20 DUP3 MSTORE DUP1 MLOAD PUSH1 0x20 DUP4 ADD MSTORE PUSH2 0x140 PUSH2 0x1DF PUSH2 0x1C9 PUSH1 0x20 DUP5 ADD MLOAD PUSH2 0x160 PUSH1 0x40 DUP8 ADD MSTORE PUSH2 0x180 DUP7 ADD SWAP1 PUSH2 0xEF2 JUMP JUMPDEST PUSH1 0x40 DUP5 ADD MLOAD DUP6 DUP3 SUB PUSH1 0x1F NOT ADD PUSH1 0x60 DUP8 ADD MSTORE PUSH2 0xEF2 JUMP JUMPDEST SWAP2 PUSH1 0x1 DUP1 PUSH1 0xA0 SHL SUB PUSH1 0x60 DUP3 ADD MLOAD AND PUSH1 0x80 DUP6 ADD MSTORE PUSH1 0x1 DUP1 PUSH1 0xA0 SHL SUB PUSH1 0x80 DUP3 ADD MLOAD AND PUSH1 0xA0 DUP6 ADD MSTORE PUSH1 0x1 DUP1 PUSH1 0xA0 SHL SUB PUSH1 0xA0 DUP3 ADD MLOAD AND PUSH1 0xC0 DUP6 ADD MSTORE PUSH1 0xC0 DUP2 ADD MLOAD PUSH1 0xE0 DUP6 ADD MSTORE PUSH1 0xE0 DUP2 ADD MLOAD PUSH2 0x100 DUP6 ADD MSTORE PUSH2 0x100 DUP2 ADD MLOAD ISZERO ISZERO PUSH2 0x120 DUP6 ADD MSTORE PUSH2 0x120 DUP2 ADD MLOAD ISZERO ISZERO DUP3 DUP6 ADD MSTORE ADD MLOAD ISZERO ISZERO PUSH2 0x160 DUP4 ADD MSTORE SUB SWAP1 RETURN JUMPDEST PUSH1 0x0 DUP1 REVERT JUMPDEST CALLVALUE PUSH2 0x253 JUMPI PUSH1 0x20 CALLDATASIZE PUSH1 0x3 NOT ADD SLT PUSH2 0x253 JUMPI PUSH1 0x4 CALLDATALOAD PUSH1 0x1 PUSH1 0x1 PUSH1 0xA0 SHL SUB DUP2 DUP2 AND SWAP2 DUP3 SWAP1 SUB PUSH2 0x253 JUMPI PUSH2 0x287 PUSH2 0xF32 JUMP JUMPDEST DUP2 ISZERO PUSH2 0x2CF JUMPI PUSH1 0x0 SLOAD DUP3 PUSH12 0xFFFFFFFFFFFFFFFFFFFFFFFF PUSH1 0xA0 SHL DUP3 AND OR PUSH1 0x0 SSTORE AND PUSH32 0x8BE0079C531659141344CD1FD0A4F28419497F9722A3DAAFE3B4186F6B6457E0 PUSH1 0x0 DUP1 LOG3 STOP JUMPDEST PUSH1 0x40 MLOAD PUSH4 0x1E4FBDF7 PUSH1 0xE0 SHL DUP2 MSTORE PUSH1 0x0 PUSH1 0x4 DUP3 ADD MSTORE PUSH1 0x24 SWAP1 REVERT JUMPDEST CALLVALUE PUSH2 0x253 JUMPI PUSH1 0x0 CALLDATASIZE PUSH1 0x3 NOT ADD SLT PUSH2 0x253 JUMPI PUSH1 0x0 SLOAD PUSH1 0x40 MLOAD PUSH1 0x1 PUSH1 0x1 PUSH1 0xA0 SHL SUB SWAP1 SWAP2 AND DUP2 MSTORE PUSH1 0x20 SWAP1 RETURN JUMPDEST PUSH1 0x20 CALLDATASIZE PUSH1 0x3 NOT ADD SLT PUSH2 0x253 JUMPI PUSH1 0x4 CALLDATALOAD DUP1 PUSH1 0x0 MSTORE PUSH1 0x1 PUSH1 0x20 MSTORE PUSH1 0x40 PUSH1 0x0 KECCAK256 PUSH1 0x7 DUP2 ADD SLOAD SWAP2 DUP3 ISZERO PUSH2 0x44F JUMPI PUSH1 0x8 DUP3 ADD SWAP3 PUSH1 0xFF DUP5 SLOAD PUSH1 0x10 SHR AND PUSH2 0x3FC JUMPI PUSH2 0x356 SWAP1 CALLVALUE EQ PUSH2 0xF5E JUMP JUMPDEST PUSH1 0x0 DUP1 DUP1 DUP1 PUSH1 0x1 DUP1 PUSH1 0xA0 SHL SUB PUSH1 0x4 DUP8 ADD SLOAD AND DUP2 SWAP1 CALLVALUE ISZERO PUSH2 0x3F2 JUMPI JUMPDEST CALLVALUE SWAP2 CALL ISZERO PUSH2 0x3E6 JUMPI PUSH1 0x5 SWAP2 SWAP1 SWAP2 ADD DUP1 SLOAD PUSH1 0x1 PUSH1 0x1 PUSH1 0xA0 SHL SUB NOT AND CALLER SWAP1 DUP2 OR SWAP1 SWAP2 SSTORE DUP3 SLOAD PUSH3 0xFF0000 NOT AND PUSH3 0x10000 OR SWAP1 SWAP3 SSTORE PUSH1 0x40 DUP1 MLOAD SWAP2 DUP3 MSTORE PUSH1 0x20 DUP3 ADD SWAP3 SWAP1 SWAP3 MSTORE CALLVALUE SWAP2 DUP2 ADD SWAP2 SWAP1 SWAP2 MSTORE PUSH32 0xC8247B7FFD235F23619682F523F899111D3551DEC010710EEF322E730F50DD27 SWAP1 DUP1 PUSH1 0x60 DUP2 ADD JUMPDEST SUB SWAP1 LOG1 STOP JUMPDEST PUSH1 0x40 MLOAD RETURNDATASIZE PUSH1 0x0 DUP3 RETURNDATACOPY RETURNDATASIZE SWAP1 REVERT JUMPDEST PUSH2 0x8FC SWAP2 POP PUSH2 0x371 JUMP JUMPDEST PUSH1 0x40 MLOAD PUSH3 0x461BCD PUSH1 0xE5 SHL DUP2 MSTORE PUSH1 0x20 PUSH1 0x4 DUP3 ADD MSTORE PUSH1 0x25 PUSH1 0x24 DUP3 ADD MSTORE PUSH32 0x5468756F632064612064756F632062616E2063686F206E67756F692074696575 PUSH1 0x44 DUP3 ADD MSTORE PUSH5 0x2064756E67 PUSH1 0xD8 SHL PUSH1 0x64 DUP3 ADD MSTORE PUSH1 0x84 SWAP1 REVERT JUMPDEST PUSH1 0x40 MLOAD PUSH3 0x461BCD PUSH1 0xE5 SHL DUP2 MSTORE PUSH1 0x20 PUSH1 0x4 DUP3 ADD MSTORE PUSH1 0x1D PUSH1 0x24 DUP3 ADD MSTORE PUSH32 0x4E6861207468756F63206368756120646174206769612062616E206C65000000 PUSH1 0x44 DUP3 ADD MSTORE PUSH1 0x64 SWAP1 REVERT JUMPDEST CALLVALUE PUSH2 0x253 JUMPI PUSH1 0x0 CALLDATASIZE PUSH1 0x3 NOT ADD SLT PUSH2 0x253 JUMPI PUSH2 0x4AD PUSH2 0xF32 JUMP JUMPDEST PUSH1 0x0 DUP1 SLOAD PUSH1 0x1 PUSH1 0x1 PUSH1 0xA0 SHL SUB NOT DUP2 AND DUP3 SSTORE PUSH1 0x1 PUSH1 0x1 PUSH1 0xA0 SHL SUB AND PUSH32 0x8BE0079C531659141344CD1FD0A4F28419497F9722A3DAAFE3B4186F6B6457E0 DUP3 DUP1 LOG3 STOP JUMPDEST CALLVALUE PUSH2 0x253 JUMPI PUSH1 0x20 CALLDATASIZE PUSH1 0x3 NOT ADD SLT PUSH2 0x253 JUMPI PUSH1 0x4 CALLDATALOAD PUSH1 0x0 MSTORE PUSH1 0x1 PUSH1 0x20 MSTORE PUSH1 0x40 PUSH1 0x0 KECCAK256 DUP1 SLOAD PUSH2 0x51C PUSH1 0x1 DUP4 ADD PUSH2 0xE4C JUMP JUMPDEST SWAP2 PUSH1 0xFF PUSH2 0x52B PUSH1 0x2 DUP4 ADD PUSH2 0xE4C JUMP JUMPDEST PUSH1 0x1 DUP1 PUSH1 0xA0 SHL SUB SWAP3 DUP4 PUSH1 0x3 DUP3 ADD SLOAD AND SWAP4 DUP1 PUSH1 0x4 DUP4 ADD SLOAD AND SWAP1 PUSH1 0x5 DUP4 ADD SLOAD AND PUSH1 0x6 DUP4 ADD SLOAD SWAP2 PUSH2 0x589 PUSH1 0x8 PUSH1 0x7 DUP7 ADD SLOAD SWAP6 ADD SLOAD SWAP6 PUSH2 0x57B PUSH1 0x40 MLOAD SWAP12 DUP13 SWAP12 DUP13 MSTORE PUSH1 0x20 DUP13 PUSH2 0x160 SWAP2 DUP3 SWAP2 ADD MSTORE DUP13 ADD SWAP1 PUSH2 0xEF2 JUMP JUMPDEST SWAP1 DUP11 DUP3 SUB PUSH1 0x40 DUP13 ADD MSTORE PUSH2 0xEF2 JUMP JUMPDEST SWAP7 PUSH1 0x60 DUP10 ADD MSTORE PUSH1 0x80 DUP9 ADD MSTORE PUSH1 0xA0 DUP8 ADD MSTORE PUSH1 0xC0 DUP7 ADD MSTORE PUSH1 0xE0 DUP6 ADD MSTORE DUP2 DUP2 AND ISZERO ISZERO PUSH2 0x100 DUP6 ADD MSTORE DUP2 DUP2 PUSH1 0x8 SHR AND ISZERO ISZERO PUSH2 0x120 DUP6 ADD MSTORE PUSH1 0x10 SHR AND ISZERO ISZERO PUSH2 0x140 DUP4 ADD MSTORE SUB SWAP1 RETURN JUMPDEST PUSH1 0x20 CALLDATASIZE PUSH1 0x3 NOT ADD SLT PUSH2 0x253 JUMPI PUSH1 0x4 CALLDATALOAD PUSH1 0x0 DUP2 DUP2 MSTORE PUSH1 0x1 PUSH1 0x20 MSTORE PUSH1 0x40 SWAP1 KECCAK256 PUSH1 0x3 DUP2 ADD SLOAD PUSH1 0x1 PUSH1 0x1 PUSH1 0xA0 SHL SUB AND SWAP2 DUP3 ISZERO PUSH2 0x6EE JUMPI PUSH1 0x8 DUP3 ADD SWAP3 PUSH1 0xFF DUP5 SLOAD PUSH1 0x8 SHR AND PUSH2 0x6A9 JUMPI PUSH1 0x0 DUP1 DUP1 DUP1 SWAP4 PUSH2 0x624 PUSH1 0x6 DUP9 ADD SLOAD CALLVALUE EQ PUSH2 0xF5E JUMP JUMPDEST DUP2 SWAP1 CALLVALUE ISZERO PUSH2 0x69F JUMPI JUMPDEST CALLVALUE SWAP2 CALL ISZERO PUSH2 0x3E6 JUMPI PUSH1 0x4 SWAP2 SWAP1 SWAP2 ADD DUP1 SLOAD PUSH1 0x1 PUSH1 0x1 PUSH1 0xA0 SHL SUB NOT AND CALLER SWAP1 DUP2 OR SWAP1 SWAP2 SSTORE DUP3 SLOAD PUSH2 0xFF00 NOT AND PUSH2 0x100 OR SWAP1 SWAP3 SSTORE PUSH1 0x40 DUP1 MLOAD SWAP2 DUP3 MSTORE PUSH1 0x20 DUP3 ADD SWAP3 SWAP1 SWAP3 MSTORE CALLVALUE SWAP2 DUP2 ADD SWAP2 SWAP1 SWAP2 MSTORE PUSH32 0x611230459D201537690850D6B63906177318AD11725ECF242A03A4BCC99F1094 SWAP1 DUP1 PUSH1 0x60 DUP2 ADD PUSH2 0x3E1 JUMP JUMPDEST PUSH2 0x8FC SWAP2 POP PUSH2 0x62D JUMP JUMPDEST PUSH1 0x40 MLOAD PUSH3 0x461BCD PUSH1 0xE5 SHL DUP2 MSTORE PUSH1 0x20 PUSH1 0x4 DUP3 ADD MSTORE PUSH1 0x1F PUSH1 0x24 DUP3 ADD MSTORE PUSH32 0x5468756F632064612064756F632062616E2063686F206E6861207468756F6300 PUSH1 0x44 DUP3 ADD MSTORE PUSH1 0x64 SWAP1 REVERT JUMPDEST PUSH1 0x40 MLOAD PUSH3 0x461BCD PUSH1 0xE5 SHL DUP2 MSTORE PUSH1 0x20 PUSH1 0x4 DUP3 ADD MSTORE PUSH1 0x16 PUSH1 0x24 DUP3 ADD MSTORE PUSH22 0x53616E207068616D206B686F6E6720746F6E20746169 PUSH1 0x50 SHL PUSH1 0x44 DUP3 ADD MSTORE PUSH1 0x64 SWAP1 REVERT JUMPDEST CALLVALUE PUSH2 0x253 JUMPI PUSH1 0x40 CALLDATASIZE PUSH1 0x3 NOT ADD SLT PUSH2 0x253 JUMPI PUSH1 0x24 CALLDATALOAD PUSH1 0x4 CALLDATALOAD PUSH1 0x0 MSTORE PUSH1 0x1 PUSH1 0x20 MSTORE PUSH1 0x40 PUSH1 0x0 KECCAK256 PUSH1 0x1 DUP1 PUSH1 0xA0 SHL SUB PUSH1 0x4 DUP3 ADD SLOAD AND CALLER SUB PUSH2 0x825 JUMPI PUSH1 0xFF PUSH1 0x8 DUP3 ADD SLOAD PUSH1 0x8 SHR AND ISZERO PUSH2 0x7D5 JUMPI PUSH1 0x6 DUP2 ADD SLOAD DUP3 GT ISZERO PUSH2 0x785 JUMPI PUSH1 0x7 ADD SSTORE STOP JUMPDEST PUSH1 0x40 MLOAD PUSH3 0x461BCD PUSH1 0xE5 SHL DUP2 MSTORE PUSH1 0x20 PUSH1 0x4 DUP3 ADD MSTORE PUSH1 0x22 PUSH1 0x24 DUP3 ADD MSTORE PUSH32 0x4769612062616E206C652070686169206C6F6E20686F6E206769612062616E20 PUSH1 0x44 DUP3 ADD MSTORE PUSH2 0x7369 PUSH1 0xF0 SHL PUSH1 0x64 DUP3 ADD MSTORE PUSH1 0x84 SWAP1 REVERT JUMPDEST PUSH1 0x40 MLOAD PUSH3 0x461BCD PUSH1 0xE5 SHL DUP2 MSTORE PUSH1 0x20 PUSH1 0x4 DUP3 ADD MSTORE PUSH1 0x22 PUSH1 0x24 DUP3 ADD MSTORE PUSH32 0x5468756F6320636875612064756F63206D756120747520646973747269627574 PUSH1 0x44 DUP3 ADD MSTORE PUSH2 0x37B9 PUSH1 0xF1 SHL PUSH1 0x64 DUP3 ADD MSTORE PUSH1 0x84 SWAP1 REVERT JUMPDEST PUSH1 0x40 MLOAD PUSH3 0x461BCD PUSH1 0xE5 SHL DUP2 MSTORE PUSH1 0x20 PUSH1 0x4 DUP3 ADD MSTORE PUSH1 0x1E PUSH1 0x24 DUP3 ADD MSTORE PUSH32 0x436869206E6861207468756F63206D6F692064756F6320646174206769610000 PUSH1 0x44 DUP3 ADD MSTORE PUSH1 0x64 SWAP1 REVERT JUMPDEST CALLVALUE PUSH2 0x253 JUMPI PUSH1 0x80 CALLDATASIZE PUSH1 0x3 NOT ADD SLT PUSH2 0x253 JUMPI PUSH1 0x44 CALLDATALOAD PUSH8 0xFFFFFFFFFFFFFFFF DUP2 GT PUSH2 0x253 JUMPI PUSH2 0x89B SWAP1 CALLDATASIZE SWAP1 PUSH1 0x4 ADD PUSH2 0xDBB JUMP JUMPDEST PUSH1 0x64 CALLDATALOAD PUSH8 0xFFFFFFFFFFFFFFFF DUP2 GT PUSH2 0x253 JUMPI PUSH2 0x8BB SWAP1 CALLDATASIZE SWAP1 PUSH1 0x4 ADD PUSH2 0xDBB JUMP JUMPDEST PUSH1 0x4 CALLDATALOAD PUSH1 0x0 SWAP1 DUP2 MSTORE PUSH1 0x1 PUSH1 0x20 MSTORE PUSH1 0x40 SWAP1 KECCAK256 PUSH1 0x3 ADD SLOAD PUSH1 0x1 PUSH1 0x1 PUSH1 0xA0 SHL SUB AND PUSH2 0xD37 JUMPI PUSH1 0x24 CALLDATALOAD ISZERO PUSH2 0xCF2 JUMPI PUSH1 0x40 MLOAD PUSH2 0x8F1 DUP2 PUSH2 0xD7C JUMP JUMPDEST PUSH1 0x4 CALLDATALOAD DUP2 MSTORE DUP3 PUSH1 0x20 DUP3 ADD MSTORE DUP2 PUSH1 0x40 DUP3 ADD MSTORE CALLER PUSH1 0x60 DUP3 ADD MSTORE PUSH1 0x0 PUSH1 0x80 DUP3 ADD MSTORE PUSH1 0x0 PUSH1 0xA0 DUP3 ADD MSTORE PUSH1 0x24 CALLDATALOAD PUSH1 0xC0 DUP3 ADD MSTORE PUSH1 0x0 PUSH1 0xE0 DUP3 ADD MSTORE PUSH1 0x1 PUSH2 0x100 DUP3 ADD MSTORE PUSH1 0x0 PUSH2 0x120 DUP3 ADD MSTORE PUSH1 0x0 PUSH2 0x140 DUP3 ADD MSTORE PUSH1 0x4 CALLDATALOAD PUSH1 0x0 MSTORE PUSH1 0x1 PUSH1 0x20 MSTORE PUSH1 0x40 PUSH1 0x0 KECCAK256 DUP2 MLOAD DUP2 SSTORE PUSH1 0x20 DUP3 ADD MLOAD DUP1 MLOAD SWAP1 PUSH8 0xFFFFFFFFFFFFFFFF DUP3 GT PUSH2 0xC0C JUMPI DUP2 SWAP1 PUSH2 0x977 PUSH1 0x1 DUP6 ADD SLOAD PUSH2 0xE12 JUMP JUMPDEST PUSH1 0x1F DUP2 GT PUSH2 0xC9F JUMPI JUMPDEST POP PUSH1 0x20 SWAP1 PUSH1 0x1F DUP4 GT PUSH1 0x1 EQ PUSH2 0xC2D JUMPI PUSH1 0x0 SWAP3 PUSH2 0xC22 JUMPI JUMPDEST POP POP DUP2 PUSH1 0x1 SHL SWAP2 PUSH1 0x0 NOT SWAP1 PUSH1 0x3 SHL SHR NOT AND OR PUSH1 0x1 DUP3 ADD SSTORE JUMPDEST PUSH1 0x40 DUP3 ADD MLOAD DUP1 MLOAD SWAP1 PUSH8 0xFFFFFFFFFFFFFFFF DUP3 GT PUSH2 0xC0C JUMPI PUSH2 0x9D3 PUSH1 0x2 DUP5 ADD SLOAD PUSH2 0xE12 JUMP JUMPDEST PUSH1 0x1F DUP2 GT PUSH2 0xBC5 JUMPI JUMPDEST POP PUSH1 0x20 SWAP1 PUSH1 0x1F DUP4 GT PUSH1 0x1 EQ PUSH2 0xB28 JUMPI PUSH2 0xB12 SWAP4 DUP4 PUSH2 0xB04 SWAP8 SWAP5 PUSH32 0x1363D0722B7228EA71C6DEC2340D69DCEB211781259722006A28F192B678B99 SWAP10 SWAP8 SWAP5 PUSH1 0x8 SWAP5 PUSH1 0x0 SWAP3 PUSH2 0xB1D JUMPI JUMPDEST POP POP DUP2 PUSH1 0x1 SHL SWAP2 PUSH1 0x0 NOT SWAP1 PUSH1 0x3 SHL SHR NOT AND OR PUSH1 0x2 DUP3 ADD SSTORE JUMPDEST PUSH1 0x3 DUP2 ADD PUSH1 0x1 DUP1 PUSH1 0xA0 SHL SUB PUSH1 0x60 DUP6 ADD MLOAD AND SWAP1 PUSH12 0xFFFFFFFFFFFFFFFFFFFFFFFF PUSH1 0xA0 SHL SWAP2 DUP3 DUP3 SLOAD AND OR SWAP1 SSTORE PUSH1 0x4 DUP3 ADD PUSH1 0x1 DUP1 PUSH1 0xA0 SHL SUB PUSH1 0x80 DUP7 ADD MLOAD AND DUP3 DUP3 SLOAD AND OR SWAP1 SSTORE PUSH1 0x5 DUP3 ADD SWAP1 PUSH1 0x1 DUP1 PUSH1 0xA0 SHL SUB PUSH1 0xA0 DUP7 ADD MLOAD AND SWAP1 DUP3 SLOAD AND OR SWAP1 SSTORE PUSH1 0xC0 DUP4 ADD MLOAD PUSH1 0x6 DUP3 ADD SSTORE PUSH1 0xE0 DUP4 ADD MLOAD PUSH1 0x7 DUP3 ADD SSTORE ADD SWAP1 PUSH2 0x100 DUP2 ADD MLOAD ISZERO ISZERO SWAP1 PUSH2 0xFF00 DUP4 SLOAD PUSH1 0xFF PUSH3 0xFF0000 PUSH2 0x140 PUSH2 0x120 DUP7 ADD MLOAD ISZERO ISZERO PUSH1 0x8 SHL SWAP6 ADD MLOAD ISZERO ISZERO PUSH1 0x10 SHL AND SWAP5 AND SWAP1 PUSH3 0xFFFFFF NOT AND OR SWAP2 AND OR OR SWAP1 SSTORE PUSH1 0x40 MLOAD SWAP4 DUP5 SWAP4 PUSH1 0x4 CALLDATALOAD DUP6 MSTORE PUSH1 0x80 PUSH1 0x20 DUP7 ADD MSTORE PUSH1 0x80 DUP6 ADD SWAP1 PUSH2 0xEF2 JUMP JUMPDEST SWAP1 DUP4 DUP3 SUB PUSH1 0x40 DUP6 ADD MSTORE PUSH2 0xEF2 JUMP JUMPDEST CALLER PUSH1 0x60 DUP4 ADD MSTORE SUB SWAP1 LOG1 STOP JUMPDEST ADD MLOAD SWAP1 POP DUP11 DUP1 PUSH2 0xA24 JUMP JUMPDEST SWAP1 PUSH1 0x2 DUP5 ADD PUSH1 0x0 MSTORE PUSH1 0x20 PUSH1 0x0 KECCAK256 SWAP2 PUSH1 0x0 JUMPDEST PUSH1 0x1F NOT DUP6 AND DUP2 LT PUSH2 0xBAD JUMPI POP SWAP4 PUSH1 0x1 DUP5 PUSH32 0x1363D0722B7228EA71C6DEC2340D69DCEB211781259722006A28F192B678B99 SWAP10 SWAP8 SWAP5 PUSH1 0x8 SWAP5 PUSH2 0xB12 SWAP9 PUSH2 0xB04 SWAP12 SWAP9 PUSH1 0x1F NOT DUP2 AND LT PUSH2 0xB94 JUMPI JUMPDEST POP POP POP DUP2 SHL ADD PUSH1 0x2 DUP3 ADD SSTORE PUSH2 0xA3C JUMP JUMPDEST ADD MLOAD PUSH1 0x0 NOT PUSH1 0xF8 DUP5 PUSH1 0x3 SHL AND SHR NOT AND SWAP1 SSTORE DUP11 DUP1 DUP1 PUSH2 0xB84 JUMP JUMPDEST SWAP2 SWAP3 PUSH1 0x20 PUSH1 0x1 DUP2 SWAP3 DUP7 DUP6 ADD MLOAD DUP2 SSTORE ADD SWAP5 ADD SWAP3 ADD PUSH2 0xB39 JUMP JUMPDEST PUSH1 0x2 DUP5 ADD PUSH1 0x0 MSTORE PUSH1 0x20 PUSH1 0x0 KECCAK256 PUSH1 0x1F DUP5 ADD PUSH1 0x5 SHR DUP2 ADD PUSH1 0x20 DUP6 LT PUSH2 0xC05 JUMPI JUMPDEST PUSH1 0x1F DUP4 ADD PUSH1 0x5 SHR DUP3 ADD DUP2 LT PUSH2 0xBF9 JUMPI POP POP PUSH2 0x9DC JUMP JUMPDEST PUSH1 0x0 DUP2 SSTORE PUSH1 0x1 ADD PUSH2 0xBE3 JUMP JUMPDEST POP DUP1 PUSH2 0xBE3 JUMP JUMPDEST PUSH4 0x4E487B71 PUSH1 0xE0 SHL PUSH1 0x0 MSTORE PUSH1 0x41 PUSH1 0x4 MSTORE PUSH1 0x24 PUSH1 0x0 REVERT JUMPDEST ADD MLOAD SWAP1 POP DUP7 DUP1 PUSH2 0x997 JUMP JUMPDEST SWAP3 POP PUSH1 0x1 DUP5 ADD PUSH1 0x0 MSTORE PUSH1 0x20 PUSH1 0x0 KECCAK256 SWAP1 PUSH1 0x0 SWAP4 JUMPDEST PUSH1 0x1F NOT DUP5 AND DUP6 LT PUSH2 0xC84 JUMPI PUSH1 0x1 SWAP5 POP DUP4 PUSH1 0x1F NOT DUP2 AND LT PUSH2 0xC6B JUMPI JUMPDEST POP POP POP DUP2 SHL ADD PUSH1 0x1 DUP3 ADD SSTORE PUSH2 0x9AF JUMP JUMPDEST ADD MLOAD PUSH1 0x0 NOT PUSH1 0xF8 DUP5 PUSH1 0x3 SHL AND SHR NOT AND SWAP1 SSTORE DUP7 DUP1 DUP1 PUSH2 0xC5B JUMP JUMPDEST DUP2 DUP2 ADD MLOAD DUP4 SSTORE PUSH1 0x20 SWAP5 DUP6 ADD SWAP5 PUSH1 0x1 SWAP1 SWAP4 ADD SWAP3 SWAP1 SWAP2 ADD SWAP1 PUSH2 0xC40 JUMP JUMPDEST SWAP1 SWAP2 POP PUSH1 0x1 DUP5 ADD PUSH1 0x0 MSTORE PUSH1 0x20 PUSH1 0x0 KECCAK256 PUSH1 0x1F DUP5 ADD PUSH1 0x5 SHR DUP2 ADD PUSH1 0x20 DUP6 LT PUSH2 0xCEB JUMPI JUMPDEST SWAP1 DUP5 SWAP4 SWAP3 SWAP2 JUMPDEST PUSH1 0x1F DUP4 ADD PUSH1 0x5 SHR DUP3 ADD DUP2 LT PUSH2 0xCDC JUMPI POP POP PUSH2 0x980 JUMP JUMPDEST PUSH1 0x0 DUP2 SSTORE DUP6 SWAP5 POP PUSH1 0x1 ADD PUSH2 0xCC6 JUMP JUMPDEST POP DUP1 PUSH2 0xCC0 JUMP JUMPDEST PUSH1 0x40 MLOAD PUSH3 0x461BCD PUSH1 0xE5 SHL DUP2 MSTORE PUSH1 0x20 PUSH1 0x4 DUP3 ADD MSTORE PUSH1 0x19 PUSH1 0x24 DUP3 ADD MSTORE PUSH32 0x4769612062616E2073692070686169206C6F6E20686F6E203000000000000000 PUSH1 0x44 DUP3 ADD MSTORE PUSH1 0x64 SWAP1 REVERT JUMPDEST PUSH1 0x40 MLOAD PUSH3 0x461BCD PUSH1 0xE5 SHL DUP2 MSTORE PUSH1 0x20 PUSH1 0x4 DUP3 ADD MSTORE PUSH1 0x1F PUSH1 0x24 DUP3 ADD MSTORE PUSH32 0x49442073616E207068616D206E61792064612064756F632064616E67206B7900 PUSH1 0x44 DUP3 ADD MSTORE PUSH1 0x64 SWAP1 REVERT JUMPDEST PUSH2 0x160 DUP2 ADD SWAP1 DUP2 LT PUSH8 0xFFFFFFFFFFFFFFFF DUP3 GT OR PUSH2 0xC0C JUMPI PUSH1 0x40 MSTORE JUMP JUMPDEST SWAP1 PUSH1 0x1F DUP1 NOT SWAP2 ADD AND DUP2 ADD SWAP1 DUP2 LT PUSH8 0xFFFFFFFFFFFFFFFF DUP3 GT OR PUSH2 0xC0C JUMPI PUSH1 0x40 MSTORE JUMP JUMPDEST DUP2 PUSH1 0x1F DUP3 ADD SLT ISZERO PUSH2 0x253 JUMPI DUP1 CALLDATALOAD SWAP1 PUSH8 0xFFFFFFFFFFFFFFFF DUP3 GT PUSH2 0xC0C JUMPI PUSH1 0x40 MLOAD SWAP3 PUSH2 0xDF0 PUSH1 0x1F DUP5 ADD PUSH1 0x1F NOT AND PUSH1 0x20 ADD DUP6 PUSH2 0xD99 JUMP JUMPDEST DUP3 DUP5 MSTORE PUSH1 0x20 DUP4 DUP4 ADD ADD GT PUSH2 0x253 JUMPI DUP2 PUSH1 0x0 SWAP3 PUSH1 0x20 DUP1 SWAP4 ADD DUP4 DUP7 ADD CALLDATACOPY DUP4 ADD ADD MSTORE SWAP1 JUMP JUMPDEST SWAP1 PUSH1 0x1 DUP3 DUP2 SHR SWAP3 AND DUP1 ISZERO PUSH2 0xE42 JUMPI JUMPDEST PUSH1 0x20 DUP4 LT EQ PUSH2 0xE2C JUMPI JUMP JUMPDEST PUSH4 0x4E487B71 PUSH1 0xE0 SHL PUSH1 0x0 MSTORE PUSH1 0x22 PUSH1 0x4 MSTORE PUSH1 0x24 PUSH1 0x0 REVERT JUMPDEST SWAP2 PUSH1 0x7F AND SWAP2 PUSH2 0xE21 JUMP JUMPDEST SWAP1 PUSH1 0x40 MLOAD SWAP2 DUP3 PUSH1 0x0 DUP3 SLOAD SWAP3 PUSH2 0xE60 DUP5 PUSH2 0xE12 JUMP JUMPDEST SWAP1 DUP2 DUP5 MSTORE PUSH1 0x1 SWAP5 DUP6 DUP2 AND SWAP1 DUP2 PUSH1 0x0 EQ PUSH2 0xECF JUMPI POP PUSH1 0x1 EQ PUSH2 0xE8C JUMPI JUMPDEST POP POP PUSH2 0xE8A SWAP3 POP SUB DUP4 PUSH2 0xD99 JUMP JUMPDEST JUMP JUMPDEST SWAP1 SWAP4 SWAP2 POP PUSH1 0x0 MSTORE PUSH1 0x20 SWAP1 DUP2 PUSH1 0x0 KECCAK256 SWAP4 PUSH1 0x0 SWAP2 JUMPDEST DUP2 DUP4 LT PUSH2 0xEB7 JUMPI POP POP PUSH2 0xE8A SWAP4 POP DUP3 ADD ADD CODESIZE DUP1 PUSH2 0xE7C JUMP JUMPDEST DUP6 SLOAD DUP9 DUP5 ADD DUP6 ADD MSTORE SWAP5 DUP6 ADD SWAP5 DUP8 SWAP5 POP SWAP2 DUP4 ADD SWAP2 PUSH2 0xE9F JUMP JUMPDEST SWAP2 POP POP PUSH2 0xE8A SWAP5 POP PUSH1 0x20 SWAP3 POP PUSH1 0xFF NOT AND DUP3 DUP5 ADD MSTORE ISZERO ISZERO PUSH1 0x5 SHL DUP3 ADD ADD CODESIZE DUP1 PUSH2 0xE7C JUMP JUMPDEST SWAP2 SWAP1 DUP3 MLOAD SWAP3 DUP4 DUP3 MSTORE PUSH1 0x0 JUMPDEST DUP5 DUP2 LT PUSH2 0xF1E JUMPI POP POP DUP3 PUSH1 0x0 PUSH1 0x20 DUP1 SWAP5 SWAP6 DUP5 ADD ADD MSTORE PUSH1 0x1F DUP1 NOT SWAP2 ADD AND ADD ADD SWAP1 JUMP JUMPDEST PUSH1 0x20 DUP2 DUP4 ADD DUP2 ADD MLOAD DUP5 DUP4 ADD DUP3 ADD MSTORE ADD PUSH2 0xEFD JUMP JUMPDEST PUSH1 0x0 SLOAD PUSH1 0x1 PUSH1 0x1 PUSH1 0xA0 SHL SUB AND CALLER SUB PUSH2 0xF46 JUMPI JUMP JUMPDEST PUSH1 0x40 MLOAD PUSH4 0x118CDAA7 PUSH1 0xE0 SHL DUP2 MSTORE CALLER PUSH1 0x4 DUP3 ADD MSTORE PUSH1 0x24 SWAP1 REVERT JUMPDEST ISZERO PUSH2 0xF65 JUMPI JUMP JUMPDEST PUSH1 0x40 MLOAD PUSH3 0x461BCD PUSH1 0xE5 SHL DUP2 MSTORE PUSH1 0x20 PUSH1 0x4 DUP3 ADD MSTORE PUSH1 0x13 PUSH1 0x24 DUP3 ADD MSTORE PUSH19 0x53616920736F207469656E206775692076616F PUSH1 0x68 SHL PUSH1 0x44 DUP3 ADD MSTORE PUSH1 0x64 SWAP1 REVERT INVALID LOG2 PUSH5 0x6970667358 0x22 SLT KECCAK256 0xAD PUSH30 0x921F58E6F4162651B93058F41186AC4E140BDE4F021378A4BB3018F6E0F9 PUSH5 0x736F6C6343 STOP ADDMOD EQ STOP CALLER "},"methodIdentifiers":{"danhSachThuoc(uint256)":"3e46ce01","datGiaBanLe(uint256,uint256)":"21613afe","muaChoNhaThuoc(uint256)":"37255ff1","muaTuNguoiTieuDung(uint256)":"72a0864a","owner()":"8da5cb5b","renounceOwnership()":"715018a6","transferOwnership(address)":"f2fde38b","xacThucNguonGoc(uint256,uint256,string,string)":"04fa750b","xemThongTinThuoc(uint256)":"f5b4cbb6"}}}}}