{"contracts/quanLiThuoc.sol":{"QuanLyThuoc":{"abi":[{"inputs":[],"stateMutability":"nonpayable","type":"constructor"},{"inputs":[{"internalType":"address","name":"owner","type":"address"}],"name":"OwnableInvalidOwner","type":"error"},{"inputs":[{"internalType":"address","name":"account","type":"address"}],"name":"OwnableUnauthorizedAccount","type":"error"},{"anonymous":false,"inputs":[{"indexed":false,"internalType":"uint256","name":"id","type":"uint256"},{"indexed":false,"internalType":"address","name":"nguoiDung","type":"address"},{"indexed":false,"internalType":"uint256","name":"gia","type":"uint256"}],"name":"BanChoNguoiDung","type":"event"},{"anonymous":false,"inputs":[{"indexed":false,"internalType":"uint256","name":"id","type":"uint256"},{"indexed":false,"internalType":"address","name":"nhaThuoc","type":"address"},{"indexed":false,"internalType":"uint256","name":"gia","type":"uint256"}],"name":"BanChoNhaThuoc","type":"event"},{"anonymous":false,"inputs":[{"indexed":true,"internalType":"address","name":"previousOwner","type":"address"},{"indexed":true,"internalType":"address","name":"newOwner","type":"address"}],"name":"OwnershipTransferred","type":"event"},{"anonymous":false,"inputs":[{"indexed":false,"internalType":"uint256","name":"id","type":"uint256"},{"indexed":false,"internalType":"string","name":"nguonGoc","type":"string"},{"indexed":false,"internalType":"string","name":"ipfsHash","type":"string"},{"indexed":false,"internalType":"address","name":"nhaPhanPhoi","type":"address"}],"name":"XacThucNguonGoc","type":"event"},{"inputs":[{"internalType":"uint256","name":"","type":"uint256"}],"name":"danhSachThuoc","outputs":[{"internalType":"uint256","name":"id","type":"uint256"},{"internalType":"string","name":"nguonGoc","type":"string"},{"internalType":"string","name":"ipfsHash","type":"string"},{"internalType":"address","name":"nhaPhanPhoi","type":"address"},{"internalType":"address","name":"nhaThuoc","type":"address"},{"internalType":"uint256","name":"giaBanSi","type":"uint256"},{"internalType":"uint256","name":"giaBanLe","type":"uint256"},{"internalType":"uint256","name":"soLuong","type":"uint256"},{"internalType":"bool","name":"duocXacThuc","type":"bool"},{"internalType":"bool","name":"daBanChoNhaThuoc","type":"bool"}],"stateMutability":"view","type":"function"},{"inputs":[{"internalType":"uint256","name":"id","type":"uint256"},{"internalType":"uint256","name":"giaBanLe","type":"uint256"}],"name":"datGiaBanLe","outputs":[],"stateMutability":"nonpayable","type":"function"},{"inputs":[{"internalType":"uint256","name":"id","type":"uint256"}],"name":"muaChoNguoiDung","outputs":[],"stateMutability":"payable","type":"function"},{"inputs":[{"internalType":"uint256","name":"id","type":"uint256"}],"name":"muaChoNhaThuoc","outputs":[],"stateMutability":"payable","type":"function"},{"inputs":[],"name":"owner","outputs":[{"internalType":"address","name":"","type":"address"}],"stateMutability":"view","type":"function"},{"inputs":[],"name":"renounceOwnership","outputs":[],"stateMutability":"nonpayable","type":"function"},{"inputs":[{"internalType":"address","name":"newOwner","type":"address"}],"name":"transferOwnership","outputs":[],"stateMutability":"nonpayable","type":"function"},{"inputs":[{"internalType":"uint256","name":"id","type":"uint256"},{"internalType":"uint256","name":"giaBanSi","type":"uint256"},{"internalType":"string","name":"nguonGoc","type":"string"},{"internalType":"string","name":"ipfsHash","type":"string"}],"name":"xacThucNguonGoc","outputs":[],"stateMutability":"nonpayable","type":"function"},{"inputs":[{"internalType":"uint256","name":"id","type":"uint256"}],"name":"xemThongTinThuoc","outputs":[{"components":[{"internalType":"uint256","name":"id","type":"uint256"},{"internalType":"string","name":"nguonGoc","type":"string"},{"internalType":"string","name":"ipfsHash","type":"string"},{"internalType":"address","name":"nhaPhanPhoi","type":"address"},{"internalType":"address","name":"nhaThuoc","type":"address"},{"internalType":"uint256","name":"giaBanSi","type":"uint256"},{"internalType":"uint256","name":"giaBanLe","type":"uint256"},{"internalType":"uint256","name":"soLuong","type":"uint256"},{"internalType":"bool","name":"duocXacThuc","type":"bool"},{"internalType":"bool","name":"daBanChoNhaThuoc","type":"bool"}],"internalType":"struct QuanLyThuoc.Thuoc","name":"","type":"tuple"}],"stateMutability":"view","type":"function"}],"evm":{"bytecode":{"linkReferences":{},"object":"6080806040523461007a5733156100645760008054336001600160a01b03198216811783556040519290916001600160a01b0316907f8be0079c531659141344cd1fd0a4f28419497f9722a3daafe3b4186f6b6457e09080a3610e1a90816100808239f35b631e4fbdf760e01b815260006004820152602490fd5b600080fdfe6080604052600436101561001257600080fd5b60003560e01c806304fa750b146106ef57806321613afe146105b1578063248bbb211461051b57806337255ff1146104055780633e46ce0114610337578063715018a6146102de5780638da5cb5b146102b5578063f2fde38b146102255763f5b4cbb61461007f57600080fd5b346102205760203660031901126102205760006101206040516100a181610bc8565b82815260606020820152606060408201528260608201528260808201528260a08201528260c08201528260e08201528261010082015201526004356000526001602052604060002060ff6008604051926100fa84610bc8565b8054845261010a60018201610c98565b602085015261011b60028201610c98565b604085015260018060a01b03600382015416606085015260018060a01b036004820154166080850152600581015460a0850152600681015460c0850152600781015460e08501520154818116151561010084015260081c1615156101208201526040518091602082528051602083015260208101516101206101c46101ae61014093846040880152610160870190610d3e565b6040850151868203601f19016060880152610d3e565b9260018060a01b03606082015116608086015260018060a01b0360808201511660a086015260a081015160c086015260c081015160e086015260e081015161010086015261010081015115158286015201511515908301520390f35b600080fd5b34610220576020366003190112610220576004356001600160a01b038181169182900361022057610254610d7e565b811561029c57600054826bffffffffffffffffffffffff60a01b821617600055167f8be0079c531659141344cd1fd0a4f28419497f9722a3daafe3b4186f6b6457e0600080a3005b604051631e4fbdf760e01b815260006004820152602490fd5b34610220576000366003190112610220576000546040516001600160a01b039091168152602090f35b34610220576000366003190112610220576102f7610d7e565b600080546001600160a01b0319811682556001600160a01b03167f8be0079c531659141344cd1fd0a4f28419497f9722a3daafe3b4186f6b6457e08280a3005b346102205760203660031901126102205760043560005260016020526040600020805461036660018301610c98565b9160ff61037560028301610c98565b60018060a01b0392836003820154169360048201541660058201546006830154916103d060086007860154950154956103c26040519b8c9b8c5260208c61014091829101528c0190610d3e565b908a820360408c0152610d3e565b966060890152608088015260a087015260c086015260e0850152818116151561010085015260081c1615156101208301520390f35b602036600319011261022057600435600081815260016020526040902060038101546001600160a01b031680156104dd5760008080809361044b60058701543414610daa565b819034156104d3575b3491f1156104c7576004810180546001600160a01b03191633908117909155600891909101805461ff00191661010017905560408051928352602083019190915234908201527f611230459d201537690850d6b63906177318ad11725ecf242a03a4bcc99f10949080606081015b0390a1005b6040513d6000823e3d90fd5b6108fc9150610454565b60405162461bcd60e51b815260206004820152601660248201527553616e207068616d206b686f6e6720746f6e2074616960501b6044820152606490fd5b60203660031901126102205760043580600052600160205260008080806040812061054b60058201543414610daa565b6004015481906001600160a01b031634156105a7575b3491f1156104c7576040805191825233602083015234908201527fd863263f532b0593ce273f93d57f099c58124e976988dcc30729aa9c2d7f32e69080606081016104c2565b6108fc9150610561565b34610220576040366003190112610220576024356004356000526001602052604060002060018060a01b0360048201541633036106aa5760ff600882015460081c161561065a57600581015482111561060a5760060155005b60405162461bcd60e51b815260206004820152602260248201527f4769612062616e206c652070686169206c6f6e20686f6e206769612062616e20604482015261736960f01b6064820152608490fd5b60405162461bcd60e51b815260206004820152602260248201527f5468756f6320636875612064756f63206d75612074752064697374726962757460448201526137b960f11b6064820152608490fd5b60405162461bcd60e51b815260206004820152601e60248201527f436869206e6861207468756f63206d6f692064756f63206461742067696100006044820152606490fd5b346102205760803660031901126102205760443567ffffffffffffffff811161022057610720903690600401610c07565b60643567ffffffffffffffff811161022057610740903690600401610c07565b6004356000908152600160205260409020600301546001600160a01b0316610b935760243515610b4e5760405161077681610bc8565b60043581528260208201528160408201523360608201526000608082015260243560a0820152600060c0820152600060e0820152600161010082015260006101208201526004356000526001602052604060002081518155602082015180519067ffffffffffffffff8211610a685781906107f46001850154610c5e565b601f8111610afb575b50602090601f8311600114610a8957600092610a7e575b50508160011b916000199060031b1c19161760018201555b604082015180519067ffffffffffffffff8211610a68576108506002840154610c5e565b601f8111610a21575b50602090601f83116001146109845761096e938361096097947f01363d0722b7228ea71c6dec2340d69dceb211781259722006a28f192b678b99999794600894600092610979575b50508160011b916000199060031b1c19161760028201555b6003810160018060a01b03606085015116906bffffffffffffffffffffffff60a01b9182825416179055600482019060018060a01b036080860151169082541617905560a0830151600582015560c0830151600682015560e08301516007820155019061010081015115159060ff61ff006101208554930151151560081b1692169061ffff1916171790556040519384936004358552608060208601526080850190610d3e565b908382036040850152610d3e565b3360608301520390a1005b015190508a806108a1565b906002840160005260206000209160005b601f1985168110610a095750936001847f01363d0722b7228ea71c6dec2340d69dceb211781259722006a28f192b678b9999979460089461096e986109609b98601f198116106109f0575b505050811b0160028201556108b9565b015160001960f88460031b161c191690558a80806109e0565b91926020600181928685015181550194019201610995565b600284016000526020600020601f840160051c810160208510610a61575b601f830160051c82018110610a55575050610859565b60008155600101610a3f565b5080610a3f565b634e487b7160e01b600052604160045260246000fd5b015190508680610814565b9250600184016000526020600020906000935b601f1984168510610ae0576001945083601f19811610610ac7575b505050811b01600182015561082c565b015160001960f88460031b161c19169055868080610ab7565b81810151835560209485019460019093019290910190610a9c565b909150600184016000526020600020601f840160051c810160208510610b47575b90849392915b601f830160051c82018110610b385750506107fd565b60008155859450600101610b22565b5080610b1c565b60405162461bcd60e51b815260206004820152601960248201527f4769612062616e2073692070686169206c6f6e20686f6e2030000000000000006044820152606490fd5b60405162461bcd60e51b815260206004820152600d60248201526c494420646120746f6e2074616960981b6044820152606490fd5b610140810190811067ffffffffffffffff821117610a6857604052565b90601f8019910116810190811067ffffffffffffffff821117610a6857604052565b81601f820112156102205780359067ffffffffffffffff8211610a685760405192610c3c601f8401601f191660200185610be5565b8284526020838301011161022057816000926020809301838601378301015290565b90600182811c92168015610c8e575b6020831014610c7857565b634e487b7160e01b600052602260045260246000fd5b91607f1691610c6d565b9060405191826000825492610cac84610c5e565b908184526001948581169081600014610d1b5750600114610cd8575b5050610cd692500383610be5565b565b9093915060005260209081600020936000915b818310610d03575050610cd693508201013880610cc8565b85548884018501529485019487945091830191610ceb565b915050610cd694506020925060ff191682840152151560051b8201013880610cc8565b919082519283825260005b848110610d6a575050826000602080949584010152601f8019910116010190565b602081830181015184830182015201610d49565b6000546001600160a01b03163303610d9257565b60405163118cdaa760e01b8152336004820152602490fd5b15610db157565b60405162461bcd60e51b815260206004820152600b60248201526a29b0b49039b7903a34b2b760a91b6044820152606490fdfea2646970667358221220824ae99b41f67b0eb380116cd453ad0bafe6949b4df971f826516c66366c68c564736f6c63430008140033","opcodes":"PUSH1 0x80 DUP1 PUSH1 0x40 MSTORE CALLVALUE PUSH2 0x7A JUMPI CALLER ISZERO PUSH2 0x64 JUMPI PUSH1 0x0 DUP1 SLOAD CALLER PUSH1 0x1 PUSH1 0x1 PUSH1 0xA0 SHL SUB NOT DUP3 AND DUP2 OR DUP4 SSTORE PUSH1 0x40 MLOAD SWAP3 SWAP1 SWAP2 PUSH1 0x1 PUSH1 0x1 PUSH1 0xA0 SHL SUB AND SWAP1 PUSH32 0x8BE0079C531659141344CD1FD0A4F28419497F9722A3DAAFE3B4186F6B6457E0 SWAP1 DUP1 LOG3 PUSH2 0xE1A SWAP1 DUP2 PUSH2 0x80 DUP3 CODECOPY RETURN JUMPDEST PUSH4 0x1E4FBDF7 PUSH1 0xE0 SHL DUP2 MSTORE PUSH1 0x0 PUSH1 0x4 DUP3 ADD MSTORE PUSH1 0x24 SWAP1 REVERT JUMPDEST PUSH1 0x0 DUP1 REVERT INVALID PUSH1 0x80 PUSH1 0x40 MSTORE PUSH1 0x4 CALLDATASIZE LT ISZERO PUSH2 0x12 JUMPI PUSH1 0x0 DUP1 REVERT JUMPDEST PUSH1 0x0 CALLDATALOAD PUSH1 0xE0 SHR DUP1 PUSH4 0x4FA750B EQ PUSH2 0x6EF JUMPI DUP1 PUSH4 0x21613AFE EQ PUSH2 0x5B1 JUMPI DUP1 PUSH4 0x248BBB21 EQ PUSH2 0x51B JUMPI DUP1 PUSH4 0x37255FF1 EQ PUSH2 0x405 JUMPI DUP1 PUSH4 0x3E46CE01 EQ PUSH2 0x337 JUMPI DUP1 PUSH4 0x715018A6 EQ PUSH2 0x2DE JUMPI DUP1 PUSH4 0x8DA5CB5B EQ PUSH2 0x2B5 JUMPI DUP1 PUSH4 0xF2FDE38B EQ PUSH2 0x225 JUMPI PUSH4 0xF5B4CBB6 EQ PUSH2 0x7F JUMPI PUSH1 0x0 DUP1 REVERT JUMPDEST CALLVALUE PUSH2 0x220 JUMPI PUSH1 0x20 CALLDATASIZE PUSH1 0x3 NOT ADD SLT PUSH2 0x220 JUMPI PUSH1 0x0 PUSH2 0x120 PUSH1 0x40 MLOAD PUSH2 0xA1 DUP2 PUSH2 0xBC8 JUMP JUMPDEST DUP3 DUP2 MSTORE PUSH1 0x60 PUSH1 0x20 DUP3 ADD MSTORE PUSH1 0x60 PUSH1 0x40 DUP3 ADD MSTORE DUP3 PUSH1 0x60 DUP3 ADD MSTORE DUP3 PUSH1 0x80 DUP3 ADD MSTORE DUP3 PUSH1 0xA0 DUP3 ADD MSTORE DUP3 PUSH1 0xC0 DUP3 ADD MSTORE DUP3 PUSH1 0xE0 DUP3 ADD MSTORE DUP3 PUSH2 0x100 DUP3 ADD MSTORE ADD MSTORE PUSH1 0x4 CALLDATALOAD PUSH1 0x0 MSTORE PUSH1 0x1 PUSH1 0x20 MSTORE PUSH1 0x40 PUSH1 0x0 KECCAK256 PUSH1 0xFF PUSH1 0x8 PUSH1 0x40 MLOAD SWAP3 PUSH2 0xFA DUP5 PUSH2 0xBC8 JUMP JUMPDEST DUP1 SLOAD DUP5 MSTORE PUSH2 0x10A PUSH1 0x1 DUP3 ADD PUSH2 0xC98 JUMP JUMPDEST PUSH1 0x20 DUP6 ADD MSTORE PUSH2 0x11B PUSH1 0x2 DUP3 ADD PUSH2 0xC98 JUMP JUMPDEST PUSH1 0x40 DUP6 ADD MSTORE PUSH1 0x1 DUP1 PUSH1 0xA0 SHL SUB PUSH1 0x3 DUP3 ADD SLOAD AND PUSH1 0x60 DUP6 ADD MSTORE PUSH1 0x1 DUP1 PUSH1 0xA0 SHL SUB PUSH1 0x4 DUP3 ADD SLOAD AND PUSH1 0x80 DUP6 ADD MSTORE PUSH1 0x5 DUP2 ADD SLOAD PUSH1 0xA0 DUP6 ADD MSTORE PUSH1 0x6 DUP2 ADD SLOAD PUSH1 0xC0 DUP6 ADD MSTORE PUSH1 0x7 DUP2 ADD SLOAD PUSH1 0xE0 DUP6 ADD MSTORE ADD SLOAD DUP2 DUP2 AND ISZERO ISZERO PUSH2 0x100 DUP5 ADD MSTORE PUSH1 0x8 SHR AND ISZERO ISZERO PUSH2 0x120 DUP3 ADD MSTORE PUSH1 0x40 MLOAD DUP1 SWAP2 PUSH1 0x20 DUP3 MSTORE DUP1 MLOAD PUSH1 0x20 DUP4 ADD MSTORE PUSH1 0x20 DUP2 ADD MLOAD PUSH2 0x120 PUSH2 0x1C4 PUSH2 0x1AE PUSH2 0x140 SWAP4 DUP5 PUSH1 0x40 DUP9 ADD MSTORE PUSH2 0x160 DUP8 ADD SWAP1 PUSH2 0xD3E JUMP JUMPDEST PUSH1 0x40 DUP6 ADD MLOAD DUP7 DUP3 SUB PUSH1 0x1F NOT ADD PUSH1 0x60 DUP9 ADD MSTORE PUSH2 0xD3E JUMP JUMPDEST SWAP3 PUSH1 0x1 DUP1 PUSH1 0xA0 SHL SUB PUSH1 0x60 DUP3 ADD MLOAD AND PUSH1 0x80 DUP7 ADD MSTORE PUSH1 0x1 DUP1 PUSH1 0xA0 SHL SUB PUSH1 0x80 DUP3 ADD MLOAD AND PUSH1 0xA0 DUP7 ADD MSTORE PUSH1 0xA0 DUP2 ADD MLOAD PUSH1 0xC0 DUP7 ADD MSTORE PUSH1 0xC0 DUP2 ADD MLOAD PUSH1 0xE0 DUP7 ADD MSTORE PUSH1 0xE0 DUP2 ADD MLOAD PUSH2 0x100 DUP7 ADD MSTORE PUSH2 0x100 DUP2 ADD MLOAD ISZERO ISZERO DUP3 DUP7 ADD MSTORE ADD MLOAD ISZERO ISZERO SWAP1 DUP4 ADD MSTORE SUB SWAP1 RETURN JUMPDEST PUSH1 0x0 DUP1 REVERT JUMPDEST CALLVALUE PUSH2 0x220 JUMPI PUSH1 0x20 CALLDATASIZE PUSH1 0x3 NOT ADD SLT PUSH2 0x220 JUMPI PUSH1 0x4 CALLDATALOAD PUSH1 0x1 PUSH1 0x1 PUSH1 0xA0 SHL SUB DUP2 DUP2 AND SWAP2 DUP3 SWAP1 SUB PUSH2 0x220 JUMPI PUSH2 0x254 PUSH2 0xD7E JUMP JUMPDEST DUP2 ISZERO PUSH2 0x29C JUMPI PUSH1 0x0 SLOAD DUP3 PUSH12 0xFFFFFFFFFFFFFFFFFFFFFFFF PUSH1 0xA0 SHL DUP3 AND OR PUSH1 0x0 SSTORE AND PUSH32 0x8BE0079C531659141344CD1FD0A4F28419497F9722A3DAAFE3B4186F6B6457E0 PUSH1 0x0 DUP1 LOG3 STOP JUMPDEST PUSH1 0x40 MLOAD PUSH4 0x1E4FBDF7 PUSH1 0xE0 SHL DUP2 MSTORE PUSH1 0x0 PUSH1 0x4 DUP3 ADD MSTORE PUSH1 0x24 SWAP1 REVERT JUMPDEST CALLVALUE PUSH2 0x220 JUMPI PUSH1 0x0 CALLDATASIZE PUSH1 0x3 NOT ADD SLT PUSH2 0x220 JUMPI PUSH1 0x0 SLOAD PUSH1 0x40 MLOAD PUSH1 0x1 PUSH1 0x1 PUSH1 0xA0 SHL SUB SWAP1 SWAP2 AND DUP2 MSTORE PUSH1 0x20 SWAP1 RETURN JUMPDEST CALLVALUE PUSH2 0x220 JUMPI PUSH1 0x0 CALLDATASIZE PUSH1 0x3 NOT ADD SLT PUSH2 0x220 JUMPI PUSH2 0x2F7 PUSH2 0xD7E JUMP JUMPDEST PUSH1 0x0 DUP1 SLOAD PUSH1 0x1 PUSH1 0x1 PUSH1 0xA0 SHL SUB NOT DUP2 AND DUP3 SSTORE PUSH1 0x1 PUSH1 0x1 PUSH1 0xA0 SHL SUB AND PUSH32 0x8BE0079C531659141344CD1FD0A4F28419497F9722A3DAAFE3B4186F6B6457E0 DUP3 DUP1 LOG3 STOP JUMPDEST CALLVALUE PUSH2 0x220 JUMPI PUSH1 0x20 CALLDATASIZE PUSH1 0x3 NOT ADD SLT PUSH2 0x220 JUMPI PUSH1 0x4 CALLDATALOAD PUSH1 0x0 MSTORE PUSH1 0x1 PUSH1 0x20 MSTORE PUSH1 0x40 PUSH1 0x0 KECCAK256 DUP1 SLOAD PUSH2 0x366 PUSH1 0x1 DUP4 ADD PUSH2 0xC98 JUMP JUMPDEST SWAP2 PUSH1 0xFF PUSH2 0x375 PUSH1 0x2 DUP4 ADD PUSH2 0xC98 JUMP JUMPDEST PUSH1 0x1 DUP1 PUSH1 0xA0 SHL SUB SWAP3 DUP4 PUSH1 0x3 DUP3 ADD SLOAD AND SWAP4 PUSH1 0x4 DUP3 ADD SLOAD AND PUSH1 0x5 DUP3 ADD SLOAD PUSH1 0x6 DUP4 ADD SLOAD SWAP2 PUSH2 0x3D0 PUSH1 0x8 PUSH1 0x7 DUP7 ADD SLOAD SWAP6 ADD SLOAD SWAP6 PUSH2 0x3C2 PUSH1 0x40 MLOAD SWAP12 DUP13 SWAP12 DUP13 MSTORE PUSH1 0x20 DUP13 PUSH2 0x140 SWAP2 DUP3 SWAP2 ADD MSTORE DUP13 ADD SWAP1 PUSH2 0xD3E JUMP JUMPDEST SWAP1 DUP11 DUP3 SUB PUSH1 0x40 DUP13 ADD MSTORE PUSH2 0xD3E JUMP JUMPDEST SWAP7 PUSH1 0x60 DUP10 ADD MSTORE PUSH1 0x80 DUP9 ADD MSTORE PUSH1 0xA0 DUP8 ADD MSTORE PUSH1 0xC0 DUP7 ADD MSTORE PUSH1 0xE0 DUP6 ADD MSTORE DUP2 DUP2 AND ISZERO ISZERO PUSH2 0x100 DUP6 ADD MSTORE PUSH1 0x8 SHR AND ISZERO ISZERO PUSH2 0x120 DUP4 ADD MSTORE SUB SWAP1 RETURN JUMPDEST PUSH1 0x20 CALLDATASIZE PUSH1 0x3 NOT ADD SLT PUSH2 0x220 JUMPI PUSH1 0x4 CALLDATALOAD PUSH1 0x0 DUP2 DUP2 MSTORE PUSH1 0x1 PUSH1 0x20 MSTORE PUSH1 0x40 SWAP1 KECCAK256 PUSH1 0x3 DUP2 ADD SLOAD PUSH1 0x1 PUSH1 0x1 PUSH1 0xA0 SHL SUB AND DUP1 ISZERO PUSH2 0x4DD JUMPI PUSH1 0x0 DUP1 DUP1 DUP1 SWAP4 PUSH2 0x44B PUSH1 0x5 DUP8 ADD SLOAD CALLVALUE EQ PUSH2 0xDAA JUMP JUMPDEST DUP2 SWAP1 CALLVALUE ISZERO PUSH2 0x4D3 JUMPI JUMPDEST CALLVALUE SWAP2 CALL ISZERO PUSH2 0x4C7 JUMPI PUSH1 0x4 DUP2 ADD DUP1 SLOAD PUSH1 0x1 PUSH1 0x1 PUSH1 0xA0 SHL SUB NOT AND CALLER SWAP1 DUP2 OR SWAP1 SWAP2 SSTORE PUSH1 0x8 SWAP2 SWAP1 SWAP2 ADD DUP1 SLOAD PUSH2 0xFF00 NOT AND PUSH2 0x100 OR SWAP1 SSTORE PUSH1 0x40 DUP1 MLOAD SWAP3 DUP4 MSTORE PUSH1 0x20 DUP4 ADD SWAP2 SWAP1 SWAP2 MSTORE CALLVALUE SWAP1 DUP3 ADD MSTORE PUSH32 0x611230459D201537690850D6B63906177318AD11725ECF242A03A4BCC99F1094 SWAP1 DUP1 PUSH1 0x60 DUP2 ADD JUMPDEST SUB SWAP1 LOG1 STOP JUMPDEST PUSH1 0x40 MLOAD RETURNDATASIZE PUSH1 0x0 DUP3 RETURNDATACOPY RETURNDATASIZE SWAP1 REVERT JUMPDEST PUSH2 0x8FC SWAP2 POP PUSH2 0x454 JUMP JUMPDEST PUSH1 0x40 MLOAD PUSH3 0x461BCD PUSH1 0xE5 SHL DUP2 MSTORE PUSH1 0x20 PUSH1 0x4 DUP3 ADD MSTORE PUSH1 0x16 PUSH1 0x24 DUP3 ADD MSTORE PUSH22 0x53616E207068616D206B686F6E6720746F6E20746169 PUSH1 0x50 SHL PUSH1 0x44 DUP3 ADD MSTORE PUSH1 0x64 SWAP1 REVERT JUMPDEST PUSH1 0x20 CALLDATASIZE PUSH1 0x3 NOT ADD SLT PUSH2 0x220 JUMPI PUSH1 0x4 CALLDATALOAD DUP1 PUSH1 0x0 MSTORE PUSH1 0x1 PUSH1 0x20 MSTORE PUSH1 0x0 DUP1 DUP1 DUP1 PUSH1 0x40 DUP2 KECCAK256 PUSH2 0x54B PUSH1 0x5 DUP3 ADD SLOAD CALLVALUE EQ PUSH2 0xDAA JUMP JUMPDEST PUSH1 0x4 ADD SLOAD DUP2 SWAP1 PUSH1 0x1 PUSH1 0x1 PUSH1 0xA0 SHL SUB AND CALLVALUE ISZERO PUSH2 0x5A7 JUMPI JUMPDEST CALLVALUE SWAP2 CALL ISZERO PUSH2 0x4C7 JUMPI PUSH1 0x40 DUP1 MLOAD SWAP2 DUP3 MSTORE CALLER PUSH1 0x20 DUP4 ADD MSTORE CALLVALUE SWAP1 DUP3 ADD MSTORE PUSH32 0xD863263F532B0593CE273F93D57F099C58124E976988DCC30729AA9C2D7F32E6 SWAP1 DUP1 PUSH1 0x60 DUP2 ADD PUSH2 0x4C2 JUMP JUMPDEST PUSH2 0x8FC SWAP2 POP PUSH2 0x561 JUMP JUMPDEST CALLVALUE PUSH2 0x220 JUMPI PUSH1 0x40 CALLDATASIZE PUSH1 0x3 NOT ADD SLT PUSH2 0x220 JUMPI PUSH1 0x24 CALLDATALOAD PUSH1 0x4 CALLDATALOAD PUSH1 0x0 MSTORE PUSH1 0x1 PUSH1 0x20 MSTORE PUSH1 0x40 PUSH1 0x0 KECCAK256 PUSH1 0x1 DUP1 PUSH1 0xA0 SHL SUB PUSH1 0x4 DUP3 ADD SLOAD AND CALLER SUB PUSH2 0x6AA JUMPI PUSH1 0xFF PUSH1 0x8 DUP3 ADD SLOAD PUSH1 0x8 SHR AND ISZERO PUSH2 0x65A JUMPI PUSH1 0x5 DUP2 ADD SLOAD DUP3 GT ISZERO PUSH2 0x60A JUMPI PUSH1 0x6 ADD SSTORE STOP JUMPDEST PUSH1 0x40 MLOAD PUSH3 0x461BCD PUSH1 0xE5 SHL DUP2 MSTORE PUSH1 0x20 PUSH1 0x4 DUP3 ADD MSTORE PUSH1 0x22 PUSH1 0x24 DUP3 ADD MSTORE PUSH32 0x4769612062616E206C652070686169206C6F6E20686F6E206769612062616E20 PUSH1 0x44 DUP3 ADD MSTORE PUSH2 0x7369 PUSH1 0xF0 SHL PUSH1 0x64 DUP3 ADD MSTORE PUSH1 0x84 SWAP1 REVERT JUMPDEST PUSH1 0x40 MLOAD PUSH3 0x461BCD PUSH1 0xE5 SHL DUP2 MSTORE PUSH1 0x20 PUSH1 0x4 DUP3 ADD MSTORE PUSH1 0x22 PUSH1 0x24 DUP3 ADD MSTORE PUSH32 0x5468756F6320636875612064756F63206D756120747520646973747269627574 PUSH1 0x44 DUP3 ADD MSTORE PUSH2 0x37B9 PUSH1 0xF1 SHL PUSH1 0x64 DUP3 ADD MSTORE PUSH1 0x84 SWAP1 REVERT JUMPDEST PUSH1 0x40 MLOAD PUSH3 0x461BCD PUSH1 0xE5 SHL DUP2 MSTORE PUSH1 0x20 PUSH1 0x4 DUP3 ADD MSTORE PUSH1 0x1E PUSH1 0x24 DUP3 ADD MSTORE PUSH32 0x436869206E6861207468756F63206D6F692064756F6320646174206769610000 PUSH1 0x44 DUP3 ADD MSTORE PUSH1 0x64 SWAP1 REVERT JUMPDEST CALLVALUE PUSH2 0x220 JUMPI PUSH1 0x80 CALLDATASIZE PUSH1 0x3 NOT ADD SLT PUSH2 0x220 JUMPI PUSH1 0x44 CALLDATALOAD PUSH8 0xFFFFFFFFFFFFFFFF DUP2 GT PUSH2 0x220 JUMPI PUSH2 0x720 SWAP1 CALLDATASIZE SWAP1 PUSH1 0x4 ADD PUSH2 0xC07 JUMP JUMPDEST PUSH1 0x64 CALLDATALOAD PUSH8 0xFFFFFFFFFFFFFFFF DUP2 GT PUSH2 0x220 JUMPI PUSH2 0x740 SWAP1 CALLDATASIZE SWAP1 PUSH1 0x4 ADD PUSH2 0xC07 JUMP JUMPDEST PUSH1 0x4 CALLDATALOAD PUSH1 0x0 SWAP1 DUP2 MSTORE PUSH1 0x1 PUSH1 0x20 MSTORE PUSH1 0x40 SWAP1 KECCAK256 PUSH1 0x3 ADD SLOAD PUSH1 0x1 PUSH1 0x1 PUSH1 0xA0 SHL SUB AND PUSH2 0xB93 JUMPI PUSH1 0x24 CALLDATALOAD ISZERO PUSH2 0xB4E JUMPI PUSH1 0x40 MLOAD PUSH2 0x776 DUP2 PUSH2 0xBC8 JUMP JUMPDEST PUSH1 0x4 CALLDATALOAD DUP2 MSTORE DUP3 PUSH1 0x20 DUP3 ADD MSTORE DUP2 PUSH1 0x40 DUP3 ADD MSTORE CALLER PUSH1 0x60 DUP3 ADD MSTORE PUSH1 0x0 PUSH1 0x80 DUP3 ADD MSTORE PUSH1 0x24 CALLDATALOAD PUSH1 0xA0 DUP3 ADD MSTORE PUSH1 0x0 PUSH1 0xC0 DUP3 ADD MSTORE PUSH1 0x0 PUSH1 0xE0 DUP3 ADD MSTORE PUSH1 0x1 PUSH2 0x100 DUP3 ADD MSTORE PUSH1 0x0 PUSH2 0x120 DUP3 ADD MSTORE PUSH1 0x4 CALLDATALOAD PUSH1 0x0 MSTORE PUSH1 0x1 PUSH1 0x20 MSTORE PUSH1 0x40 PUSH1 0x0 KECCAK256 DUP2 MLOAD DUP2 SSTORE PUSH1 0x20 DUP3 ADD MLOAD DUP1 MLOAD SWAP1 PUSH8 0xFFFFFFFFFFFFFFFF DUP3 GT PUSH2 0xA68 JUMPI DUP2 SWAP1 PUSH2 0x7F4 PUSH1 0x1 DUP6 ADD SLOAD PUSH2 0xC5E JUMP JUMPDEST PUSH1 0x1F DUP2 GT PUSH2 0xAFB JUMPI JUMPDEST POP PUSH1 0x20 SWAP1 PUSH1 0x1F DUP4 GT PUSH1 0x1 EQ PUSH2 0xA89 JUMPI PUSH1 0x0 SWAP3 PUSH2 0xA7E JUMPI JUMPDEST POP POP DUP2 PUSH1 0x1 SHL SWAP2 PUSH1 0x0 NOT SWAP1 PUSH1 0x3 SHL SHR NOT AND OR PUSH1 0x1 DUP3 ADD SSTORE JUMPDEST PUSH1 0x40 DUP3 ADD MLOAD DUP1 MLOAD SWAP1 PUSH8 0xFFFFFFFFFFFFFFFF DUP3 GT PUSH2 0xA68 JUMPI PUSH2 0x850 PUSH1 0x2 DUP5 ADD SLOAD PUSH2 0xC5E JUMP JUMPDEST PUSH1 0x1F DUP2 GT PUSH2 0xA21 JUMPI JUMPDEST POP PUSH1 0x20 SWAP1 PUSH1 0x1F DUP4 GT PUSH1 0x1 EQ PUSH2 0x984 JUMPI PUSH2 0x96E SWAP4 DUP4 PUSH2 0x960 SWAP8 SWAP5 PUSH32 0x1363D0722B7228EA71C6DEC2340D69DCEB211781259722006A28F192B678B99 SWAP10 SWAP8 SWAP5 PUSH1 0x8 SWAP5 PUSH1 0x0 SWAP3 PUSH2 0x979 JUMPI JUMPDEST POP POP DUP2 PUSH1 0x1 SHL SWAP2 PUSH1 0x0 NOT SWAP1 PUSH1 0x3 SHL SHR NOT AND OR PUSH1 0x2 DUP3 ADD SSTORE JUMPDEST PUSH1 0x3 DUP2 ADD PUSH1 0x1 DUP1 PUSH1 0xA0 SHL SUB PUSH1 0x60 DUP6 ADD MLOAD AND SWAP1 PUSH12 0xFFFFFFFFFFFFFFFFFFFFFFFF PUSH1 0xA0 SHL SWAP2 DUP3 DUP3 SLOAD AND OR SWAP1 SSTORE PUSH1 0x4 DUP3 ADD SWAP1 PUSH1 0x1 DUP1 PUSH1 0xA0 SHL SUB PUSH1 0x80 DUP7 ADD MLOAD AND SWAP1 DUP3 SLOAD AND OR SWAP1 SSTORE PUSH1 0xA0 DUP4 ADD MLOAD PUSH1 0x5 DUP3 ADD SSTORE PUSH1 0xC0 DUP4 ADD MLOAD PUSH1 0x6 DUP3 ADD SSTORE PUSH1 0xE0 DUP4 ADD MLOAD PUSH1 0x7 DUP3 ADD SSTORE ADD SWAP1 PUSH2 0x100 DUP2 ADD MLOAD ISZERO ISZERO SWAP1 PUSH1 0xFF PUSH2 0xFF00 PUSH2 0x120 DUP6 SLOAD SWAP4 ADD MLOAD ISZERO ISZERO PUSH1 0x8 SHL AND SWAP3 AND SWAP1 PUSH2 0xFFFF NOT AND OR OR SWAP1 SSTORE PUSH1 0x40 MLOAD SWAP4 DUP5 SWAP4 PUSH1 0x4 CALLDATALOAD DUP6 MSTORE PUSH1 0x80 PUSH1 0x20 DUP7 ADD MSTORE PUSH1 0x80 DUP6 ADD SWAP1 PUSH2 0xD3E JUMP JUMPDEST SWAP1 DUP4 DUP3 SUB PUSH1 0x40 DUP6 ADD MSTORE PUSH2 0xD3E JUMP JUMPDEST CALLER PUSH1 0x60 DUP4 ADD MSTORE SUB SWAP1 LOG1 STOP JUMPDEST ADD MLOAD SWAP1 POP DUP11 DUP1 PUSH2 0x8A1 JUMP JUMPDEST SWAP1 PUSH1 0x2 DUP5 ADD PUSH1 0x0 MSTORE PUSH1 0x20 PUSH1 0x0 KECCAK256 SWAP2 PUSH1 0x0 JUMPDEST PUSH1 0x1F NOT DUP6 AND DUP2 LT PUSH2 0xA09 JUMPI POP SWAP4 PUSH1 0x1 DUP5 PUSH32 0x1363D0722B7228EA71C6DEC2340D69DCEB211781259722006A28F192B678B99 SWAP10 SWAP8 SWAP5 PUSH1 0x8 SWAP5 PUSH2 0x96E SWAP9 PUSH2 0x960 SWAP12 SWAP9 PUSH1 0x1F NOT DUP2 AND LT PUSH2 0x9F0 JUMPI JUMPDEST POP POP POP DUP2 SHL ADD PUSH1 0x2 DUP3 ADD SSTORE PUSH2 0x8B9 JUMP JUMPDEST ADD MLOAD PUSH1 0x0 NOT PUSH1 0xF8 DUP5 PUSH1 0x3 SHL AND SHR NOT AND SWAP1 SSTORE DUP11 DUP1 DUP1 PUSH2 0x9E0 JUMP JUMPDEST SWAP2 SWAP3 PUSH1 0x20 PUSH1 0x1 DUP2 SWAP3 DUP7 DUP6 ADD MLOAD DUP2 SSTORE ADD SWAP5 ADD SWAP3 ADD PUSH2 0x995 JUMP JUMPDEST PUSH1 0x2 DUP5 ADD PUSH1 0x0 MSTORE PUSH1 0x20 PUSH1 0x0 KECCAK256 PUSH1 0x1F DUP5 ADD PUSH1 0x5 SHR DUP2 ADD PUSH1 0x20 DUP6 LT PUSH2 0xA61 JUMPI JUMPDEST PUSH1 0x1F DUP4 ADD PUSH1 0x5 SHR DUP3 ADD DUP2 LT PUSH2 0xA55 JUMPI POP POP PUSH2 0x859 JUMP JUMPDEST PUSH1 0x0 DUP2 SSTORE PUSH1 0x1 ADD PUSH2 0xA3F JUMP JUMPDEST POP DUP1 PUSH2 0xA3F JUMP JUMPDEST PUSH4 0x4E487B71 PUSH1 0xE0 SHL PUSH1 0x0 MSTORE PUSH1 0x41 PUSH1 0x4 MSTORE PUSH1 0x24 PUSH1 0x0 REVERT JUMPDEST ADD MLOAD SWAP1 POP DUP7 DUP1 PUSH2 0x814 JUMP JUMPDEST SWAP3 POP PUSH1 0x1 DUP5 ADD PUSH1 0x0 MSTORE PUSH1 0x20 PUSH1 0x0 KECCAK256 SWAP1 PUSH1 0x0 SWAP4 JUMPDEST PUSH1 0x1F NOT DUP5 AND DUP6 LT PUSH2 0xAE0 JUMPI PUSH1 0x1 SWAP5 POP DUP4 PUSH1 0x1F NOT DUP2 AND LT PUSH2 0xAC7 JUMPI JUMPDEST POP POP POP DUP2 SHL ADD PUSH1 0x1 DUP3 ADD SSTORE PUSH2 0x82C JUMP JUMPDEST ADD MLOAD PUSH1 0x0 NOT PUSH1 0xF8 DUP5 PUSH1 0x3 SHL AND SHR NOT AND SWAP1 SSTORE DUP7 DUP1 DUP1 PUSH2 0xAB7 JUMP JUMPDEST DUP2 DUP2 ADD MLOAD DUP4 SSTORE PUSH1 0x20 SWAP5 DUP6 ADD SWAP5 PUSH1 0x1 SWAP1 SWAP4 ADD SWAP3 SWAP1 SWAP2 ADD SWAP1 PUSH2 0xA9C JUMP JUMPDEST SWAP1 SWAP2 POP PUSH1 0x1 DUP5 ADD PUSH1 0x0 MSTORE PUSH1 0x20 PUSH1 0x0 KECCAK256 PUSH1 0x1F DUP5 ADD PUSH1 0x5 SHR DUP2 ADD PUSH1 0x20 DUP6 LT PUSH2 0xB47 JUMPI JUMPDEST SWAP1 DUP5 SWAP4 SWAP3 SWAP2 JUMPDEST PUSH1 0x1F DUP4 ADD PUSH1 0x5 SHR DUP3 ADD DUP2 LT PUSH2 0xB38 JUMPI POP POP PUSH2 0x7FD JUMP JUMPDEST PUSH1 0x0 DUP2 SSTORE DUP6 SWAP5 POP PUSH1 0x1 ADD PUSH2 0xB22 JUMP JUMPDEST POP DUP1 PUSH2 0xB1C JUMP JUMPDEST PUSH1 0x40 MLOAD PUSH3 0x461BCD PUSH1 0xE5 SHL DUP2 MSTORE PUSH1 0x20 PUSH1 0x4 DUP3 ADD MSTORE PUSH1 0x19 PUSH1 0x24 DUP3 ADD MSTORE PUSH32 0x4769612062616E2073692070686169206C6F6E20686F6E203000000000000000 PUSH1 0x44 DUP3 ADD MSTORE PUSH1 0x64 SWAP1 REVERT JUMPDEST PUSH1 0x40 MLOAD PUSH3 0x461BCD PUSH1 0xE5 SHL DUP2 MSTORE PUSH1 0x20 PUSH1 0x4 DUP3 ADD MSTORE PUSH1 0xD PUSH1 0x24 DUP3 ADD MSTORE PUSH13 0x494420646120746F6E20746169 PUSH1 0x98 SHL PUSH1 0x44 DUP3 ADD MSTORE PUSH1 0x64 SWAP1 REVERT JUMPDEST PUSH2 0x140 DUP2 ADD SWAP1 DUP2 LT PUSH8 0xFFFFFFFFFFFFFFFF DUP3 GT OR PUSH2 0xA68 JUMPI PUSH1 0x40 MSTORE JUMP JUMPDEST SWAP1 PUSH1 0x1F DUP1 NOT SWAP2 ADD AND DUP2 ADD SWAP1 DUP2 LT PUSH8 0xFFFFFFFFFFFFFFFF DUP3 GT OR PUSH2 0xA68 JUMPI PUSH1 0x40 MSTORE JUMP JUMPDEST DUP2 PUSH1 0x1F DUP3 ADD SLT ISZERO PUSH2 0x220 JUMPI DUP1 CALLDATALOAD SWAP1 PUSH8 0xFFFFFFFFFFFFFFFF DUP3 GT PUSH2 0xA68 JUMPI PUSH1 0x40 MLOAD SWAP3 PUSH2 0xC3C PUSH1 0x1F DUP5 ADD PUSH1 0x1F NOT AND PUSH1 0x20 ADD DUP6 PUSH2 0xBE5 JUMP JUMPDEST DUP3 DUP5 MSTORE PUSH1 0x20 DUP4 DUP4 ADD ADD GT PUSH2 0x220 JUMPI DUP2 PUSH1 0x0 SWAP3 PUSH1 0x20 DUP1 SWAP4 ADD DUP4 DUP7 ADD CALLDATACOPY DUP4 ADD ADD MSTORE SWAP1 JUMP JUMPDEST SWAP1 PUSH1 0x1 DUP3 DUP2 SHR SWAP3 AND DUP1 ISZERO PUSH2 0xC8E JUMPI JUMPDEST PUSH1 0x20 DUP4 LT EQ PUSH2 0xC78 JUMPI JUMP JUMPDEST PUSH4 0x4E487B71 PUSH1 0xE0 SHL PUSH1 0x0 MSTORE PUSH1 0x22 PUSH1 0x4 MSTORE PUSH1 0x24 PUSH1 0x0 REVERT JUMPDEST SWAP2 PUSH1 0x7F AND SWAP2 PUSH2 0xC6D JUMP JUMPDEST SWAP1 PUSH1 0x40 MLOAD SWAP2 DUP3 PUSH1 0x0 DUP3 SLOAD SWAP3 PUSH2 0xCAC DUP5 PUSH2 0xC5E JUMP JUMPDEST SWAP1 DUP2 DUP5 MSTORE PUSH1 0x1 SWAP5 DUP6 DUP2 AND SWAP1 DUP2 PUSH1 0x0 EQ PUSH2 0xD1B JUMPI POP PUSH1 0x1 EQ PUSH2 0xCD8 JUMPI JUMPDEST POP POP PUSH2 0xCD6 SWAP3 POP SUB DUP4 PUSH2 0xBE5 JUMP JUMPDEST JUMP JUMPDEST SWAP1 SWAP4 SWAP2 POP PUSH1 0x0 MSTORE PUSH1 0x20 SWAP1 DUP2 PUSH1 0x0 KECCAK256 SWAP4 PUSH1 0x0 SWAP2 JUMPDEST DUP2 DUP4 LT PUSH2 0xD03 JUMPI POP POP PUSH2 0xCD6 SWAP4 POP DUP3 ADD ADD CODESIZE DUP1 PUSH2 0xCC8 JUMP JUMPDEST DUP6 SLOAD DUP9 DUP5 ADD DUP6 ADD MSTORE SWAP5 DUP6 ADD SWAP5 DUP8 SWAP5 POP SWAP2 DUP4 ADD SWAP2 PUSH2 0xCEB JUMP JUMPDEST SWAP2 POP POP PUSH2 0xCD6 SWAP5 POP PUSH1 0x20 SWAP3 POP PUSH1 0xFF NOT AND DUP3 DUP5 ADD MSTORE ISZERO ISZERO PUSH1 0x5 SHL DUP3 ADD ADD CODESIZE DUP1 PUSH2 0xCC8 JUMP JUMPDEST SWAP2 SWAP1 DUP3 MLOAD SWAP3 DUP4 DUP3 MSTORE PUSH1 0x0 JUMPDEST DUP5 DUP2 LT PUSH2 0xD6A JUMPI POP POP DUP3 PUSH1 0x0 PUSH1 0x20 DUP1 SWAP5 SWAP6 DUP5 ADD ADD MSTORE PUSH1 0x1F DUP1 NOT SWAP2 ADD AND ADD ADD SWAP1 JUMP JUMPDEST PUSH1 0x20 DUP2 DUP4 ADD DUP2 ADD MLOAD DUP5 DUP4 ADD DUP3 ADD MSTORE ADD PUSH2 0xD49 JUMP JUMPDEST PUSH1 0x0 SLOAD PUSH1 0x1 PUSH1 0x1 PUSH1 0xA0 SHL SUB AND CALLER SUB PUSH2 0xD92 JUMPI JUMP JUMPDEST PUSH1 0x40 MLOAD PUSH4 0x118CDAA7 PUSH1 0xE0 SHL DUP2 MSTORE CALLER PUSH1 0x4 DUP3 ADD MSTORE PUSH1 0x24 SWAP1 REVERT JUMPDEST ISZERO PUSH2 0xDB1 JUMPI JUMP JUMPDEST PUSH1 0x40 MLOAD PUSH3 0x461BCD PUSH1 0xE5 SHL DUP2 MSTORE PUSH1 0x20 PUSH1 0x4 DUP3 ADD MSTORE PUSH1 0xB PUSH1 0x24 DUP3 ADD MSTORE PUSH11 0x29B0B49039B7903A34B2B7 PUSH1 0xA9 SHL PUSH1 0x44 DUP3 ADD MSTORE PUSH1 0x64 SWAP1 REVERT INVALID LOG2 PUSH5 0x6970667358 0x22 SLT KECCAK256 DUP3 0x4A 0xE9 SWAP12 COINBASE 0xF6 PUSH28 0xEB380116CD453AD0BAFE6949B4DF971F826516C66366C68C564736F PUSH13 0x63430008140033000000000000 "},"methodIdentifiers":{"danhSachThuoc(uint256)":"3e46ce01","datGiaBanLe(uint256,uint256)":"21613afe","muaChoNguoiDung(uint256)":"248bbb21","muaChoNhaThuoc(uint256)":"37255ff1","owner()":"8da5cb5b","renounceOwnership()":"715018a6","transferOwnership(address)":"f2fde38b","xacThucNguonGoc(uint256,uint256,string,string)":"04fa750b","xemThongTinThuoc(uint256)":"f5b4cbb6"}}}}}