{
  "_format": "hh-sol-artifact-1",
  "contractName": "QuanLyThuoc",
  "sourceName": "contracts/quanLiThuoc.sol",
  "abi": [
    {
      "inputs": [],
      "stateMutability": "nonpayable",
      "type": "constructor"
    },
    {
      "inputs": [
        {
          "internalType": "address",
          "name": "owner",
          "type": "address"
        }
      ],
      "name": "OwnableInvalidOwner",
      "type": "error"
    },
    {
      "inputs": [
        {
          "internalType": "address",
          "name": "account",
          "type": "address"
        }
      ],
      "name": "OwnableUnauthorizedAccount",
      "type": "error"
    },
    {
      "anonymous": false,
      "inputs": [
        {
          "indexed": false,
          "internalType": "uint256",
          "name": "id",
          "type": "uint256"
        },
        {
          "indexed": false,
          "internalType": "address",
          "name": "nguoiDung",
          "type": "address"
        },
        {
          "indexed": false,
          "internalType": "uint256",
          "name": "gia",
          "type": "uint256"
        }
      ],
      "name": "BanChoNguoiDung",
      "type": "event"
    },
    {
      "anonymous": false,
      "inputs": [
        {
          "indexed": false,
          "internalType": "uint256",
          "name": "id",
          "type": "uint256"
        },
        {
          "indexed": false,
          "internalType": "address",
          "name": "nhaThuoc",
          "type": "address"
        },
        {
          "indexed": false,
          "internalType": "uint256",
          "name": "gia",
          "type": "uint256"
        }
      ],
      "name": "BanChoNhaThuoc",
      "type": "event"
    },
    {
      "anonymous": false,
      "inputs": [
        {
          "indexed": true,
          "internalType": "address",
          "name": "previousOwner",
          "type": "address"
        },
        {
          "indexed": true,
          "internalType": "address",
          "name": "newOwner",
          "type": "address"
        }
      ],
      "name": "OwnershipTransferred",
      "type": "event"
    },
    {
      "anonymous": false,
      "inputs": [
        {
          "indexed": false,
          "internalType": "uint256",
          "name": "id",
          "type": "uint256"
        },
        {
          "indexed": false,
          "internalType": "string",
          "name": "nguonGoc",
          "type": "string"
        },
        {
          "indexed": false,
          "internalType": "string",
          "name": "ipfsHash",
          "type": "string"
        },
        {
          "indexed": false,
          "internalType": "address",
          "name": "nhaPhanPhoi",
          "type": "address"
        }
      ],
      "name": "XacThucNguonGoc",
      "type": "event"
    },
    {
      "inputs": [
        {
          "internalType": "uint256",
          "name": "",
          "type": "uint256"
        }
      ],
      "name": "danhSachThuoc",
      "outputs": [
        {
          "internalType": "uint256",
          "name": "id",
          "type": "uint256"
        },
        {
          "internalType": "string",
          "name": "nguonGoc",
          "type": "string"
        },
        {
          "internalType": "string",
          "name": "ipfsHash",
          "type": "string"
        },
        {
          "internalType": "address",
          "name": "nhaPhanPhoi",
          "type": "address"
        },
        {
          "internalType": "address",
          "name": "nhaThuoc",
          "type": "address"
        },
        {
          "internalType": "uint256",
          "name": "giaBanSi",
          "type": "uint256"
        },
        {
          "internalType": "uint256",
          "name": "giaBanLe",
          "type": "uint256"
        },
        {
          "internalType": "uint256",
          "name": "soLuong",
          "type": "uint256"
        },
        {
          "internalType": "bool",
          "name": "duocXacThuc",
          "type": "bool"
        },
        {
          "internalType": "bool",
          "name": "daBanChoNhaThuoc",
          "type": "bool"
        }
      ],
      "stateMutability": "view",
      "type": "function"
    },
    {
      "inputs": [
        {
          "internalType": "uint256",
          "name": "id",
          "type": "uint256"
        },
        {
          "internalType": "uint256",
          "name": "giaBanLe",
          "type": "uint256"
        }
      ],
      "name": "datGiaBanLe",
      "outputs": [],
      "stateMutability": "nonpayable",
      "type": "function"
    },
    {
      "inputs": [
        {
          "internalType": "uint256",
          "name": "id",
          "type": "uint256"
        }
      ],
      "name": "muaChoNguoiDung",
      "outputs": [],
      "stateMutability": "payable",
      "type": "function"
    },
    {
      "inputs": [
        {
          "internalType": "uint256",
          "name": "id",
          "type": "uint256"
        }
      ],
      "name": "muaChoNhaThuoc",
      "outputs": [],
      "stateMutability": "payable",
      "type": "function"
    },
    {
      "inputs": [],
      "name": "owner",
      "outputs": [
        {
          "internalType": "address",
          "name": "",
          "type": "address"
        }
      ],
      "stateMutability": "view",
      "type": "function"
    },
    {
      "inputs": [],
      "name": "renounceOwnership",
      "outputs": [],
      "stateMutability": "nonpayable",
      "type": "function"
    },
    {
      "inputs": [
        {
          "internalType": "address",
          "name": "newOwner",
          "type": "address"
        }
      ],
      "name": "transferOwnership",
      "outputs": [],
      "stateMutability": "nonpayable",
      "type": "function"
    },
    {
      "inputs": [
        {
          "internalType": "uint256",
          "name": "id",
          "type": "uint256"
        },
        {
          "internalType": "uint256",
          "name": "giaBanSi",
          "type": "uint256"
        },
        {
          "internalType": "string",
          "name": "nguonGoc",
          "type": "string"
        },
        {
          "internalType": "string",
          "name": "ipfsHash",
          "type": "string"
        }
      ],
      "name": "xacThucNguonGoc",
      "outputs": [],
      "stateMutability": "nonpayable",
      "type": "function"
    },
    {
      "inputs": [
        {
          "internalType": "uint256",
          "name": "id",
          "type": "uint256"
        }
      ],
      "name": "xemThongTinThuoc",
      "outputs": [
        {
          "components": [
            {
              "internalType": "uint256",
              "name": "id",
              "type": "uint256"
            },
            {
              "internalType": "string",
              "name": "nguonGoc",
              "type": "string"
            },
            {
              "internalType": "string",
              "name": "ipfsHash",
              "type": "string"
            },
            {
              "internalType": "address",
              "name": "nhaPhanPhoi",
              "type": "address"
            },
            {
              "internalType": "address",
              "name": "nhaThuoc",
              "type": "address"
            },
            {
              "internalType": "uint256",
              "name": "giaBanSi",
              "type": "uint256"
            },
            {
              "internalType": "uint256",
              "name": "giaBanLe",
              "type": "uint256"
            },
            {
              "internalType": "uint256",
              "name": "soLuong",
              "type": "uint256"
            },
            {
              "internalType": "bool",
              "name": "duocXacThuc",
              "type": "bool"
            },
            {
              "internalType": "bool",
              "name": "daBanChoNhaThuoc",
              "type": "bool"
            }
          ],
          "internalType": "struct QuanLyThuoc.Thuoc",
          "name": "",
          "type": "tuple"
        }
      ],
      "stateMutability": "view",
      "type": "function"
    }
  ],
  "bytecode": "0x6080806040523461007a5733156100645760008054336001600160a01b03198216811783556040519290916001600160a01b0316907f8be0079c531659141344cd1fd0a4f28419497f9722a3daafe3b4186f6b6457e09080a3610e1a90816100808239f35b631e4fbdf760e01b815260006004820152602490fd5b600080fdfe6080604052600436101561001257600080fd5b60003560e01c806304fa750b146106ef57806321613afe146105b1578063248bbb211461051b57806337255ff1146104055780633e46ce0114610337578063715018a6146102de5780638da5cb5b146102b5578063f2fde38b146102255763f5b4cbb61461007f57600080fd5b346102205760203660031901126102205760006101206040516100a181610bc8565b82815260606020820152606060408201528260608201528260808201528260a08201528260c08201528260e08201528261010082015201526004356000526001602052604060002060ff6008604051926100fa84610bc8565b8054845261010a60018201610c98565b602085015261011b60028201610c98565b604085015260018060a01b03600382015416606085015260018060a01b036004820154166080850152600581015460a0850152600681015460c0850152600781015460e08501520154818116151561010084015260081c1615156101208201526040518091602082528051602083015260208101516101206101c46101ae61014093846040880152610160870190610d3e565b6040850151868203601f19016060880152610d3e565b9260018060a01b03606082015116608086015260018060a01b0360808201511660a086015260a081015160c086015260c081015160e086015260e081015161010086015261010081015115158286015201511515908301520390f35b600080fd5b34610220576020366003190112610220576004356001600160a01b038181169182900361022057610254610d7e565b811561029c57600054826bffffffffffffffffffffffff60a01b821617600055167f8be0079c531659141344cd1fd0a4f28419497f9722a3daafe3b4186f6b6457e0600080a3005b604051631e4fbdf760e01b815260006004820152602490fd5b34610220576000366003190112610220576000546040516001600160a01b039091168152602090f35b34610220576000366003190112610220576102f7610d7e565b600080546001600160a01b0319811682556001600160a01b03167f8be0079c531659141344cd1fd0a4f28419497f9722a3daafe3b4186f6b6457e08280a3005b346102205760203660031901126102205760043560005260016020526040600020805461036660018301610c98565b9160ff61037560028301610c98565b60018060a01b0392836003820154169360048201541660058201546006830154916103d060086007860154950154956103c26040519b8c9b8c5260208c61014091829101528c0190610d3e565b908a820360408c0152610d3e565b966060890152608088015260a087015260c086015260e0850152818116151561010085015260081c1615156101208301520390f35b602036600319011261022057600435600081815260016020526040902060038101546001600160a01b031680156104dd5760008080809361044b60058701543414610daa565b819034156104d3575b3491f1156104c7576004810180546001600160a01b03191633908117909155600891909101805461ff00191661010017905560408051928352602083019190915234908201527f611230459d201537690850d6b63906177318ad11725ecf242a03a4bcc99f10949080606081015b0390a1005b6040513d6000823e3d90fd5b6108fc9150610454565b60405162461bcd60e51b815260206004820152601660248201527553616e207068616d206b686f6e6720746f6e2074616960501b6044820152606490fd5b60203660031901126102205760043580600052600160205260008080806040812061054b60058201543414610daa565b6004015481906001600160a01b031634156105a7575b3491f1156104c7576040805191825233602083015234908201527fd863263f532b0593ce273f93d57f099c58124e976988dcc30729aa9c2d7f32e69080606081016104c2565b6108fc9150610561565b34610220576040366003190112610220576024356004356000526001602052604060002060018060a01b0360048201541633036106aa5760ff600882015460081c161561065a57600581015482111561060a5760060155005b60405162461bcd60e51b815260206004820152602260248201527f4769612062616e206c652070686169206c6f6e20686f6e206769612062616e20604482015261736960f01b6064820152608490fd5b60405162461bcd60e51b815260206004820152602260248201527f5468756f6320636875612064756f63206d75612074752064697374726962757460448201526137b960f11b6064820152608490fd5b60405162461bcd60e51b815260206004820152601e60248201527f436869206e6861207468756f63206d6f692064756f63206461742067696100006044820152606490fd5b346102205760803660031901126102205760443567ffffffffffffffff811161022057610720903690600401610c07565b60643567ffffffffffffffff811161022057610740903690600401610c07565b6004356000908152600160205260409020600301546001600160a01b0316610b935760243515610b4e5760405161077681610bc8565b60043581528260208201528160408201523360608201526000608082015260243560a0820152600060c0820152600060e0820152600161010082015260006101208201526004356000526001602052604060002081518155602082015180519067ffffffffffffffff8211610a685781906107f46001850154610c5e565b601f8111610afb575b50602090601f8311600114610a8957600092610a7e575b50508160011b916000199060031b1c19161760018201555b604082015180519067ffffffffffffffff8211610a68576108506002840154610c5e565b601f8111610a21575b50602090601f83116001146109845761096e938361096097947f01363d0722b7228ea71c6dec2340d69dceb211781259722006a28f192b678b99999794600894600092610979575b50508160011b916000199060031b1c19161760028201555b6003810160018060a01b03606085015116906bffffffffffffffffffffffff60a01b9182825416179055600482019060018060a01b036080860151169082541617905560a0830151600582015560c0830151600682015560e08301516007820155019061010081015115159060ff61ff006101208554930151151560081b1692169061ffff1916171790556040519384936004358552608060208601526080850190610d3e565b908382036040850152610d3e565b3360608301520390a1005b015190508a806108a1565b906002840160005260206000209160005b601f1985168110610a095750936001847f01363d0722b7228ea71c6dec2340d69dceb211781259722006a28f192b678b9999979460089461096e986109609b98601f198116106109f0575b505050811b0160028201556108b9565b015160001960f88460031b161c191690558a80806109e0565b91926020600181928685015181550194019201610995565b600284016000526020600020601f840160051c810160208510610a61575b601f830160051c82018110610a55575050610859565b60008155600101610a3f565b5080610a3f565b634e487b7160e01b600052604160045260246000fd5b015190508680610814565b9250600184016000526020600020906000935b601f1984168510610ae0576001945083601f19811610610ac7575b505050811b01600182015561082c565b015160001960f88460031b161c19169055868080610ab7565b81810151835560209485019460019093019290910190610a9c565b909150600184016000526020600020601f840160051c810160208510610b47575b90849392915b601f830160051c82018110610b385750506107fd565b60008155859450600101610b22565b5080610b1c565b60405162461bcd60e51b815260206004820152601960248201527f4769612062616e2073692070686169206c6f6e20686f6e2030000000000000006044820152606490fd5b60405162461bcd60e51b815260206004820152600d60248201526c494420646120746f6e2074616960981b6044820152606490fd5b610140810190811067ffffffffffffffff821117610a6857604052565b90601f8019910116810190811067ffffffffffffffff821117610a6857604052565b81601f820112156102205780359067ffffffffffffffff8211610a685760405192610c3c601f8401601f191660200185610be5565b8284526020838301011161022057816000926020809301838601378301015290565b90600182811c92168015610c8e575b6020831014610c7857565b634e487b7160e01b600052602260045260246000fd5b91607f1691610c6d565b9060405191826000825492610cac84610c5e565b908184526001948581169081600014610d1b5750600114610cd8575b5050610cd692500383610be5565b565b9093915060005260209081600020936000915b818310610d03575050610cd693508201013880610cc8565b85548884018501529485019487945091830191610ceb565b915050610cd694506020925060ff191682840152151560051b8201013880610cc8565b919082519283825260005b848110610d6a575050826000602080949584010152601f8019910116010190565b602081830181015184830182015201610d49565b6000546001600160a01b03163303610d9257565b60405163118cdaa760e01b8152336004820152602490fd5b15610db157565b60405162461bcd60e51b815260206004820152600b60248201526a29b0b49039b7903a34b2b760a91b6044820152606490fdfea2646970667358221220824ae99b41f67b0eb380116cd453ad0bafe6949b4df971f826516c66366c68c564736f6c63430008140033",
  "linkReferences": {},
  "deployedLinkReferences": {}
}